:1000000042C076C05BC05AC059C058C057C056C025
:1000100055C054C053C052C051C050C04FC04EC054
:100020004DC04CC04BC009021200010100A01909CB
:10003000040000000000000012011001FF00000891
:10004000C016DC050701010200010E035500530034
:1000500042006100730070001C0377007700770096
:100060002E00660069007300630068006C002E00BB
:1000700064006500040309040E0D0C0B0A0908074F
:1000800006050403020111241FBECFE5D4E0DEBF44
:10009000CDBF10E0A0E6B0E0ECEEFAE102C00590C2
:1000A0000D92A436B107D9F720E0A4E6B0E001C074
:1000B0001D92A23BB207E1F7CBDB16CDA1CFA82F53
:1000C000B92F80E090E041E050EA609530E009C04F
:1000D0002D9182279795879510F084279527305E7C
:1000E000C8F36F5FA8F30895EADF8D939D93089599
:1000F000CF93CFB7CF93C395B09BE9F7B09B09C01F
:10010000B09B07C0B09B05C0B09B03C0B09B01C0B3
:10011000A1C0DF93C0918E00DD27CA56DF4FB09B90
:1001200002C0DF91EBCF2F930F931F9306B32FEFF6
:1001300000FB20F94F933F9316B34FEF012700FBCD
:1001400021F93BE031C04E7F012F16B3216028C05A
:10015000102F4D7F2260000006B329C04B7F246022
:10016000012F000016B32BC016B3477F28602AC0AA
:100170004F7E06B320612CC04F7D16B320622FC086
:100180004F7B06B3206432C0422706B349934FEF3A
:100190000000102710FB20F916B31370C9F1297F56
:1001A00091F2012700FB21F906B3237F89F2315038
:1001B00058F1102710FB22F916B3277E79F2012798
:1001C00000FB23F92F7C81F206B3102710FB24F9E2
:1001D0002F7971F200C016B3012700FB25F92F73A8
:1001E00059F200C006B3102710FB26F9223040F266
:1001F00000C016B3012700FB27F9243028F64F77FB
:10020000206816B30000F9CF10E41ABF002717C00A
:100210003B503195C31BD04010E41ABF0881033C0A
:10022000E9F00B34D9F020918C001981110F1213D1
:10023000EDCF093641F10D3211F0013E39F700934F
:1002400094003F914F911F910F912F91DF91CAB769
:10025000C6FD51CFCF91CFBFCF911895209194007B
:10026000222379F310919200112311F5343012F109
:100270003093920020938D0010918E003BE0311B53
:1002800030938E0017C00091920001308CF40AE583
:1002900030918F0034FD10C000938F00C1E8D0E092
:1002A0000FC02795A8F45150A9F4220F0000F9CFF0
:1002B0004AE503C042ED01C0432FC4E1D0E032E083
:1002C00017B31360C09A17BB08B320E413E05F9321
:1002D000012756E008BB279520F4515021F4220F46
:1002E000F9CF012756E000003B5A08BBD0F2279512
:1002F00028F4515029F4220F0000F9CF012756E0CD
:10030000279508BB20F4515021F4220FF9CF012783
:1003100056E02991332308BB21F60C7F10919300FE
:10032000110FC651D04008BB11F010938C0010E49F
:100330001ABF016017B31C7F402F4C7F5F9100C034
:1003400000C008BB17BB48BB7CCFC598BD9ABB9803
:10035000C39A50E22AD05A95E9F7089527D028E0A9
:100360003327382780FB869522D02A95D1F730FB9A
:100370001ED01BD01AC020EC18D046F42A95E1F705
:1003800080E02AE113D02A95E9F70FC028E033274F
:1003900088270BD0869587F938272A95D1F705D07D
:1003A00027F932277AF301D000C06894E89416F454
:1003B000C39A01C0C39806D0C59AE6B3E3FB02D046
:1003C000C5980895E091B000F091B1003197F0F731
:1003D000089518D084E2C2DFCEDF8D934A95D1F71D
:1003E000089510D083EFBADF8DE1B8DF84E6B6DF81
:1003F0008D91B4DF82E7B2DFBEDF8078D9F74A950E
:1004000089F70895AC0188E6A9DF842FA7DF89E684
:10041000A5DF852FA3CFBA01A901DBCFBA01A901BE
:10042000E0CFCF93DF9360919200635067FD90C05F
:1004300080918E00CCE0D0E0C81BD109CA56DF4FB6
:1004400080918D008D3209F0BFC0683009F07EC008
:1004500083EC809381008AE580938F001092640082
:100460008881807671F0CE01C2D38F3F09F466C0D7
:100470009F81911169C09E81981708F065C0892FEE
:1004800063C02A8110928A00998191110AC010924A
:100490008B002AE830E082E03093910020939000B6
:1004A000E7CF953029F4209393002AE830E0F4CF89
:1004B000963099F59B81913059F488E390E09093C0
:1004C00091008093900082E190E490936400D0CFFB
:1004D000923019F486E290E0F2CF9330A9F721111F
:1004E00008C084E790E0909391008093900084E0AE
:1004F000EBCF213041F488E590E090939100809318
:1005000090008CE1E1CF2230F9F68AE490E09093FC
:100510009100809390008EE0D7CF983059F09930B9
:1005200019F420939500C1CF81E09A3009F4BDCF32
:1005300080E0BBCF25E930E081E0AECF988197FD28
:100540008E8190E8909364008093650010929200F1
:1005500080918F0084FF2BC0C0916500CF3F39F19F
:100560006C2FC93008F068E08C2F861B80936500E3
:100570008091810098E8892780938100CC2359F0ED
:100580002091640027FF32C082E890E079D5C82F1F
:10059000893008F052C06C2F82E890E0A5DDCC5F76
:1005A000CC3019F08FEF80936500C0938F0084E109
:1005B00096B3937031F48150D9F710929300109252
:1005C0008C00DF91CF9108958091640087FFBECFAA
:1005D000CE01E0D68F3F21F48EE180938F00B6CF1D
:1005E000882309F4B3CF10926500B0CF80919000BA
:1005F0009091910026FF17C0FC01A2E8B0E0262FE1
:10060000280F34913D9331962E13FBCF2FEF260FF9
:1006100030E02F5F3F4F820F931F909391008093A4
:100620009000C62FB8CFA2E8B0E0FC01262F280F1B
:1006300031913D932E13FCCFE9CF8FEF809365006E
:10064000CEE1B3CF8AE580938F008FEF8093650072
:1006500085B7826085BF8BB780648BBF08958FB9E3
:10066000779BFECF8FB108958091AD008DB98091B9
:10067000AC008EB908951DB88823B1F0883078F1A8
:100680002FE233E030936800209367001092AC00B3
:1006900091E09093AE008B30D1F040F48930D9F0E6
:1006A000C0F48830D1F0E0CF8CE0EACF8D3049F053
:1006B00060F08E30C1F780E58093AD009093AC0080
:1006C000F2CF80E58093AD00EECF81E5F5CF81E5F7
:1006D000F9CF82E5F1CF82E5F5CF83E5F3CF25EDC4
:1006E00033E03093680020936700843091F030F459
:1006F000823099F0833079F080EC06C0863021F0AA
:1007000030F08730C9F783E08093AE0008958CE025
:10071000FBCF88E1F9CF80E3F7CF80E6F5CF0F93E9
:100720001F93CF93DF93C82FA6DF11E0DFE3C8301C
:1007300010F41FE0DAEFC3E0C29A812F0CD2C29806
:100740008D2F09D2E0916700F09168008CEA09953D
:10075000E0916700F091680083E50995E0916700FA
:10076000F091680080E00995082FE0916700F09112
:10077000680080E00995033511F4882349F087E982
:100780009AE30197F1F700C00000C150A9F681E09B
:10079000DF91CF911F910F91089522B79091AE00F4
:1007A00082B7821B8917E0F308951F93CF93DF93DD
:1007B000182FC598D8E0C0E017FF13C0C39A110FD7
:1007C000ECDFC59AEADF86B382958170CC0FC82B27
:1007D000C598E3DFD15081F78C2FDF91CF911F9126
:1007E0000895C398ECCF87B38C6287BBBC98C2983E
:1007F000C59881E0B0D1C29A81E0ADD1C298809114
:100800006700909168008F52934009F42DDF8FEFBD
:1008100080936000089587B38C6287BB80916700E6
:10082000909168008F52934009F41EDF8FEF809300
:100830006000C29A089587B3837D87BB88B3837DA8
:1008400088BB1092770008950F931F93CF93DF9387
:1008500080916600882371F062DF811109C0909158
:10086000660090937700DF91CF911F910F910895CB
:100870001092660080917700C8E7D0E00C2F025FED
:10088000882329F0DF91CF911F910F9148CFFE016E
:100890001491812F44DF811105C0109377001093CC
:1008A0006600E1CF21960C13F2CF109277008AE018
:1008B000E2DE81E0D8CF0F931F938B019C01225081
:1008C0003109011511052640310550F5DC01CB0138
:1008D00021E1B695A795979587952A95D1F720910F
:1008E00060002817E9F080936000E0916700F091C4
:1008F00068008DE40995E0916700F091680080E060
:100900000995E0916700F091680080916000099579
:10091000E0916700F091680080E01F910F910994C9
:100920001F910F910895CF92DF92EF92FF926B018A
:100930007C01C1DF8C2D880F880F880F8870E091B3
:100940006700F091680080620995D701C60129E02F
:10095000B695A795979587952A95D1F7E091670069
:10096000F09168000995D701C601B695A7959795AE
:100970008795E0916700F09168000995E091670024
:10098000F091680080E0FF90EF90DF90CF900994A5
:10099000CF92DF92EF92FF92CF93DF936B017C01B6
:1009A000D42FC22F88DF8C2D880F880F880F887076
:1009B000E0916700F091680080640995D701C60155
:1009C00029E0B695A795979587952A95D1F7E09157
:1009D0006700F09168000995D701C601B695A79503
:1009E00097958795E0916700F09168000995E091EF
:1009F0006700F09168008D2F0995C11108C080E053
:100A0000DF91CF91FF90EF90DF90CF900895DF3F7F
:100A100061F0CEE181E09FD0C701B60184DF8D1780
:100A200071F3C15041F481E0EBCFC701B6017BDF28
:100A30008F3F79F7E4CFC53168F784E0CB3058F3C6
:100A400082E0E9CFCF92DF92EF92FF92CF936B01DA
:100A50007C0131DFE0916700F09168008CE409953A
:100A6000D701C60129E0B695A795979587952A9550
:100A7000D1F7E0916700F09168000995D701C601B0
:100A8000B695A79597958795E0916700F0916800D6
:100A90000995E0916700F091680080E00995C9E14F
:100AA00081E059D0C701B6013EDF8F3F81F4C150CC
:100AB00039F481E0CF91FF90EF90DF90CF900895CF
:100AC000C03170F784E0C63060F382E0EACF80E0A6
:100AD000F1CFCF93DF93EC01E0916700F0916800D4
:100AE00080EA0995E0916700F09168008D2F0995E3
:100AF000E0916700F09168008C2F0995E091670004
:100B0000F091680080E0DF91CF9109941F93CF931B
:100B1000DF93D82F192FC62FE0916700F09168005E
:100B200080EC0995E0916700F0916800812F0995AC
:100B3000E0916700F09168008D2F0995E0916700C2
:100B4000F09168008C2F09958BE005D080E0DF9153
:100B5000CF911F91089522B792B7921B9C33E0F377
:100B60008150C9F70895262FFC0142815381052E3B
:100B7000000C660B770B40937200509373006093E8
:100B800074007093750086819781909371008093B3
:100B900070002093780008950F931F93522F209197
:100BA000760021110FC0FC0102811381012E000C7F
:100BB000220B330B00937200109373002093740088
:100BC00030937500242F30E030936D0020936C003B
:100BD00050FD40936F00FC018681978190937100D6
:100BE00080937000609378001F910F910895CF92C9
:100BF000DF92EF92FF920F931F93CF938C01DC0152
:100C00001196CC911197C130D1F48091770033DDEA
:100C100010927600A898E7DD17DE8093690088239C
:100C200019F009DE109266008091690080937900C6
:100C300089E790E0909391008093900081C0C23347
:100C400039F48091770017DDA898E5DDC0E0F0CF9A
:100C5000C33379F4C298FC0182818093630086815A
:100C600097819093710080937000C0937800CFEFCC
:100C7000DFCFC43389F4C29812968C911297809377
:100C8000630016968D919C919093710080937000F3
:100C900082E380937800EBCFC63419F4A8980CD681
:100CA000D5CFC73411F40DD6D1CFC83411F41BD62B
:100CB000CDCFCA3439F4FC01828127D680937900E4
:100CC000C1E0B6CFCB3421F412968C914AD6F6CF40
:100CD000CC3409F06FC0FC01838191E0811101C027
:100CE00090E090936B00D80112969C91129790938C
:100CF0006200882309F458C0823059F51496CD90CB
:100D0000DC900D2C000CEE08FF08C0927200D0920F
:100D10007300E0927400F0927500D3D5C091620028
:100D2000C114D104F1E0EF06F10408F0CE608C2F7D
:100D3000ECD58823C9F0D7D58EEF80937900C1E038
:100D40008C2FCF911F910F91FF90EF90DF90CF905C
:100D50000895C12CD12C76018130B9F6F801C480F8
:100D6000D12CF12CE12CD1CFC114D10481E0E806C3
:100D7000F10418F08D2DC9D507C0AFEFCA16D10404
:100D8000E104F10409F0B0F78C2DBFD59AD58C2F72
:100D90008160BBD5D80116968D919C91909371007E
:100DA0008093700086E375CF8CD561E0F801828175
:100DB00002D6F0CFCD34E1F5FC01938181E09111B1
:100DC00001C080E080936B00D80112968C9112973D
:100DD0008093620014968C911497809361009923FC
:100DE00081F09230D9F415969C91092E000CAA0B33
:100DF000BB0B8093720090937300A0937400B09328
:100E00007500F8018681978190937100809370003E
:100E100085E38093780010926A0029CF913021F405
:100E200090E0B0E0A0E0E5CF80E090E0DC01E1CF31
:100E3000CD3571F414968C91149780936E001696AC
:100E40008D919C9190937100809370008AE321CFE3
:100E5000CC3561F4FC01848180936E00868197819A
:100E6000909371008093700089E313CFCE3541F4E5
:100E7000EED5C82F813009F0AEC080937900D8CE6E
:100E8000CF3511F4F3D51ACFCA3509F040C0A89870
:100E9000A1D5D80112968C91129713963C91139775
:100EA00014962C91149715969C9115978093720027
:100EB00030937300209374009093750016966C9194
:100EC0006F7194D5F80186818295869587708683A7
:100ED000882391F0A8D580937900D80116968C913B
:100EE000823018F0A0D580937A00F8018681833093
:100EF00018F099D580937B00D80116968C91843098
:100F000018F091D580937C006FD5C4E091CEC230AB
:100F100019F491DCA99A9ACEC33041F5E0916700AB
:100F2000F091680012968C91099580937900E09178
:100F30006700F0916800D80113968C910995809311
:100F40007A00E0916700F0916800D80114968C91C6
:100F5000099580937B00E0916700F0916800D801CB
:100F600015968C91099580937C00CFCF62E0C430B8
:100F700009F476C063E0C73009F472C0C53011F4DB
:100F800063DC9CCEC63041F4FC0125812F70448186
:100F900061E0C80101DE6BCEC83021F420E040E002
:100FA00064E0F7CFC93089F481E080937600F801DE
:100FB00082819381A481B5818093720090937300A4
:100FC000A0937400B093750041CECA3039F41296E4
:100FD0008C91809377001092790072CEC43141F4E5
:100FE000109279008091770080937A00C2E020CE41
:100FF000CB3089F4FC01828193819093B10080937E
:10100000B000C29ABA9A83E0A6DDC298A89880E19F
:10101000A2DD9BD91BCECC3099F480EC9FD980E027
:101020009DD98AE098DDC29A85E095DDC29885E079
:1010300092DD87B3837D87BB88B3837D88BB06CE73
:10104000CD3011F498D93ACECE3021F412968C914D
:1010500085D9C1CF65E0CF3019F0C03121F466E009
:10106000C80181DD04CECF3709F0F0CD89E180934E
:10107000790081E880937A0010927B008FE073CF33
:101080008F929F92AF92BF92CF92DF92EF92FF9298
:101090000F931F93CF93DF93EC01809178009EEF25
:1010A000980F923048F0853039F0833329F0893336
:1010B00019F0863309F06AC170E000917000109158
:1010C00071006017710708F48B01F02EA9988091C8
:1010D0007800853041F5A801BE01809172009091A1
:1010E000730099D98091720090917300A09174005F
:1010F000B0917500800F911FA11DB11D80937200EA
:1011000090937300A0937400B09375008091700069
:1011100090917100801B910B9093710080937000EF
:10112000892BF9F05EC0833361F5EC2ECC2EDD2ED9
:101130008C2D8E198F15C0F08091700090917100E8
:10114000801B910B9093710080937000892B09F0A4
:1011500048C080916300882321F0C29A24E02A9538
:10116000F1F7109278003DC0E0916700F0916800BF
:1011700080E00995F60181936F01F4E0FA95F1F7AB
:10118000D7CF863309F05BC080916B00D12CC12C86
:101190005801811110C081E0A81AB108CF1480F461
:1011A00081E0AC14BD0409F080E0DBD389932FEF1C
:1011B000C21AD20AF3CFE1E0AE1AB108CF1408F197
:1011C0008091700090917100801B910B9093710041
:1011D00080937000892B29F486D3109278001092A6
:1011E0006B00A99AA8988F2DDF91CF911F910F9135
:1011F000FF90EF90DF90CF90BF90AF909F908F9037
:10120000089581E0AC14BD0409F080E0AAD389936D
:101210008091720090917300A0917400B09175005C
:101220000196A11DB11D8093720090937300A0934D
:101230007400B0937500FFEFCF1ADF0ABFCF893378
:10124000F1F4EC2ECC2EDD2E8C2D8E198F1578F02E
:101250008091700090917100801B910B90937100B0
:1012600080937000892B09F0BCCFBED37ACFDBD33B
:10127000F60181936F01F4E0FA95F1F7E5CF9EEF67
:10128000980F923008F082C0C0907000D09071002A
:101290000C151D0508F46801FC2C10E000E0EE249C
:1012A000EA94823009F06CC0EC2E0C2F1D2F2FEF2A
:1012B000902F9E199F1538F08091700090917100C9
:1012C0008C199D0929CF60917200709173008091F3
:1012D0007400909175004B015C0131E1B694A794C4
:1012E000979487943A95D1F72811E5DA60917200C6
:1012F00070917300809174009091750014DBF80177
:1013000081938F018091720090917300A09174007D
:10131000B09175000196A11DB11D8093720090934C
:101320007300A0937400B0937500282DC1CF8091F5
:10133000720090917300A0917400B09175005E01ED
:10134000A00EB11E8115F0E19F07A105B105D8F4EB
:10135000C0DBF50180838091720090917300A091B1
:101360007400B09175000196A11DB11D80937200AB
:1013700090937300A0937400B09375000F5F1F4F9C
:101380000F15A8F299CFF501E082E5CFA99AFF24C5
:10139000FA9429CF7F928F929F92AF92BF92CF9271
:1013A000DF92EF92FF920F931F93CF93DF938C0105
:1013B00080917800811112C0CFEFA99AA8988C2F44
:1013C000DF91CF911F910F91FF90EF90DF90CF9021
:1013D000BF90AF909F908F907F900895813051F093
:1013E000982F9D7F943031F0982F977F923311F092
:1013F000853311F7A998C0907000D0907100E62E47
:10140000F12CCE14DF0408F47601CE2D8091780003
:10141000863049F5A701B801809172009091730060
:10142000FDD78091720090917300A0917400B091EB
:1014300075008E0D9F1DA11DB11D809372009093AC
:101440007300A0937400B093750080917000909128
:1014500071008E199F099093710080937000892B01
:10146000D1F0C0E0AACF823311F5D02F68018C2DC6
:101470008D1B8C1798F080917000909171008E19DF
:101480009F099093710080937000892B51F7809190
:1014900063008111C29A10927800D9C0E091670070
:1014A000F0916800D6018D916D010995E0CF8533EB
:1014B00009F0E0C080916B0081111AC0D02F680143
:1014C0008C2D8D1B8C1708F4C4C0809170009091F6
:1014D00071008E199F099093710080937000892B81
:1014E00009F0BFCF809161008130A9F6FCD1D3CF44
:1014F00060917200709173008091740090917500FA
:10150000D0E461157105B1E08B07910508F0D0E8D2
:101510008D2E912CB12CA12CA5019401C3D2D61BE8
:10152000DC1708F4CD2FCC151D0411F008F0CC2DDC
:1015300080916A00811136C0C4D1809162004091CF
:1015400072005091730060917400709175004115A4
:101550005105E1E06E07710548F09FE076956795CB
:10156000579547959A95D1F74E70842BCED181111E
:1015700079C08091720090917300A0917400B09135
:1015800075000097F1E0AF07B10578F0892FBDD164
:10159000811168C080917200B8D1811163C081E06F
:1015A00080936A00D02F780120C08F3F9105A1055C
:1015B000B10591F388F3EACFD7018D917D01A5D1D3
:1015C000811150C08091720090917300A0917400BD
:1015D000B09175000196A11DB11D8093720090938A
:1015E0007300A0937400B09375008E2D8D1B8C1723
:1015F00018F380917000909171008C1B9109909369
:10160000710080937000892B81F06091720070915D
:1016100073008091740090917500A501940142D2ED
:10162000672B682B692B09F0C8CE5DD1E7E9FAE397
:101630003197F1F700C00000809170009091710027
:10164000892B09F0BACE1092780010926B00C1E09D
:10165000B4CED6018D916D0158D1882309F430CFD5
:10166000CEEFABCE40D11092780010926B0010926A
:101670006A00F6CF8A3359F5D12CC12C17C0D0910E
:101680006E00DD2381F0D93008F0D8E06D2FF8012D
:10169000EC0DFD1D8081AAD18111D8C080916E0012
:1016A0008D1B80936E00BFEFCB1ADB0ACC1638F38C
:1016B00080917000909171008E199F099093710034
:1016C00080937000892B09F0CCCE8ED1E4CE81308E
:1016D00089F0843009F070CE80917200909173008F
:1016E000A0917400B09175000097A140B10510F071
:1016F000CCEF63CE80916C0090916D00812C912C89
:101700005401009791F088249924881A990AB12CE1
:10171000A12C4091720050917300609174007091FF
:10172000750084229522A622B722D1E0892B09F0E8
:10173000D0E0702E68018C2D87198C17B0F1809144
:101740007000909171008E199F09909371008093A1
:101750007000892B09F085CE80916C0090916D000E
:10176000009709F498CE20916F002817190609F404
:1017700092CE00917200109173002091740030910C
:10178000750001501109210931099195819591093F
:10179000B0E0A0E0BC01CD0160237123822393233C
:1017A00051D9882309F477CE31C0D6014D916D010E
:1017B0008091720090917300A0917400B0917500B7
:1017C00020917800213069F42D2FBC01CD01E0D8A3
:1017D000882351F080917800813009F089CFCBEFD8
:1017E000ECCD642F93D9F4CF80916C0090916D0073
:1017F000892BC1F080916F00815080936F0081111F
:1018000011C0C501B4011ED9882311F0CAEFD5CD8E
:1018100080916C0090916D00880E991EA11CB11CE6
:1018200080936F008091720090917300A09174007A
:10183000B09175000196A11DB11D80937200909327
:101840007300A0937400B093750075CFCDEFB5CD44
:1018500012BA18BA88B38C7F88BB87B3836087BB02
:101860002FEF37E582E0215030408040E1F700C0A3
:10187000000017BA93E094BBA29885B38C6385BB34
:10188000A8982FEF3FEA84E0215030408040E1F7F4
:1018900000C00000A89AA9982FEF3FEA84E02150E9
:1018A00030408040E1F700C00000A99AA89893BF9B
:1018B000C9D67894B6D5FECFBC98C49ABB98C39AC3
:1018C0000895BC98C49ABB98C39A84E18A95F1F7AD
:1018D000BC9AC49884E18A95F1F7BB9AC39884E1D5
:1018E0008A95F1F70895BB9AC398BC9AC49888E08A
:1018F0008A95F1F7BB98C39A88E08A95F1F7BC986E
:10190000C49A84E18A95F1F7089598E0BB9AC39848
:1019100028E02A95F1F787FF21C0BC98C49A28E0F7
:101920002A95F1F7BB98C39A24E12A95F1F7880F1D
:10193000915061F7BB9AC398BC98C49A88E08A9585
:10194000F1F7BB98C39A24E12A95F1F786B3BB9AC5
:10195000C39882958F70809581700895BC9AC498C1
:10196000DECF282FBC98C49A98E080E0BB9AC39839
:1019700034E13A95F1F7BB98C39A34E13A95F1F71F
:10198000880FB4998160915089F7BB9AC39821114F
:101990000FC0BC9AC49898E09A95F1F7BB98C39A87
:1019A00038E03A95F1F7BB9AC398BC98C49A089569
:1019B000BC98C49AF0CF880F613009F48160A5CF3C
:1019C000C598089587B38C6287BBBC98F9DFC3982C
:1019D000C2980895C298C598E0D6C29AC39ADDD637
:1019E000C59ADBD6C598D9C6C298EACFCF93DF9304
:1019F000D82F6150770BC1E001C0CC0F6A95EAF790
:101A0000C11104C080E0DF91CF910895D9DF8C2F00
:101A10008D2339F0C39AC1D6C59ABFD6D1DFC695FA
:101A2000EFCFC398F8CFCF93DF93D8E0C0E0C8DF03
:101A3000B4D6C59A86B382958170CC0FC82BADD62B
:101A4000BFDFD150A1F78C2FDF91CF910895CF93B5
:101A5000B9DFC29A88E28A95F1F79FD6C6B3C4DF90
:101A6000C295C17081E08C27CF910895CF93AADFF2
:101A7000C29A88E28A95F1F768E080ECB7DFC0E0AF
:101A80009FDF8BD6C59A89D6B49906C0CA5F98DF06
:101A9000ABDF8C2FCF91089593DFCF5FC73081F7F5
:101AA000CFEFF6CFA1E21A2EAA1BBB1BFD010DC082
:101AB000AA1FBB1FEE1FFF1FA217B307E407F507FE
:101AC00020F0A21BB30BE40BF50B661F771F881FDA
:101AD000991F1A9469F760957095809590959B0170
:0C1AE000AC01BD01CF010895F894FFCFC8
:041AEC00FF01A00155
:00000001FF
