:1000000043C077C05CC05BC05AC059C058C057C01D
:1000100056C055C054C053C052C051C050C04FC04C
:100020004EC04DC04CC009021200010100A01909C8
:10003000040000000000000012011001FF00000891
:10004000C016DC050701010200010E035500530034
:1000500042006100730070001C0377007700770096
:100060002E00660069007300630068006C002E00BB
:100070006400650004030904100F0E0D0C0B0A093F
:10008000080706050403020111241FBECFE5D4E0D2
:10009000DEBFCDBF10E0A0E6B0E0E4E4FAE102C0CC
:1000A00005900D92A636B107D9F720E0A6E6B0E09C
:1000B00001C01D92A23BB207E1F79DDBC1CCA0CFEE
:1000C000A82FB92F80E090E041E050EA609530E041
:1000D00009C02D9182279795879510F08427952741
:1000E000305EC8F36F5FA8F30895EADF8D939D93A8
:1000F0000895CF93CFB7CF93C395B09BE9F7B09B4B
:1001000009C0B09B07C0B09B05C0B09B03C0B09BAB
:1001100001C0A1C0DF93C0918F00DD27C956DF4F1A
:10012000B09B02C0DF91EBCF2F930F931F9306B3C9
:100130002FEF00FB20F94F933F9316B34FEF0127AA
:1001400000FB21F93BE031C04E7F012F16B3216047
:1001500028C0102F4D7F2260000006B329C04B7FBE
:100160002460012F000016B32BC016B3477F286010
:100170002AC04F7E06B320612CC04F7D16B320628B
:100180002FC04F7B06B3206432C0422706B3499389
:100190004FEF0000102710FB20F916B31370C9F1C0
:1001A000297F91F2012700FB21F906B3237F89F211
:1001B000315058F1102710FB22F916B3277E79F23F
:1001C000012700FB23F92F7C81F206B3102710FBD7
:1001D00024F92F7971F200C016B3012700FB25F92D
:1001E0002F7359F200C006B3102710FB26F92230F6
:1001F00040F200C016B3012700FB27F9243028F68F
:100200004F77206816B30000F9CF10E41ABF00271B
:1002100017C03B503195C31BD04010E41ABF088172
:10022000033CE9F00B34D9F020918D001981110FB6
:100230001213EDCF093641F10D3211F0013E39F7BD
:10024000009395003F914F911F910F912F91DF9156
:10025000CAB7C6FD51CFCF91CFBFCF91189520918E
:100260009500222379F310919300112311F5343076
:1002700012F13093930020938E0010918F003BE099
:10028000311B30938F0017C00091930001308CF424
:100290000AE53091900034FD10C000939000C2E850
:1002A000D0E00FC02795A8F45150A9F4220F000008
:1002B000F9CF4AE503C042ED01C0432FC4E1D0E0CD
:1002C00032E017B31360C09A17BB08B320E413E001
:1002D0005F93012756E008BB279520F4515021F485
:1002E000220FF9CF012756E000003B5A08BBD0F29D
:1002F000279528F4515029F4220F0000F9CF012747
:1003000056E0279508BB20F4515021F4220FF9CF75
:10031000012756E02991332308BB21F60C7F109169
:100320009400110FC651D04008BB11F010938D00FE
:1003300010E41ABF016017B31C7F402F4C7F5F9100
:1003400000C000C008BB17BB48BB7CCFC598BD9A96
:10035000BB98C39A50E22AD05A95E9F7089527D05E
:1003600028E03327382780FB869522D02A95D1F7BD
:1003700030FB1ED01BD01AC020EC18D046F42A95B2
:10038000E1F780E02AE113D02A95E9F70FC028E0D1
:10039000332788270BD0869587F938272A95D1F7F8
:1003A00005D027F932277AF301D000C06894E89489
:1003B00016F4C39A01C0C39806D0C59AE6B3E3FB0E
:1003C00002D0C5980895E091B000F091B100319746
:1003D000F0F7089518D084E2C2DFCEDF8D934A95FE
:1003E000D1F7089510D083EFBADF8DE1B8DF84E64E
:1003F000B6DF8D91B4DF82E7B2DFBEDF8078D9F758
:100400004A9589F70895AC0188E6A9DF842FA7DF14
:1004100089E6A5DF852FA3CFBA01A901DBCFBA01F9
:10042000A901E0CFCF93DF9360919300635067FD04
:1004300090C080918F00CCE0D0E0C81BD109C95694
:10044000DF4F80918E008D3209F0BFC0683009F017
:100450007EC083EC809382008AE5809390001092A6
:1004600066008881807671F0CE01ECD38F3F09F46D
:1004700066C09F81911169C09E81981708F065C080
:10048000892F63C02A8110928B00998191110AC033
:1004900010928C002BE830E082E0309392002093A1
:1004A0009100E7CF953029F4209394002BE830E0B9
:1004B000F4CF963099F59B81913059F488E390E020
:1004C000909392008093910082E190E49093660073
:1004D000D0CF923019F486E290E0F2CF9330A9F7B2
:1004E000211108C084E790E09093920080939100DE
:1004F00084E0EBCF213041F488E590E090939200C6
:10050000809391008CE1E1CF2230F9F68AE490E00B
:1005100090939200809391008EE0D7CF983059F05D
:10052000993019F420939600C1CF81E09A3009F4F4
:10053000BDCF80E0BBCF26E930E081E0AECF98812F
:1005400097FD8E8190E890936600809367001092EB
:1005500093008091900084FF2BC0C0916700CF3F33
:1005600039F16C2FC93008F068E08C2F861B80931E
:1005700067008091820098E8892780938200CC23CD
:1005800059F02091660027FF32C083E890E06AD5D9
:10059000C82F893008F052C06C2F83E890E0A5DDA9
:1005A000CC5FCC3019F08FEF80936700C093900040
:1005B00084E196B3937031F48150D9F7109294008E
:1005C00010928D00DF91CF9108958091660087FF92
:1005D000BECFCE0159D78F3F21F48EE1809390009A
:1005E000B6CF882309F4B3CF10926700B0CF8091C3
:1005F00091009091920026FF17C0FC01A3E8B0E0A3
:10060000262F280F34913D9331962E13FBCF2FEFD9
:10061000260F30E02F5F3F4F820F931F9093920081
:1006200080939100C62FB8CFA3E8B0E0FC01262F3D
:10063000280F31913D932E13FCCFE9CF8FEF80939C
:100640006700CEE1B3CF8AE5809390008FEF80936F
:10065000670085B7826085BF8BB780648BBF0895C4
:100660008FB9779BFECF8FB108958091AE008DB981
:100670008091AD008EB9089581111BC080916100F9
:10068000811117C080E18093780020E333E030933C
:100690006900209368001092AD0091E09093AF0044
:1006A0008C30B9F1F8F48930B1F1B0F48830A9F1A7
:1006B000DCCF80937800883040F726EE33E030932B
:1006C0006900209368008430A9F148F58230B1F1C7
:1006D000833091F180EC29C08A30A1F08B3041F752
:1006E00083E505C0803140F48E3060F081E5809371
:1006F000AE009093AD00DCCF8031D1F680E58093E1
:10070000AE00D6CF82E58093AE0081E08093AD004D
:10071000CFCF81E5F4CF82E5F2CF83E5F0CF86300D
:1007200021F030F08730B1F683E08093AF00089578
:100730008CE0FBCF88E1F9CF80E3F7CF80E6F5CFFF
:100740000F931F93CF93DF93C82F96DF11E0DFE362
:10075000C83010F41FE0DAEFC3E0C29A812F18D23C
:10076000C2988D2F15D2E0916800F09169008CEA53
:100770000995E0916800F091690083E50995E091A1
:100780006800F091690080E00995082FE091680009
:10079000F091690080E00995033511F4882349F050
:1007A00087E99AE30197F1F700C00000C150A9F66C
:1007B00081E0DF91CF911F910F91089522B7909121
:1007C000AF0082B7821B8917E0F308951F93CF9380
:1007D000DF93182FC598D8E0C0E017FF13C0C39A65
:1007E000110FECDFC59AEADF86B382958170CC0FDA
:1007F000C82BC598E3DFD15081F78C2FDF91CF91C3
:100800001F910895C398ECCF87B38C6287BBBC98C7
:10081000C298C59881E0BCD1C29A81E0B9D1C29892
:1008200080916800909169008053934009F41DDF26
:100830008FEF80936000089587B38C6287BB8091AF
:100840006800909169008053934009F40EDF8FEFA8
:1008500080936000C29A089587B3837D87BB88B375
:10086000837D88BB08950F931F93CF93DF9380916F
:100870006D00882371F08091780062DF811129C0BA
:100880009091780090936100DF91CF911F910F912B
:10089000089580916100882351F052DF811105C0D5
:1008A0009091610090937800EFCF10926100C8E7BB
:1008B000D0E00C2F005FFE011491812F41DF8111E8
:1008C00005C01093780010936100DECF21960C13C1
:1008D000F2CF81E0D9CF0F931F938B019C0122505F
:1008E0003109011511052640310550F5DC01CB0118
:1008F00021E1B695A795979587952A95D1F72091EF
:1009000060002817E9F080936000E0916800F091A2
:1009100069008DE40995E0916800F091690080E03C
:100920000995E0916800F091690080916000099557
:10093000E0916800F091690080E01F910F910994A7
:100940001F910F910895CF92DF92EF92FF926B016A
:100950007C01862F880F880F880F8870E0916800CF
:10096000F091690080620995D701C60129E0B6952A
:10097000A795979587952A95D1F7E0916800F09112
:1009800069000995D701C601B695A79597958795F2
:10099000E0916800F09169000995E0916800F0919C
:1009A000690080E0FF90EF90DF90CF900994CF92A4
:1009B000DF92EF92FF926B017C018DDFC701B601E0
:1009C000FF90EF90DF90CF90BECFCF92DF92EF926B
:1009D000FF92CF93DF936B017C01D42FC22F7BDF7B
:1009E0008C2D880F880F880F8870E0916800F09137
:1009F000690080640995D701C60129E0B695A795DD
:100A0000979587952A95D1F7E0916800F091690054
:100A10000995D701C601B695A79597958795E09159
:100A20006800F09169000995E0916800F091690013
:100A30008D2F0995C11108C080E0DF91CF91FF9003
:100A4000EF90DF90CF900895DF3F61F0C0E281E04A
:100A50009FD0C701B601ABDF8D1771F3C15041F4D0
:100A600081E0EBCFC701B601A2DF8F3F79F7E4CF7A
:100A7000C93168F784E0C03158F382E0E9CFCF9202
:100A8000DF92EF92FF92CF936B017C0124DFE09124
:100A90006800F09169008CE40995D701C60129E04E
:100AA000B695A795979587952A95D1F7E091680017
:100AB000F09169000995D701C601B695A79597955C
:100AC0008795E0916800F09169000995E0916800D0
:100AD000F091690080E00995C0E281E059D0C7013A
:100AE000B60165DF8F3F81F4C15039F481E0CF91C9
:100AF000FF90EF90DF90CF900895C93170F784E0B8
:100B0000C03160F382E0EACF80E0F1CFCF93DF9392
:100B1000EC01E0916800F091690080EA0995E091AC
:100B20006800F09169008D2F0995E0916800F091BF
:100B300069008C2F0995E0916800F091690080E0D0
:100B4000DF91CF9109941F93CF93DF93D82F192F63
:100B5000C62FE0916800F091690080EC0995E09162
:100B60006800F0916900812F0995E0916800F0918B
:100B700069008D2F0995E0916800F09169008C2F34
:100B800009958BE005D080E0DF91CF911F9108950A
:100B900022B792B7921B9C33E0F38150C9F70895B6
:100BA000262FFC0142815381052E000C660B770B2A
:100BB00040937400509375006093760070937700B3
:100BC00086819781909373008093720020937900BF
:100BD00008950F931F93FC01838191E0811101C05F
:100BE00090E090936C0080936B00928190936200F0
:100BF000882381F08230E1F404811581012E000CFC
:100C0000220B330B00937400109375002093760031
:100C10003093770086819781909373008093720060
:100C2000609379008FEFFA0180831F910F910895EF
:100C300000E010E09801813029F7048110E030E0F5
:100C400020E0E0CFCF92DF92FF920F931F93CF93DC
:100C5000DF930F92CDB7DEB78C011982DC011196BC
:100C60008C911197813091F48091780005DDA898DE
:100C7000CBDDF9DD80936E00882319F0EDDD109255
:100C8000610080916E0080937A0060C08233A9F485
:100C900080917800F1DCA898CFDD8AE790E090930E
:100CA00092008093910089810F90DF91CF911F91E5
:100CB0000F91FF90DF90CF900895833379F4C2981D
:100CC000F8019281909364002681378130937300FC
:100CD00020937200809379008FEF7AC1843379F486
:100CE000C29812968C9112978093640016968D91FB
:100CF0009C91909373008093720082E3EBCF8634D3
:100D000019F4A898ACD5C9CF893411F4ADD5C5CFA5
:100D10008A3411F4BBD5C1CF8C3461F48091630067
:100D200090E08E7FA1D5F8018281C2D5AFD5109217
:100D30007A000CC08B3461F480916300816090E094
:100D400093D580E0E1D580937A00A0D581E040C1C1
:100D5000AE014F5F5F4F66E3873441F0883449F45A
:100D600010926A00AE014F5F5F4F65E3C80131DF4B
:100D700094CF8D3449F412968C9187FD03C08093F3
:100D80006300D5CF81E07FCF8D3549F4F8018681AE
:100D9000978190937300809372008AE39BCF8C3588
:100DA00049F416968D919C919093730080937200F4
:100DB00089E390CF8E3541F418D691E0811101C0BE
:100DC00090E090937A00C2CF8F3511F41DD65BCF9F
:100DD0008A3591F5A898CCD5F80182813381248198
:100DE00095818093740030937500209376009093E2
:100DF000770066816F71C8D5D8011696FC9016975A
:100E0000F294F69447E0F4221696FC925AE7C52E27
:100E100050E0D52E10E0F11611F0143039F4B2D5AF
:100E20008F2D853008F4D4C084E0D2C0CAD5F60135
:100E300081936F011F5FEFCF823019F40DDDA99A06
:100E40002CCF833041F5E0916800F0916900129653
:100E50008C91099580937A00E0916800F091690087
:100E6000D80113968C91099580937B00E0916800DE
:100E7000F0916900D80114968C91099580937C00BB
:100E8000E0916800F0916900D80115968C91099560
:100E900080937D00C9CF853011F4E5DCF4CE62E0AB
:100EA000843009F4CFC063E0873009F4CBC08630CA
:100EB00059F5F80182819381092E000CAA0BBB0B16
:100EC0008093740090937500A0937600B0937700A0
:100ED0008581F0E18F9FC001112488279F70D80180
:100EE00014962C911497820F911D9093700080930B
:100EF0006F008093710016968D919C919093730072
:100F00008093720081E0E6CE8830D9F4F8018281C6
:100F10009381092E000CAA0BBB0B80937400909355
:100F20007500A0937600B093770010927000109235
:100F30006F0086819781909373008093720084E0A4
:100F4000C9CE8930E9F413962C91139712966C91BF
:100F5000129770E090E080E0CB0177276627922B14
:100F600014962C911497622B15962C91722B611567
:100F70007105B2E08B07910508F4D9CEACDCD7CE71
:100F80008A3069F4F801828180937800811103C06E
:100F900010926D00CCCE81E080936D00C8CE81317F
:100FA000C9F410927A008091780080937B00809140
:100FB000610080937C008091AF0080937D008091E0
:100FC000600080937E008091790080937F0086E0AE
:100FD000898363CE8B3089F412968D919C91909386
:100FE000B1008093B000C29ABA9A83E0D1DDC29872
:100FF000A89880E1CDDDAAD950CE8C3099F480EC50
:10100000AED980E0ACD98AE0C3DDC29A85E0C0DD0C
:10101000C29885E0BDDD87B3837D87BB88B3837DC0
:1010200088BB3BCE8D3011F4A7D92DCE8E3021F464
:10103000F801828194D97BCE65E08F3019F0803140
:1010400021F466E0C801ACDD47CE8F3709F025CE2C
:1010500083E180937A0081E880937B0010927C008A
:101060008FEC16CFAF92BF92CF92DF92EF92FF92AA
:101070000F931F93CF93DF93EC01809179009EEF44
:10108000980F923048F0853039F0833329F0893356
:1010900019F0863309F0DCC170E000917200109104
:1010A00073006017710708F48B01F02EA9988091E6
:1010B0007900853061F5A801BE018091740090919E
:1010C0007500AAD98091740090917500A091760066
:1010D000B0917700800F911FA11DB11D8093740006
:1010E00090937500A0937600B09377008091720082
:1010F00090917300801B910B90937300809372000A
:10110000892B11F410927900A99AA8989DC0833375
:1011100049F5EC2ECC2EDD2E8C2D8E198F15A8F0D6
:101120008091720090917300801B910B90937300DB
:1011300080937200892B41F780916400882311F31A
:10114000C29A24E02A95F1F7DDCFE0916800F09192
:10115000690080E00995F60181936F01F4E0FA954A
:10116000F1F7DACF863309F084C080916A008111EB
:1011700032C0E0906200D0906B0080916C008823B8
:1011800089F08091740090917500A0917600B091E3
:1011900077002FE0B695A795979587952A95D1F773
:1011A0008E70E82A61D38E2D83D3811159C0DD2042
:1011B00049F0809175007CD381E08D1518F4809101
:1011C000740076D351D38E2D816072D3811148C0C3
:1011D00081E080936A00D12CC12C5801F1E0AF1A54
:1011E000B1081DC081E0AC14BD0409F080E08CD3CF
:1011F00089938091740090917500A0917600B091D0
:1012000077000196A11DB11D809374009093750025
:10121000A0937600B0937700EFEFCE1ADE0ACF14DA
:1012200008F38091720090917300801B910B909352
:10123000730080937200892B39F428D310927900BF
:1012400010926C0010926A008F2DDF91CF911F9148
:101250000F91FF90EF90DF90CF90BF90AF900895E7
:1012600015D31092790010926C0010926A00F12C44
:10127000EBCF8933F1F4EC2ECC2EDD2E8C2D8E1994
:101280008F1578F08091720090917300801B910B04
:101290009093730080937200892B09F035CF72D33D
:1012A00031CF8FD3F60181936F01F4E0FA95F1F716
:1012B000E5CF823009F09AC080917400909175005A
:1012C000A0917600B09177000197A109B109800F34
:1012D000911FA11DB11DE12C0097A240B10508F49A
:1012E0005FC0EF1408F002CF609174007091750038
:1012F0008091760090917700EEDADF2CDE18409135
:101300007400509175006091760070917700DB0158
:10131000CA0188279927AE7F1296841B950BA60BCE
:10132000B70B8F3F9105A105B10509F018F48D1594
:1013300008F4D82E5E01AE0CB11CC12CDC1033C0F9
:10134000ED0CCFCFDF2CDE1880E48D1510F480E497
:10135000D82E5E01AE0CB11CC12C6091740070914E
:1013600075008091760090917700EDDAF501819318
:101370005F018091740090917500A0917600B0910A
:1013800077000196A11DB11D8093740090937500A4
:10139000A0937600B0937700C394DC10DECFED0C01
:1013A000EF1480F2A3CE609174007091750080916B
:1013B00076009091770088279927C5DAF501819307
:1013C0005F018091740090917500A0917600B091BA
:1013D00077000196A11DB11D809374009093750054
:1013E000A0937600B0937700C394A8CF833081F5A3
:1013F000EC2ECC2EDD2E8C2D8E198F1508F076CE8E
:101400008091740090917500A0917600B091770062
:101410008115E0E19E07A105B105C0F477DBF60177
:1014200081936F018091740090917500A091760076
:10143000B09177000196A11DB11D80937400909327
:101440007500A0937600B0937700D5CF8FEFE7CFEC
:10145000A99AFF24FA94F8CE0F931F93CF93DF93AA
:10146000EC018C01060F111DC017D10731F480E08B
:10147000DF91CF911F910F91089568E0899184D2F7
:10148000882391F381E0F4CF8F929F92AF92BF9225
:10149000DF92EF92FF920F931F93CF93DF932091F0
:1014A0007900222309F4A3C1213059F0322F3D7F66
:1014B000343039F0322F377F323319F0253309F0C9
:1014C00096C170E00091720010917300601771076F
:1014D00008F48B01D02FA998C0917900C630B9F5D6
:1014E000A801BC01809174009091750098D78091FB
:1014F000740090917500A0917600B0917700800FF4
:10150000911FA11DB11D8093740090937500A0934D
:101510007600B09377008091720090917300801BE9
:10152000910B9093730080937200892B41F1C0E07E
:10153000A99AA8988C2FDF91CF911F910F91FF90BE
:10154000EF90DF90BF90AF909F908F900895C2333F
:1015500011F5C82F7C018E2D8C1B8D1798F0809172
:10156000720090917300801B910B90937300809395
:101570007200892BE1F6809164008111C29A109269
:101580007900D5CFE0916800F0916900D7018D9185
:101590007D010995E0CFC53379F5C0917200D091F6
:1015A00073000C171D0708F4E801D82F8C01802F59
:1015B0008D1B8C1760F08091720090917300892BC5
:1015C00009F0B5CF63D110927900C1E0B1CFF80135
:1015D00081918F016DD1882329F058D11092790023
:1015E000CEEFA6CF809172009091730001979093F7
:1015F000730080937200DBCFCA33B1F4602F2CDF0D
:10160000C82F8111F6C08091720090917300801BE9
:10161000910B9093730080937200892B09F087CF10
:10162000B1D11092790084CFD82E7C01C13009F459
:101630006AC0C43009F0D9C040917400509175005F
:101640006091760070917700C82F7C01411551059B
:101650006140710508F4B7C010927900CCEF68CFF3
:10166000D7014D917D01609174007091750080915A
:1016700076009091770020916F0030917000232BBD
:1016800041F421E0A2D9882359F110927900CBEFDF
:101690004FCF20E09AD98111F8CF8091710081500D
:1016A0008093710081111CC060916F007091700077
:1016B00071956195710990E080E080907400909040
:1016C0007500A0907600B0907700682179218A217A
:1016D0009B21D5D98111D9CF80916F008093710062
:1016E0008091740090917500A0917600B091770080
:1016F0000196A11DB11D8093740090937500A09375
:101700007600B09377008E2D8D198D1708F4A8CF31
:101710008091720090917300801B910B90937300E5
:1017200080937200892B09F002CF1092790080918A
:101730006F0090917000009709F4FACE209171002B
:101740002817190609F4F4CE009174001091750061
:1017500020917600309177000115110521053105A2
:1017600009F495CF919581959109B0E0A0E00150E1
:10177000110921093109BC01CD01602371238223A4
:1017800093237DD9882309F4D3CE81CFF7016191CA
:101790007F018091740090917500D5D981115CCF43
:1017A0008091740090917500A0917600B0917700BF
:1017B0000196A11DB11D8093740090937500A093B4
:1017C0007600B09377008E2D8C1B8D17F8F28091E8
:1017D000720090917300801B910B90937300809323
:1017E0007200892B09F0A3CEEECECFEFA1CECFEFC2
:1017F000A1CECDEF9FCE12BA18BA88B38C7F88BB2A
:1018000087B3836087BB2FE93EE482E021503040FC
:101810008040E1F700C0000017BA93E094BBA298A3
:1018200085B38C6385BBA8982FE936EA84E0215004
:1018300030408040E1F700C00000A89AA9982FE945
:1018400036EA84E0215030408040E1F700C00000DB
:10185000A99AA89893BFF7D67894E4D5FECFBC9800
:10186000C49ABB98C39A0895BC98C49ABB98C39A6B
:1018700084E18A95F1F7BC9AC49884E18A95F1F7DE
:10188000BB9AC39884E18A95F1F70895BB9AC398EF
:10189000BC9AC49888E08A95F1F7BB98C39A88E00F
:1018A0008A95F1F7BC98C49A84E18A95F1F7089576
:1018B00098E0BB9AC39828E02A95F1F787FF21C0EA
:1018C000BC98C49A28E02A95F1F7BB98C39A24E102
:1018D0002A95F1F7880F915061F7BB9AC398BC988D
:1018E000C49A88E08A95F1F7BB98C39A24E12A95B7
:1018F000F1F786B3BB9AC39882958F7080958170FB
:101900000895BC9AC498DECF282FBC98C49A98E05A
:1019100080E0BB9AC39834E13A95F1F7BB98C39A3B
:1019200034E13A95F1F7880FB4998160915089F7C5
:10193000BB9AC39821110FC0BC9AC49898E09A959D
:10194000F1F7BB98C39A38E03A95F1F7BB9AC39880
:10195000BC98C49A0895BC98C49AF0CFC5980895CD
:1019600087B38C6287BBBC98F9DFC398C29808958F
:10197000C298C59823D7C29AC39A20D7C59A1ED7B2
:10198000C5981CC7C298EACFCF93DF93D82F615078
:10199000770BC1E001C0CC0F6A95EAF7C11104C012
:1019A00080E0DF91CF910895D9DF8C2F8D2339F01E
:1019B000C39A04D7C59A02D7D1DFC695EFCFC39893
:1019C000F8CFCF93DF93D8E0C0E0C8DFF7D6C59A51
:1019D00086B382958170CC0FC82BF0D6BFDFD15073
:1019E000A1F78C2FDF91CF910895CF93B9DFC29AE1
:1019F00088E28A95F1F7E2D6C6B3C4DFC295C1701A
:101A000081E08C27CF910895CF93AADFC29A88E214
:101A10008A95F1F768E080ECB7DFC0E09FDFCED6B3
:101A2000C59ACCD6B49906C0CA5F98DFABDF8C2FBD
:101A3000CF91089593DFCF5FC73081F7CFEFF6CF17
:041A4000F894FFCF48
:061A4400FF10A0FF0100ED
:00000001FF
