:1000000042C076C05BC05AC059C058C057C056C025
:1000100055C054C053C052C051C050C04FC04EC054
:100020004DC04CC04BC009021200010100A01909CB
:10003000040000000000000012011001FF00000891
:10004000C016DC050701010200010E035500530034
:1000500042006100730070001C0377007700770096
:100060002E00660069007300630068006C002E00BB
:1000700064006500040309040E0D0C0B0A0908074F
:1000800006050403020111241FBECFE5D4E0DEBF44
:10009000CDBF10E0A0E6B0E0E6EDFAE102C00590C9
:1000A0000D92A436B107D9F720E0A4E6B0E001C074
:1000B0001D92A03BB207E1F7C0DB0BCDA1CFA82F6B
:1000C000B92F80E090E041E050EA609530E009C04F
:1000D0002D9182279795879510F084279527305E7C
:1000E000C8F36F5FA8F30895EADF8D939D93089599
:1000F000CF93CFB7CF93C395B09BE9F7B09B09C01F
:10010000B09B07C0B09B05C0B09B03C0B09B01C0B3
:10011000A1C0DF93C0918C00DD27CC56DF4FB09B90
:1001200002C0DF91EBCF2F930F931F9306B32FEFF6
:1001300000FB20F94F933F9316B34FEF012700FBCD
:1001400021F93BE031C04E7F012F16B3216028C05A
:10015000102F4D7F2260000006B329C04B7F246022
:10016000012F000016B32BC016B3477F28602AC0AA
:100170004F7E06B320612CC04F7D16B320622FC086
:100180004F7B06B3206432C0422706B349934FEF3A
:100190000000102710FB20F916B31370C9F1297F56
:1001A00091F2012700FB21F906B3237F89F2315038
:1001B00058F1102710FB22F916B3277E79F2012798
:1001C00000FB23F92F7C81F206B3102710FB24F9E2
:1001D0002F7971F200C016B3012700FB25F92F73A8
:1001E00059F200C006B3102710FB26F9223040F266
:1001F00000C016B3012700FB27F9243028F64F77FB
:10020000206816B30000F9CF10E41ABF002717C00A
:100210003B503195C31BD04010E41ABF0881033C0A
:10022000E9F00B34D9F020918A001981110F1213D3
:10023000EDCF093641F10D3211F0013E39F700934F
:1002400092003F914F911F910F912F91DF91CAB76B
:10025000C6FD51CFCF91CFBFCF911895209192007D
:10026000222379F310919000112311F5343012F10B
:100270003093900020938B0010918C003BE0311B59
:1002800030938C0017C00091900001308CF40AE587
:1002900030918D0034FD10C000938D00CFE7D0E089
:1002A0000FC02795A8F45150A9F4220F0000F9CFF0
:1002B0004AE503C042ED01C0432FC4E1D0E032E083
:1002C00017B31360C09A17BB08B320E413E05F9321
:1002D000012756E008BB279520F4515021F4220F46
:1002E000F9CF012756E000003B5A08BBD0F2279512
:1002F00028F4515029F4220F0000F9CF012756E0CD
:10030000279508BB20F4515021F4220FF9CF012783
:1003100056E02991332308BB21F60C7F1091910000
:10032000110FC651D04008BB11F010938A0010E4A1
:100330001ABF016017B31C7F402F4C7F5F9100C034
:1003400000C008BB17BB48BB7CCFC598BD9ABB9803
:10035000C39A50E22AD05A95E9F7089527D028E0A9
:100360003327382780FB869522D02A95D1F730FB9A
:100370001ED01BD01AC020EC18D046F42A95E1F705
:1003800080E02AE113D02A95E9F70FC028E033274F
:1003900088270BD0869587F938272A95D1F705D07D
:1003A00027F932277AF301D000C06894E89416F454
:1003B000C39A01C0C39806D0C59AE6B3E3FB02D046
:1003C000C5980895E091AE00F091AF003197F0F735
:1003D000089518D084E2C2DFCEDF8D934A95D1F71D
:1003E000089510D083EFBADF8DE1B8DF84E6B6DF81
:1003F0008D91B4DF82E7B2DFBEDF8078D9F74A950E
:1004000089F70895AC0188E6A9DF842FA7DF89E684
:10041000A5DF852FA3CFBA01A901DBCFBA01A901BE
:10042000E0CFCF93DF9360919000635067FD90C061
:1004300080918C00CCE0D0E0C81BD109CC56DF4FB6
:1004400080918B008D3209F0BFC0683009F07EC00A
:1004500083EC80937F008AE580938D001092640086
:100460008881807671F0CE01E7D38F3F09F466C0B2
:100470009F81911169C09E81981708F065C0892FEE
:1004800063C02A8110928800998191110AC010924C
:10049000890028E830E082E030938F0020938E00BE
:1004A000E7CF953029F42093910028E830E0F4CF8D
:1004B000963099F59B81913059F488E390E09093C0
:1004C0008F0080938E0082E190E490936400D0CFFF
:1004D000923019F486E290E0F2CF9330A9F721111F
:1004E00008C084E790E090938F0080938E0084E0B2
:1004F000EBCF213041F488E590E090938F0080931A
:100500008E008CE1E1CF2230F9F68AE490E09093FE
:100510008F0080938E008EE0D7CF983059F09930BD
:1005200019F420939300C1CF81E09A3009F4BDCF34
:1005300080E0BBCF23E930E081E0AECF988197FD2A
:100540008E8190E8909364008093650010929000F3
:1005500080918D0084FF2BC0C0916500CF3F39F1A1
:100560006C2FC93008F068E08C2F861B80936500E3
:1005700080917F0098E8892780937F00CC2359F0F1
:100580002091640027FF32C080E890E095D5C82F05
:10059000893008F052C06C2F80E890E0A5DDCC5F78
:1005A000CC3019F08FEF80936500C0938D0084E10B
:1005B00096B3937031F48150D9F710929100109254
:1005C0008A00DF91CF9108958091640087FFBECFAC
:1005D000CE01D5D68F3F21F48EE180938D00B6CF2A
:1005E000882309F4B3CF10926500B0CF80918E00BC
:1005F00090918F0026FF17C0FC01A0E8B0E0262FE5
:10060000280F34913D9331962E13FBCF2FEF260FF9
:1006100030E02F5F3F4F820F931F90938F008093A6
:100620008E00C62FB8CFA0E8B0E0FC01262F280F1F
:1006300031913D932E13FCCFE9CF8FEF809365006E
:10064000CEE1B3CF8AE580938D008FEF8093650074
:1006500085B7826085BF8BB780648BBF08958FB9E3
:10066000779BFECF8FB10895DC01CB0121E1B695D8
:10067000A795979587952A95D1F72091AC002817D3
:10068000D9F08093AC00E0916600F09167008DE4B2
:100690000995E0916600F091670080E00995E0918E
:1006A0006600F09167008091AC000995E0916600CA
:1006B000F091670080E0099408958091AB008DB9B6
:1006C0008091AA008EB908958823B1F0883078F11E
:1006D0002FE233E030936700209366001092AA0067
:1006E00091E09093AD008B30D1F040F48930D9F097
:1006F000C0F48830D1F008958CE0EACF8D3049F015
:1007000060F08E3059F580E58093AB009093AA009D
:10071000089580E58093AB00089581E5F5CF81E5EC
:10072000F9CF82E5F1CF82E5F5CF83E5F3CF2FEB6B
:1007300033E03093670020936600843091F030F40A
:10074000823099F0833079F080EC06C0863021F059
:1007500030F08730C9F783E08093AD0008958CE0D6
:10076000FBCF88E1F9CF80E3F7CF80E6F5CF22B762
:100770009091AD0082B7821B8917E0F308951F9313
:10078000CF93DF93182FC598D8E0C0E017FF13C0B0
:10079000C39A110FECDFC59AEADF86B382958170A8
:1007A000CC0FC82BC598E3DFD15081F78C2FDF9198
:1007B000CF911F910895C398ECCF87B38C6287BB0C
:1007C000BC98C298C59881E0EBD1C29A81E0E8D18B
:1007D000C29880916600909167008F52934009F40F
:1007E0006CDF8FEF8093AC00089587B38C6287BB7A
:1007F00080916600909167008F52934009F45DDF0D
:100800008FEF8093AC00C29A089587B3837D87BB36
:1008100088B3837D88BB109275000895EF92FF9294
:100820000F931F93CF93DF93809175008823C9F1B5
:100830004BDFC3E080917500863068F1883070F13D
:1008400081E0DFE3C29AACD1C2988D2FA9D1E091AB
:100850006600F09167008CEA0995E0916600F091DE
:10086000670083E50995E0916600F091670080E0FC
:100870000995D82FE0916600F091670080E0099516
:10088000D33519F4882309F448C08FE089D1C150C9
:1008900089F681E042C08FE0DAEFD4CF88E0DDE76F
:1008A000D1CFC8E7D0E0EC2E8EE0E80EFE01149127
:1008B000812F0ADF03E09AEFF92E8FE0163040F027
:1008C0002FE3F22E81E0183018F48DE7F82E88E03F
:1008D000C29A66D1C2988F2D63D1E0916600F091E3
:1008E00067008CEA0995E0916600F091670083E566
:1008F0000995E0916600F091670080E00995F82E77
:10090000E0916600F091670080E00995F3E5FF1241
:100910000BC0811109C010937500DF91CF911F9119
:100920000F91FF90EF9008958FE03AD1015019F6A2
:100930002196EC12BBCF1092750080E0C5DEA9CFE6
:10094000CF92DF92EF92FF926B017C01DC01CB0131
:1009500012970097A640B10510F4C70185DE8C2DD3
:10096000880F880F880F8870E0916600F09167000B
:1009700080620995D701C60129E0B695A79597959C
:1009800087952A95D1F7E0916600F0916700099567
:10099000D701C601B695A79597958795E091660012
:1009A000F09167000995E0916600F091670080E0A2
:1009B000FF90EF90DF90CF900994CF92DF92EF926B
:1009C000FF92CF93DF936B017C01D42FC22FDC0108
:1009D000CB0112970097A640B10510F4C70144DE81
:1009E0008C2D880F880F880F8870E0916600F09139
:1009F000670080640995E0916600F0916700D70177
:100A0000C60129E0B695A795979587952A95D1F7C0
:100A10000995E0916600F0916700D701C601B6958F
:100A2000A795979587950995E0916600F0916700E5
:100A30008D2F0995C11108C080E0DF91CF91FF9003
:100A4000EF90DF90CF900895DF3F61F0CEE181E03D
:100A5000A7D0C701B60174DF8D1771F3C15041F4FF
:100A600081E0EBCFC701B6016BDF8F3F79F7E4CFB1
:100A7000C53168F784E0CB3058F382E0E9CFCF92FC
:100A8000DF92EF92FF92CF936B017C01DC01CB01EF
:100A900012970097A640B10510F4C701E5DDE0917B
:100AA0006600F09167008CE40995E0916600F09192
:100AB0006700D701C60129E0B695A7959795879558
:100AC0002A95D1F70995E0916600F0916700D7016A
:100AD000C601B695A795979587950995E09166000B
:100AE000F091670080E00995C9E181E059D0C70124
:100AF000B60126DF8F3F81F4C15039F481E0CF91F8
:100B0000FF90EF90DF90CF900895C03170F784E0B0
:100B1000C63060F382E0EACF80E0F1CFCF93DF937D
:100B2000EC01E0916600F091670080EA0995E091A0
:100B30006600F09167008D2F0995E0916600F091B5
:100B400067008C2F0995E0916600F091670080E0C6
:100B5000DF91CF9109941F93CF93DF93D82F192F53
:100B6000C62FE0916600F091670080EC0995E09156
:100B70006600F0916700812F0995E0916600F09181
:100B800067008D2F0995E0916600F09167008C2F2A
:100B900009958BE005D080E0DF91CF911F910895FA
:100BA00022B792B7921B9C33E0F38150C9F70895A6
:100BB000262FFC0142815381052E000C660B770B1A
:100BC00040937000509371006093720070937300B3
:100BD0008681978190936F0080936E0020937600BA
:100BE00008950F931F93522F2091740021110FC06D
:100BF000FC0102811381012E000C220B330B0093A8
:100C00007000109371002093720030937300242FB2
:100C100030E030936B0020936A0050FD40936D00EC
:100C2000FC018681978190936F0080936E006093A2
:100C300076001F910F910895CF92DF92EF92FF926D
:100C40000F931F93CF938C01DC011196CC911197D8
:100C5000C13089F48091750037DD10927400A89836
:100C6000ACDDDCDD8093770087E790E090938F0028
:100C700080938E0081C0C23339F48091750024DDE9
:100C8000A898B3DDC0E0F0CFC33379F4C298FC017B
:100C90008281809362008681978190936F00809318
:100CA0006E00C0937600CFEFDFCFC43389F4C298D3
:100CB00012968C9112978093620016968D919C915A
:100CC00090936F0080936E0082E380937600EBCF69
:100CD000C63419F4A898E5D5D5CFC73411F4E6D5B4
:100CE000D1CFC83411F4F4D5CDCFCA3439F4FC01D6
:100CF000828100D680937700C1E0B6CFCB3421F457
:100D000012968C9123D6F6CFCC3409F06FC0FC013B
:100D1000838191E0811101C090E090936900D80136
:100D200012969C91129790936100882309F458C001
:100D3000823059F51496CD90DC900D2C000CEE0805
:100D4000FF08C0927000D0927100E0927200F092A1
:100D50007300ACD5C0916100C114D104F1E0EF067D
:100D6000F10408F0CE608C2FC5D58823C9F0B0D52A
:100D70008EEF80937700C1E08C2FCF911F910F9160
:100D8000FF90EF90DF90CF900895C12CD12C760189
:100D90008130B9F6F801C480D12CF12CE12CD1CFEF
:100DA000C114D10481E0E806F10418F08D2DA2D51C
:100DB00007C0AFEFCA16D104E104F10409F0B0F79F
:100DC0008C2D98D573D58C2F816094D5D80116962B
:100DD0008D919C9190936F0080936E0086E375CF08
:100DE00065D561E0F8018281DBD5F0CFCD34E1F546
:100DF000FC01938181E0911101C080E08093690042
:100E0000D80112968C9112978093610014968C9160
:100E1000149780936000992381F09230D9F415964D
:100E20009C91092E000CAA0BBB0B80937000909331
:100E30007100A0937200B0937300F80186819781CE
:100E400090936F0080936E0085E3809376001092FC
:100E5000680029CF913021F490E0B0E0A0E0E5CF28
:100E600080E090E0DC01E1CFCD3571F414968C91F7
:100E7000149780936C0016968D919C9190936F00BF
:100E800080936E008AE321CFCC3561F4FC0184812C
:100E900080936C008681978190936F0080936E00A1
:100EA00089E313CFCE3541F4C7D5C82F813009F07F
:100EB000AEC080937700D8CECF3511F4CCD51ACF01
:100EC000CA3509F040C0A8987AD5D80112968C91FD
:100ED000129713963C91139714962C91149715968C
:100EE0009C9115978093700030937100209372004D
:100EF0009093730016966C916F716DD5F801868191
:100F00008295869587708683882391F081D580931A
:100F10007700D80116968C91823018F079D580939D
:100F20007800F8018681833018F072D580937900BB
:100F3000D80116968C91843018F06AD580937A0087
:100F400048D5C4E091CEC23019F45FDCA99A9ACE9C
:100F5000C33041F5E0916600F091670012968C91E4
:100F6000099580937700E0916600F0916700D801C1
:100F700013968C91099580937800E0916600F0912A
:100F80006700D80114968C91099580937900E091BF
:100F90006600F0916700D80115968C9109958093B1
:100FA0007A00CFCF62E0C43009F476C063E0C73086
:100FB00009F472C0C53011F431DC9CCEC63041F466
:100FC000FC0125812F70448161E0C8010ADE6BCEEF
:100FD000C83021F420E040E064E0F7CFC93089F464
:100FE00081E080937400F80182819381A481B581AE
:100FF0008093700090937100A0937200B09373007F
:1010000041CECA3039F412968C91809375001092BB
:10101000770072CEC43141F4109277008091750050
:1010200080937800C2E020CECB3089F4FC0182812D
:1010300093819093AF008093AE00C29ABA9A83E0F6
:10104000AFDDC298A89880E1ABDD7FD91BCECC3054
:1010500099F480EC83D980E081D98AE0A1DDC29A3D
:1010600085E09EDDC29885E09BDD87B3837D87BBED
:1010700088B3837D88BB06CECD3011F47CD93ACEBF
:10108000CE3021F412968C9169D9C1CF65E0CF3072
:1010900019F0C03121F466E0C8018ADD04CECF37F3
:1010A00009F0F0CD89E18093770081E880937800A2
:1010B000109279008FE073CFAF92BF92CF92DF9200
:1010C000EF92FF920F931F93CF93DF93EC018091E8
:1010D00076009EEF980F923048F0853039F08333D8
:1010E00029F0893319F0863309F045C170E0009189
:1010F0006E0010916F006017710708F48B01F02EDD
:10110000A99880917600853059F5A801BE0180919B
:101110007000909171007FD9809170009091710062
:10112000A0917200B0917300800F911FA11DB11D9D
:101130008093700090937100A0937200B09373003D
:1011400080916E0090916F00801B910B90936F00C7
:1011500080936E00892B09F05FC0109276005CC00E
:10116000833351F5EC2ECC2EDD2E8C2D8E198F1560
:10117000B0F080916E0090916F00801B910B909366
:101180006F0080936E00892B09F046C08091620049
:10119000882319F3C29A24E02A95F1F7DECFE09173
:1011A0006600F091670080E00995F60181936F0178
:1011B000F4E0FA95F1F7D9CF863309F059C0809160
:1011C0006900D12CC12C5801811110C081E0A81AEE
:1011D000B108CF1480F481E0AC14BD0409F080E0C4
:1011E000B5D389932FEFC21AD20AF3CFE1E0AE1A3A
:1011F000B108CF14F8F080916E0090916F00801BC1
:10120000910B90936F0080936E00892B29F460D32B
:101210001092760010926900A99AA8988F2DDF91FC
:10122000CF911F910F91FF90EF90DF90CF90BF90E3
:10123000AF90089581E0AC14BD0409F080E086D33E
:1012400089938091700090917100A0917200B0918B
:1012500073000196A11DB11D8093700090937100E1
:10126000A0937200B0937300FFEFCF1ADF0AC1CFD3
:101270008933F1F4EC2ECC2EDD2E8C2D8E198F15AA
:1012800078F080916E0090916F00801B910B90938D
:101290006F0080936E00892B09F0BECF9AD35DCF8B
:1012A000B7D3F60181936F01F4E0FA95F1F7E5CF3A
:1012B0009EEF980F923008F05EC0D12CC12CEE2426
:1012C000EA94823009F051C0EC2ECC2EDD2E8C2D0C
:1012D0008E198F1508F034CF6091700070917100F5
:1012E00080917200909173002BDBF60181936F0166
:1012F0008091700090917100A0917200B091730084
:101300000196A11DB11D8093700090937100A09370
:101310007200B0937300DBCF8091700090917100E8
:10132000A0917200B09173005E01AC0CBD1C0097DF
:10133000F1E0AF07B105E0F4F1DBF50180838091C6
:10134000700090917100A0917200B09173000196AD
:10135000A11DB11D8093700090937100A093720045
:10136000B0937300FFEFCF1ADF0ACF14A8F2E8CED4
:10137000F501E082E4CFA99AFF24FA944FCF7F923F
:101380008F929F92AF92BF92CF92DF92EF92FF9295
:101390000F931F93CF93DF938C018091760081117F
:1013A00012C0CFEFA99AA8988C2FDF91CF911F91EF
:1013B0000F91FF90EF90DF90CF90BF90AF909F90F4
:1013C0008F907F900895813051F0982F9D7F9430B9
:1013D00031F0982F977F923311F0853311F7A99848
:1013E000C0906E00D0906F00E62EF12CCE14DF047A
:1013F00008F47601CE2D80917600863049F5A7015C
:10140000B801809170009091710008D880917000AF
:1014100090917100A0917200B09173008E0D9F1D8C
:10142000A11DB11D8093700090937100A093720074
:10143000B093730080916E0090916F008E199F0998
:1014400090936F0080936E00892BD1F0C0E0AACFFB
:10145000823311F5D02F68018C2D8D1B8C1798F0DD
:1014600080916E0090916F008E199F0990936F008C
:1014700080936E00892B51F7809162008111C29A8E
:1014800010927600D9C0E0916600F0916700D60115
:101490008D916D010995E0CF853309F0E0C0809111
:1014A000690081111AC0D02F68018C2D8D1B8C17FB
:1014B00008F4C4C080916E0090916F008E199F094E
:1014C00090936F0080936E00892B09F0BFCF8091BD
:1014D00060008130A9F6FCD1D3CF6091700070918B
:1014E00071008091720090917300D0E461157105D4
:1014F000B1E08B07910508F0D0E88D2E912CB12C2E
:10150000A12CA5019401C3D2D61BDC1708F4CD2F62
:10151000CC151D0411F008F0CC2D809168008111CC
:1015200036C0C4D18091610040917000509171002B
:10153000609172007091730041155105E1E06E07F2
:10154000710548F09FE076956795579547959A9570
:10155000D1F74E70842BCED1811179C0809170006B
:1015600090917100A0917200B09173000097F1E02A
:10157000AF07B10578F0892FBDD1811168C0809186
:101580007000B8D1811163C081E080936800D02FD2
:10159000780120C08F3F9105A105B10591F388F333
:1015A000EACFD7018D917D01A5D1811150C08091E5
:1015B000700090917100A0917200B091730001963B
:1015C000A11DB11D8093700090937100A0937200D3
:1015D000B09373008E2D8D1B8C1718F380916E00C5
:1015E00090916F008C1B910990936F0080936E0017
:1015F000892B81F060917000709171008091720070
:1016000090917300A501940142D2672B682B692B3E
:1016100009F0C8CE5DD1E7E9FAE33197F1F700C0F0
:10162000000080916E0090916F00892B09F0BACE76
:101630001092760010926900C1E0B4CED6018D916F
:101640006D0158D1882309F430CFCEEFABCE40D115
:10165000109276001092690010926800F6CF8A33DB
:1016600059F5D12CC12C17C0D0916C00DD2381F02D
:10167000D93008F0D8E06D2FF801EC0DFD1D808108
:10168000AAD18111D8C080916C008D1B80936C0011
:10169000BFEFCB1ADB0ACC1638F380916E00909125
:1016A0006F008E199F0990936F0080936E00892BB5
:1016B00009F0CCCE8ED1E4CE813089F0843009F0AF
:1016C00070CE8091700090917100A0917200B091E5
:1016D00073000097A140B10510F0CCEF63CE80916C
:1016E0006A0090916B00812C912C5401009791F02D
:1016F00088249924881A990AB12CA12C4091700051
:101700005091710060917200709173008422952253
:10171000A622B722D1E0892B09F0D0E0702E680113
:101720008C2D87198C17B0F180916E0090916F000D
:101730008E199F0990936F0080936E00892B09F09A
:1017400085CE80916A0090916B00009709F498CE45
:1017500020916D002817190609F492CE00917000AF
:1017600010917100209172003091730001501109A5
:1017700021093109919581959109B0E0A0E0BC0162
:10178000CD01602371238223932379D9882309F41F
:1017900077CE31C0D6014D916D018091700090914E
:1017A0007100A0917200B0917300209176002130F9
:1017B00069F42D2FBC01CD0100D9882351F080910F
:1017C0007600813009F089CFCBEFECCD642FC3D9FF
:1017D000F4CF80916A0090916B00892BC1F08091C9
:1017E0006D00815080936D00811111C0C501B4015D
:1017F00046D9882311F0CAEFD5CD80916A00909127
:101800006B00880E991EA11CB11C80936D00809105
:10181000700090917100A0917200B09173000196D8
:10182000A11DB11D8093700090937100A093720070
:10183000B093730075CFCDEFB5CD12BA18BA88B397
:101840008C7F88BB87B3836087BB2FEF37E582E04F
:10185000215030408040E1F700C0000017BA93E00B
:1018600094BBA29885B38C6385BBA8982FEF3FEA01
:1018700084E0215030408040E1F700C00000A89A89
:10188000A9982FEF3FEA84E0215030408040E1F7F3
:1018900000C00000A99AA89893BFD4D67894C1D567
:1018A000FECFBC98C49ABB98C39A0895BC98C49ABA
:1018B000BB98C39A84E18A95F1F7BC9AC49884E1F5
:1018C0008A95F1F7BB9AC39884E18A95F1F7089558
:1018D000BB9AC398BC9AC49888E08A95F1F7BB98E4
:1018E000C39A88E08A95F1F7BC98C49A84E18A95F6
:1018F000F1F7089598E0BB9AC39828E02A95F1F78C
:1019000087FF21C0BC98C49A28E02A95F1F7BB98BC
:10191000C39A24E12A95F1F7880F915061F7BB9A99
:10192000C398BC98C49A88E08A95F1F7BB98C39A8B
:1019300024E12A95F1F786B3BB9AC39882958F70FC
:10194000809581700895BC9AC498DECF282FBC98EA
:10195000C49A98E080E0BB9AC39834E13A95F1F7D5
:10196000BB98C39A34E13A95F1F7880FB499816036
:10197000915089F7BB9AC39821110FC0BC9AC498A3
:1019800098E09A95F1F7BB98C39A38E03A95F1F749
:10199000BB9AC398BC98C49A0895BC98C49AF0CFD7
:1019A000880F613009F48160A5CFC598089587B389
:1019B0008C6287BBBC98F9DFC398C2980895C2981F
:1019C000C598D5D6C29AC39AD2D6C59AD0D6C5984C
:1019D000CEC6C298EACFCF93DF93D82F6150770B52
:1019E000C1E001C0CC0F6A95EAF7C11104C080E0E4
:1019F000DF91CF910895D9DF8C2F8D2339F0C39AD1
:101A0000B6D6C59AB4D6D1DFC695EFCFC398F8CF76
:101A1000CF93DF93D8E0C0E0C8DFA9D6C59A86B3DC
:101A200082958170CC0FC82BA2D6BFDFD150A1F711
:101A30008C2FDF91CF910895CF93B9DFC29A88E2BE
:101A40008A95F1F794D6C6B3C4DFC295C17081E020
:101A50008C27CF910895CF93AADFC29A88E28A9506
:101A6000F1F768E080ECB7DFC0E09FDF80D6C59A71
:101A70007ED6B49906C0CA5F98DFABDF8C2FCF91BA
:101A8000089593DFCF5FC73081F7CFEFF6CFA1E2A4
:101A90001A2EAA1BBB1BFD010DC0AA1FBB1FEE1FE8
:101AA000FF1FA217B307E407F50720F0A21BB30B33
:101AB000E40BF50B661F771F881F991F1A9469F7AF
:101AC00060957095809590959B01AC01BD01CF010B
:061AD0000895F894FFCF19
:041AD60001A001006A
:00000001FF
