:1000000042C0E2C05BC05AC059C058C057C056C0B9
:1000100055C054C053C052C051C050C04FC04EC054
:100020004DC04CC04BC009021200010100A01909CB
:10003000040000000000000012011001FF00000891
:10004000C016DC050701010200010E035500530034
:1000500042006100730070001C0377007700770096
:100060002E00660069007300630068006C002E00BB
:1000700064006500040309040D0C0B0A0908070657
:1000800005040302010011241FBECFE5D4E0DEBF4A
:10009000CDBF10E0A0E6B0E0E2EFF9E102C00590CC
:1000A0000D92A436B107D9F720E0A4E6B0E001C074
:1000B0001D92A23BB207E1F770DB99CCA1CFC598A6
:1000C000BD9ABB98C39A50E22AD05A95E9F7089591
:1000D00027D028E03327382780FB869522D02A9521
:1000E000D1F730FB1ED01BD01AC020EC18D046F43C
:1000F0002A95E1F780E02AE113D02A95E9F70FC0AD
:1001000028E0332788270BD0869587F938272A954A
:10011000D1F705D027F932277AF301D000C06894CF
:10012000E89416F4C39A01C0C39806D0C59AE6B302
:10013000E3FB02D0C5980895E0918400F09185001A
:100140003197F0F7089518D084E2C2DFCEDF8D93A7
:100150004A95D1F7089510D083EFBADF8DE1B8DF6B
:1001600084E6B6DF8D91B4DF82E7B2DFBEDF807850
:10017000D9F74A9589F70895AC0188E6A9DF842F5D
:10018000A7DF89E6A5DF852FA3CFBA01A901DBCFC1
:10019000BA01A901E0CFA82FB92F80E090E041E09B
:1001A00050EA609530E009C02D9182279795879598
:1001B00010F084279527305EC8F36F5FA8F3089589
:1001C000EADF8D939D930895CF93CFB7CF93C395D7
:1001D000B09BE9F7B09B09C0B09B07C0B09B05C0BE
:1001E000B09B03C0B09B01C0A1C0DF93C09193003E
:1001F000DD27C556DF4FB09B02C0DF91EBCF2F93B9
:100200000F931F9306B32FEF00FB20F94F933F93FB
:1002100016B34FEF012700FB21F93BE031C04E7FC1
:10022000012F16B3216028C0102F4D7F22600000DF
:1002300006B329C04B7F2460012F000016B32BC0EA
:1002400016B3477F28602AC04F7E06B320612CC0BA
:100250004F7D16B320622FC04F7B06B3206432C09F
:10026000422706B349934FEF0000102710FB20F9F7
:1002700016B31370C9F1297F91F2012700FB21F910
:1002800006B3237F89F2315058F1102710FB22F971
:1002900016B3277E79F2012700FB23F92F7C81F228
:1002A00006B3102710FB24F92F7971F200C016B3A2
:1002B000012700FB25F92F7359F200C006B3102760
:1002C00010FB26F9223040F200C016B3012700FBD4
:1002D00027F9243028F64F77206816B30000F9CFAD
:1002E00010E41ABF002717C03B503195C31BD04004
:1002F00010E41ABF0881033CE9F00B34D9F02091D7
:1003000091001981110F1213EDCF093641F10D3211
:1003100011F0013E39F7009399003F914F911F91E1
:100320000F912F91DF91CAB7C6FD51CFCF91CFBFAB
:10033000CF91189520919900222379F3109197007D
:10034000112311F5343012F130939700209392006D
:10035000109193003BE0311B3093930017C0009144
:10036000970001308CF40AE53091940034FD10C000
:1003700000939400C6E8D0E00FC02795A8F4515030
:10038000A9F4220F0000F9CF4AE503C042ED01C0F5
:10039000432FC4E1D0E032E017B31360C09A17BB1B
:1003A00008B320E413E05F93012756E008BB2795CC
:1003B00020F4515021F4220FF9CF012756E000001C
:1003C0003B5A08BBD0F2279528F4515029F4220F4C
:1003D0000000F9CF012756E0279508BB20F45150C3
:1003E00021F4220FF9CF012756E02991332308BBCE
:1003F00021F60C7F10919800110FC651D04008BB18
:1004000011F01093910010E41ABF016017B31C7F24
:10041000402F4C7F5F9100C000C008BB17BB48BB9A
:100420007CCFCF93DF9360919700635067FD90C0BE
:1004300080919300CCE0D0E0C81BD109C556DF4FB6
:10044000809192008D3209F0BFC0683009F07EC003
:1004500083EC809386008AE5809394001092640078
:100460008881807671F0CE0197D38F3F09F466C002
:100470009F81911169C09E81981708F065C0892FEE
:1004800063C02A8110928F00998191110AC0109245
:1004900090002FE830E082E03093960020939500A2
:1004A000E7CF953029F4209398002FE830E0F4CF7F
:1004B000963099F59B81913059F488E390E09093C0
:1004C00096008093950082E190E490936400D0CFF1
:1004D000923019F486E290E0F2CF9330A9F721111F
:1004E00008C084E790E0909396008093950084E0A4
:1004F000EBCF213041F488E590E090939600809313
:1005000095008CE1E1CF2230F9F68AE490E09093F7
:100510009600809395008EE0D7CF983059F09930AF
:1005200019F420939A00C1CF81E09A3009F4BDCF2D
:1005300080E0BBCF2AE930E081E0AECF988197FD23
:100540008E8190E8909364008093650010929700EC
:100550008091940084FF2BC0C0916500CF3F39F19A
:100560006C2FC93008F068E08C2F861B80936500E3
:100570008091860098E8892780938600CC2359F0E3
:100580002091640027FF32C087E890E04FD5C82F44
:10059000893008F052C06C2F87E890E011DECC5F04
:1005A000CC3019F08FEF80936500C093940084E104
:1005B00096B3937031F48150D9F71092980010924D
:1005C0009100DF91CF9108958091640087FFBECFA5
:1005D000CE01E8D68F3F21F48EE180939400B6CF10
:1005E000882309F4B3CF10926500B0CF80919500B5
:1005F0009091960026FF17C0FC01A7E8B0E0262FD7
:10060000280F34913D9331962E13FBCF2FEF260FF9
:1006100030E02F5F3F4F820F931F9093960080939F
:100620009500C62FB8CFA7E8B0E0FC01262F280F11
:1006300031913D932E13FCCFE9CF8FEF809365006E
:10064000CEE1B3CF8AE5809394008FEF809365006D
:1006500085B7826085BF8BB780648BBF08958FB9E3
:10066000779BFECF8FB10895809167008DB98091FF
:1006700066008EB9089581111AC0809161008111C0
:1006800016C08DE0809379002FE233E030936A004A
:10069000209369001092660091E0909368008A3080
:1006A00051F1C0F4883059F1893039F1DDCF8093B0
:1006B0007900883048F728ED33E030936A002093C2
:1006C0006900843049F1E8F4823051F1833031F12E
:1006D00080EC1DC08C3039F060F08D3039F780E54A
:1006E00080936700E3CF81E5809367009093660075
:1006F000DDCF81E5F5CF82E5F7CF82E5F1CF83E568
:10070000EFCF863021F030F0873011F783E080930F
:10071000680008958CE0FBCF88E1F9CF80E3F7CF44
:1007200080E6F5CF0F931F93CF93DF93C82FA3DFFE
:1007300011E0DFE3C83010F41FE0DAEFC3E0C29A43
:10074000812F09D2C2988D2F06D2E0916900F091D5
:100750006A008CEA0995E0916900F0916A0083E5EE
:100760000995E0916900F0916A0080E00995082FF1
:10077000E0916900F0916A0080E00995033511F479
:10078000882349F087E99AE30197F1F700C0000058
:10079000C150A9F681E0DF91CF911F910F9108958B
:1007A00022B79091680082B7821B8917E0F3089501
:1007B0001F93CF93DF93182FC598D8E0C0E017FFA1
:1007C00013C0C39A110FECDFC59AEADF86B3829596
:1007D0008170CC0FC82BC598E3DFD15081F78C2FE7
:1007E000DF91CF911F910895C398ECCF87B38C62AE
:1007F00087BBBC98C298C59881E0ADD1C29A81E010
:10080000AAD1C2988091690090916A008F5293405A
:1008100009F42ADF8FEF80936000089587B38C621C
:1008200087BB8091690090916A008F52934009F4D0
:100830001BDF8FEF80936000C29A089587B3837D9A
:1008400087BB88B3837D88BB0895FF920F931F9366
:10085000CF93DF93E8E7F0E0C49180916B008823A9
:1008600071F0C09179008C2F5DDF811116C0C093AB
:100870006100DF91CF911F910F91FF9008958091BA
:100880006100882351F04EDF811105C09091610015
:1008900090937900EECF1092610008E710E08DE0B0
:1008A000F82EF00EF801D491CD1748F08D2F3ADFD5
:1008B000811105C0D0937900D0936100DACF0F5F2A
:1008C0001F4FF012EFCF81E0D4CF0F931F9361152C
:1008D000710522E08207910580F18B019C0141E1C5
:1008E00036952795179507954A95D1F7202F309182
:1008F0006000321721F1209360006115710582407C
:100900009105E8F0E0916900F0916A008DE40995A5
:10091000E0916900F0916A0080E00995E09169003A
:10092000F0916A00809160000995E0916900F09172
:100930006A0080E01F910F91099420E0D8CF1F91A9
:100940000F910895CF92DF92EF92FF926B017C019D
:10095000862F880F880F880F8870E0916900F091CA
:100960006A0080620995D701C60129E0B695A7956E
:10097000979587952A95D1F7E0916900F0916A00E3
:100980000995D701C601B695A79597958795E091EA
:100990006900F0916A000995E0916900F0916A00A0
:1009A00080E0FF90EF90DF90CF900994CF92DF929C
:1009B000EF92FF92CF93DF936B017C01D42FC22F74
:1009C00084DF8C2D880F880F880F8870E091690074
:1009D000F0916A0080640995D701C60129E0B695B7
:1009E000A795979587952A95D1F7E0916900F091A1
:1009F0006A000995D701C601B695A7959795879581
:100A0000E0916900F0916A000995E0916900F09128
:100A10006A008D2F0995C11108C080E0DF91CF9148
:100A2000FF90EF90DF90CF900895C701B6018ADF65
:100A3000C0E18D1791F381E08ED0C701B60182DF4E
:100A40008D1759F3C15011F481E0E8CFCB3098F7FE
:100A500084E0C83088F382E0EFCFCF92DF92EF924C
:100A6000FF926B017C0131DFE0916900F0916A0037
:100A70008CE40995D701C60129E0B695A79597950D
:100A800087952A95D1F7E0916900F0916A00099560
:100A9000D701C601B695A79597958795E09169000E
:100AA000F0916A000995E0916900F0916A0080E098
:100AB00009958FE496E40197F1F700C0000080E00B
:100AC000FF90EF90DF90CF900895CF93DF93EC01EC
:100AD000E0916900F0916A0080EA0995E09169006F
:100AE000F0916A008D2F0995E0916900F0916A00FC
:100AF0008C2F0995E0916900F0916A0080E0DF9108
:100B0000CF9109941F93CF93DF93D82F192FC62F1E
:100B1000E0916900F0916A0080EC0995E09169002C
:100B2000F0916A00812F0995E0916900F0916A00C7
:100B30008D2F0995E0916900F0916A008C2F09953D
:100B40008FED9EE20197F1F700C0000080E0DF9199
:100B5000CF911F91089522B792B7921B9C33E0F377
:100B60008150C9F70895262FFC0142815381052E3B
:100B7000000C660B770B40937500509376006093E2
:100B800077007093780086819781909374008093AA
:100B9000730020937A000895EF92FF920F931F93B2
:100BA000CF938C0110927B0010927C0010927D00FC
:100BB00010927E0010927F001092800010928100AF
:100BC00010928200DC011196CC911197C130F1F4A2
:100BD0008091790050DDA89809DE37DE80936C00A3
:100BE000882319F02BDE1092610080916C008093B5
:100BF0007B008BE790E090939600809395008C2F7C
:100C0000CF911F910F91FF90EF900895C23339F467
:100C10008091790030DDA89801DEC0E0EACFC333CF
:100C200079F4C298FC018281809362008681978169
:100C30009093740080937300C0937A00CFEFD9CF64
:100C4000C43389F4C29812968C91129780936200F3
:100C500016968D919C91909374008093730082E31B
:100C600080937A00EBCFC63419F4A898CAD5D5CFB3
:100C7000C93411F4CBD5D1CFCA3411F4D9D5CDCFE5
:100C8000CC3431F4FC018281E5D580937B0083C0B4
:100C9000CB3421F412968C9109D6F7CFC734F1F4F6
:100CA000B5D560E0F80182812BD6D80113968C91DE
:100CB000D1D5F8018481882311F08581CBD5A6D5C3
:100CC00061E0D80112968C911BD6F801868197813C
:100CD000909374008093730086E3C2CFC834F1F41C
:100CE00095D560E0D80112968C910AD6F8018381DF
:100CF000B1D5D80114968C911497882319F01596C4
:100D00008C91A8D5F8018681978190937400809387
:100D1000730080858093B10085E3A2CFCD3431F498
:100D200012968C9187FF37C081E0AFCFCD3591F41B
:100D3000FC01828193819093700080936F00848185
:100D400080937100868197819093740080937300E3
:100D50008AE386CFCC35B1F412968D919C9113978E
:100D60009093700080936F0014968C9114978093E9
:100D7000710016968D919C919093740080937300EE
:100D800089E36ECFCE3549F407D691E0811101C0D9
:100D900090E090937B00C1E02CCFCF3511F40BD6BF
:100DA00074CFCA3581F5A898BAD5F801828133810C
:100DB000248195818093750030937600209377008D
:100DC0009093780066816F71B6D5D8011696CC9154
:100DD0001697C295C695C7701696CC934BE7E42E2E
:100DE00040E0F42E10E0C11711F0143031F4A1D519
:100DF000C53008F4FECEC4E0FCCEBAD5F70181932D
:100E00007F011F5FF0CFC23019F418DDA99A05CF1A
:100E1000C33081F5E0916900F0916A0012968C91DF
:100E2000099580937B00E0916900F0916A00D801F8
:100E300013968C91099580937C00E0916900F09164
:100E40006A00D80114968C91099580937D00E091F9
:100E50006900F0916A00D80115968C9109958093EC
:100E60007E0010927F0010928000109281001092FC
:100E70008200C1CFC53011F4E8DC07CF62E0C43096
:100E800009F4C4C063E0C73009F4C0C0C630F9F447
:100E9000FC0182819381092E000CAA0BBB0B80936D
:100EA000750090937600A0937700B09378008481CA
:100EB000958180936D0090936E008093720086817F
:100EC0009781909374008093730081E0C9CEC830FD
:100ED000E1F412968D919C91092E000CAA0BBB0B8C
:100EE0008093750090937600A0937700B09378007C
:100EF00010926E0010926D00F80186819781909398
:100F000074008093730084E0ABCEC93001F5139672
:100F10002C91139712966C91129770E090E080E0FC
:100F2000CB0177276627922B14962C911497622B6E
:100F300015962C91722B60937500709376008093B8
:100F4000770090937800C1DC10927B0024CFCA30E8
:100F500069F4FC01828180937900811103C01092B1
:100F60006B0019CF81E080936B0015CFC131B1F4D4
:100F70008091790080937C008091610080937D0056
:100F80008091680080937E008091600080937F0054
:100F900080917A0080938000C6E02BCECB3089F41C
:100FA00012968D919C919093850080938400C29AB3
:100FB000BA9A83E0D0DDC298A89880E1CCDD7FD8D2
:100FC0002CCECC3099F480EC83D880E081D88AE0B4
:100FD000C2DDC29A85E0BFDDC29885E0BCDD87B383
:100FE000837D87BB88B3837D88BB17CECD3011F45A
:100FF0007CD84BCECE3021F4FC01828169D8A4CFBD
:1010000065E0CF3019F0C03121F466E0C801ABDDF6
:1010100015CECF3709F001CE83E180937B0081E8C4
:1010200080937C008FEC80937E00E5CE2F923F92E0
:101030004F925F926F927F928F929F92AF92BF92E8
:10104000CF92DF92EF92FF920F931F93CF93DF9394
:1010500000D00F92CDB7DEB720917A003EEF320F6D
:10106000323048F0253039F0233329F0293319F094
:10107000263309F066C170E0E0907300F0907400D0
:101080006E157F0508F47B011E2DA99820917A002A
:10109000253011F5A701BC01809175009091760073
:1010A00074D88091750090917600A0917700B091EE
:1010B00078008E0D9F1DA11DB11D8093750090932A
:1010C0007600A0937700B0937800809173009091A0
:1010D00074008E199F09C1C0233371F5082F8A83CC
:1010E0009B838A81801B8117C0F08091730090914F
:1010F00074008E199F099093740080937300892B5C
:1011000009F0B2C080916200882321F0C29A24E0E5
:101110002A95F1F710927A00A7C0E0916900F0914A
:101120006A0080E00995EA81FB818193FB83EA8371
:10113000F4E0FA95F1F7D5CF2633B9F54091730075
:10114000509174005B834A83E416F50610F4FB8229
:10115000EA821A819BE7C92E90E0D92EF12CE12C6E
:10116000AA80BB8051E0A51AB108E11688F08091F1
:101170007300909174002A813B81821B930B9093A2
:10118000740080937300892B09F06EC051D3C2CFD5
:1011900081E0AE14BF0409F080E088D3F6018193AA
:1011A0006F01FFEFEF1AFF0AE0CF293301F5082F97
:1011B0008A839B838A81801B811778F080917300DA
:1011C000909174008E199F0990937400809373001E
:1011D000892B09F049C0ADD39DCFCAD3EA81FB81E9
:1011E0008193FB83EA83F4E0FA95F1F7E3CF2230B1
:1011F00009F07BC08090750090907600A0907700F9
:10120000B09078002091600040917300509174007C
:101210005B834A83E416F50610F4FB82EA821A81A6
:1012200089831C0175016401822DF9818F1B81174F
:10123000F0F0810E911CA11CB11C8092750090925F
:101240007600A0927700B092780080917300909120
:1012500074002A813B81821B930B909374008093CE
:101260007300892B09F456CFA99AA8986CC000E0A6
:10127000C114D10452E0E506F10430F12601370132
:1012800081E176946794579447948A95D1F7042D19
:101290002415D1F040926000E0916900F0916A005D
:1012A0008DE40995E0916900F0916A0080E009956C
:1012B000E0916900F0916A00842D0995E091690040
:1012C000F0916A0080E00995260137018FEF481AF6
:1012D000580A680A780AC701B60134DBF101819324
:1012E0001F01202F730162019FCF233051F58A83A4
:1012F0009B83CA80DB80CE0CDF1C2A813B812C15AE
:101300003D0509F4E2CE8091750090917600DDDB19
:10131000EA81FB818193FB83EA8380917500909140
:101320007600A0917700B09178000196A11DB11DC3
:101330008093750090937600A0937700B093780027
:10134000DCCFA99A1FEF812F0F900F900F90DF91A4
:10135000CF911F910F91FF90EF90DF90CF90BF90B2
:10136000AF909F908F907F906F905F904F903F9045
:101370002F9008950F931F93CF93DF93EC018C016F
:10138000060F111DC017D10731F480E0DF91CF9116
:101390001F910F91089568E08991CDD2882391F330
:1013A00081E0F4CF4F925F926F927F928F929F92E3
:1013B000AF92BF92CF92DF92EF92FF920F931F9363
:1013C000CF93DF93982E792E80917A00882309F4A9
:1013D000E2C1813059F0982F9D7F943039F0982FD9
:1013E000977F923319F0853309F0D5C170E00091F1
:1013F0007300109174006017710708F48B01D02FEF
:10140000A998C0917A00C630E9F5A801692D772D19
:101410008091750090917600BBD680917500909177
:101420007600A0917700B0917800800F911FA11DE8
:10143000B11D8093750090937600A0937700B093D0
:1014400078008091730090917400801B910B9093B1
:10145000740080937300892B71F1C0E0A99AA89859
:101460008C2FDF91CF911F910F91FF90EF90DF9024
:10147000CF90BF90AF909F908F907F906F905F9034
:101480004F900895C23319F5C92DE92CF72C8E2DF4
:101490008C1B8D1798F08091730090917400801BC5
:1014A000910B9093740080937300892BB1F6809117
:1014B00062008111C29A10927A00CFCFE091690048
:1014C000F0916A00D7018D917D010995E0CFC53378
:1014D00041F5E0907300F09074000E151F0508F4BC
:1014E00078011E2D092DC92DD72D8C2F801B81171A
:1014F00098F080917300909174008E199F099093D9
:10150000740080937300892B09F0A7CF8091B100FC
:10151000882329F08DD1CFCF89919CD1E6CF76D188
:10152000CACFCA33A1F58091710025E0C22ED12C1B
:10153000E12CF12C04C0CC0CDD1CEE1CFF1C8A95A8
:10154000D2F780916F0090917000C82AE8D1609125
:1015500071006D5F8C2DEFD1602F892D972D0ADFE3
:10156000C82F882319F0E5D1CDEF78CF8091730093
:1015700090917400801B910B909374008093730082
:10158000892B09F06ACFD5D110927A0067CFC1308C
:1015900009F0C3C0C0907500D0907600E09077004D
:1015A000F0907800892CA92CB72C80E89A2D9819F6
:1015B0009D17B8F1C0927500D0927600E092770046
:1015C000F09278008091730090917400801B910BD1
:1015D0009093740080937300892B09F03ECF109292
:1015E0007A0060916D0070916E006115710509F4CB
:1015F00035CF809172008617170609F42FCF81E04E
:10160000C81AD108E108F10871956195710990E057
:1016100080E06C217D218E219F211FDA811170C015
:101620001DCF982EC114D104B2E0EB06F10430F1C5
:101630002601370191E176946794579447949A95DF
:10164000D1F7942C8415D1F040926000E0916900AC
:10165000F0916A008DE40995E0916900F0916A00CB
:1016600080E00995E0916900F0916A00842D099568
:10167000E0916900F0916A0080E00995F5014191DF
:101680005F0180916D0090916E00892B91F421E0B3
:10169000C701B6018BD98823C9F110927A00C09294
:1016A0007500D0927600E0927700F0927800CBEF50
:1016B000D5CE20E0C701B60179D98111EECF809156
:1016C0007200815080937200811120C060916D0082
:1016D00070916E0071956195710990E080E06C21C8
:1016E0007D218E219F21B9D9882361F010927A0043
:1016F000C0927500D0927600E0927700F092780068
:10170000CAEFACCE80916D0080937200FFEFCF1ACC
:10171000DF0AEF0AFF0A892D49CFC430D1F5C92D60
:10172000E92CF72C8E2D8C1B8D1788F0809173007F
:1017300090917400801B910B9093740080937300C0
:10174000892B09F08ACE10927A00C1E087CED701AA
:101750006D917D018091750090917600D3D9882399
:1017600021F010927A00CCEF79CE809175009091A3
:101770007600A0917700B09178000196A11DB11D6F
:101780008093750090937600A0937700B0937800D3
:10179000C9CFCFEF63CECFEF63CE12BA18BA88B3FA
:1017A0008C7F88BB87B3836087BB2FE93EE482E0F0
:1017B000215030408040E1F700C0000017BA93E0AC
:1017C00094BBA29885B38C6385BBA8982FE936EAB1
:1017D00084E0215030408040E1F700C00000A89A2A
:1017E000A9982FE936EA84E0215030408040E1F7A3
:1017F00000C00000A99AA89893BF24D7789411D666
:10180000FECFBC98C49ABB98C39A0895BC98C49A5A
:10181000BB98C39A84E18A95F1F7BC9AC49884E195
:101820008A95F1F7BB9AC39884E18A95F1F70895F8
:10183000BB9AC398BC9AC49888E08A95F1F7BB9884
:10184000C39A88E08A95F1F7BC98C49A84E18A9596
:10185000F1F7089598E0BB9AC39828E02A95F1F72C
:1018600087FF21C0BC98C49A28E02A95F1F7BB985D
:10187000C39A24E12A95F1F7880F915061F7BB9A3A
:10188000C398BC98C49A88E08A95F1F7BB98C39A2C
:1018900024E12A95F1F786B3BB9AC39882958F709D
:1018A000809581700895BC9AC498DECF282FBC988B
:1018B000C49A98E080E0BB9AC39834E13A95F1F776
:1018C000BB98C39A34E13A95F1F7880FB4998160D7
:1018D000915089F7BB9AC39821110FC0BC9AC49844
:1018E00098E09A95F1F7BB98C39A38E03A95F1F7EA
:1018F000BB9AC398BC98C49A0895BC98C49AF0CF78
:10190000880F613009F48160A5CFC598089587B329
:101910008C6287BBBC98F9DFC398C2980895C298BF
:10192000C5983ED7C29AC39A3BD7C59A39D7C598AE
:1019300037C7C298EACFCF93DF93D82F6150770B88
:10194000C1E001C0CC0F6A95EAF7C11104C080E084
:10195000DF91CF910895D9DF8C2F8D2339F0C39A71
:101960001FD7C59A1DD7D1DFC695EFCFC398F8CF43
:10197000CF93DF93D8E0C0E0C8DF12D7C59A86B313
:1019800082958170CC0FC82B0BD7BFDFD150A1F748
:101990008C2FDF91CF910895CF93B9DFC29A88E25F
:1019A0008A95F1F7FDD6C6B3C4DFC295C17081E058
:1019B0008C27CF910895CF93AADFC29A88E28A95A7
:1019C000F1F768E080ECB7DFC0E09FDFE9D6C59AA9
:1019D000E7D6B49906C0CA5F98DFABDF8C2FCF91F2
:1019E000089593DFCF5FC73081F7CFEFF6CFF8943C
:0219F000FFCF27
:0419F200FF0D0100E4
:00000001FF
