:100000004BC07FC064C063C062C061C060C05FC0DD
:100010005EC05DC05CC05BC05AC059C058C057C00C
:1000200056C055C054C009021200010100A01909B0
:10003000040000000000000012011001FF00000891
:10004000C016DC050701010200010E035500530034
:1000500042006100730070001C0377007700770096
:100060002E00660069007300630068006C002E00BB
:10007000640065000403090403060C183060C00026
:1000800001000100000000010102030D0C0B0A0930
:10009000080706050403020111241FBECFE5D4E0C2
:1000A000DEBFCDBF20E0A6E6B0E001C01D92A43BBC
:1000B000B207E1F710E0A0E6B0E0EEE0F7E102C041
:1000C00005900D92A636B107D9F7C6D51ECB98CFAD
:1000D000A82FB92F80E090E041E050EA609530E031
:1000E00009C02D9182279795879510F08427952731
:1000F000305EC8F36F5FA8F30895EADF8D939D9398
:100100000895CF93CFB7CF93C395B09BE9F7B09B3A
:1001100009C0B09B07C0B09B05C0B09B03C0B09B9B
:1001200001C0A1C0DF93C0919400DD27C456DF4F0A
:10013000B09B02C0DF91EBCF2F930F931F9306B3B9
:100140002FEF00FB20F94F933F9316B34FEF01279A
:1001500000FB21F93BE031C04E7F012F16B3216037
:1001600028C0102F4D7F2260000006B329C04B7FAE
:100170002460012F000016B32BC016B3477F286000
:100180002AC04F7E06B320612CC04F7D16B320627B
:100190002FC04F7B06B3206432C0422706B3499379
:1001A0004FEF0000102710FB20F916B31370C9F1B0
:1001B000297F91F2012700FB21F906B3237F89F201
:1001C000315058F1102710FB22F916B3277E79F22F
:1001D000012700FB23F92F7C81F206B3102710FBC7
:1001E00024F92F7971F200C016B3012700FB25F91D
:1001F0002F7359F200C006B3102710FB26F92230E6
:1002000040F200C016B3012700FB27F9243028F67E
:100210004F77206816B30000F9CF10E41ABF00270B
:1002200017C03B503195C31BD04010E41ABF088162
:10023000033CE9F00B34D9F0209192001981110FA1
:100240001213EDCF093641F10D3211F0013E39F7AD
:1002500000939A003F914F911F910F912F91DF9141
:10026000CAB7C6FD51CFCF91CFBFCF91189520917E
:100270009A00222379F310919800112311F534305C
:1002800012F13093980020939300109194003BE07A
:10029000311B3093940017C00091980001308CF40A
:1002A0000AE53091950034FD10C000939500C7E831
:1002B000D0E00FC02795A8F45150A9F4220F0000F8
:1002C000F9CF4AE503C042ED01C0432FC4E1D0E0BD
:1002D00032E017B31360C09A17BB08B320E413E0F1
:1002E0005F93012756E008BB279520F4515021F475
:1002F000220FF9CF012756E000003B5A08BBD0F28D
:10030000279528F4515029F4220F0000F9CF012736
:1003100056E0279508BB20F4515021F4220FF9CF65
:10032000012756E02991332308BB21F60C7F109159
:100330009900110FC651D04008BB11F010939200E4
:1003400010E41ABF016017B31C7F402F4C7F5F91F0
:1003500000C000C008BB17BB48BB7CCFC598BD9A86
:10036000BB98C39A50E22AD05A95E9F7089527D04E
:1003700028E03327382780FB869522D02A95D1F7AD
:1003800030FB1ED01BD01AC020EC18D046F42A95A2
:10039000E1F780E02AE113D02A95E9F70FC028E0C1
:1003A000332788270BD0869587F938272A95D1F7E8
:1003B00005D027F932277AF301D000C06894E89479
:1003C00016F4C39A01C0C39806D0C59AE6B3E3FBFE
:1003D00002D0C5980895E091B200F091B300319732
:1003E000F0F70895AC0188E6C2DF842FC0DF89E60C
:1003F000BEDF852FBCCFCF93DF9360919800635011
:1004000067FD90C080919400CCE0D0E0C81BD1097A
:10041000C456DF4F809193008D3209F0BFC0683021
:1004200009F07EC083EC809387008AE58093950075
:10043000109266008881807671F0CE0199D78F3F47
:1004400009F466C09F81911169C09E81981708F0D8
:1004500065C0892F63C02A81109290009981911103
:100460000AC01092910020E930E082E030939700BA
:1004700020939600E7CF953029F42093990020E946
:1004800030E0F4CF963099F59B81913059F488E3B0
:1004900090E0909397008093960082E190E490938F
:1004A0006600D0CF923019F486E290E0F2CF93301C
:1004B000A9F7211108C084E790E0909397008093FA
:1004C000960084E0EBCF213041F488E590E09093F2
:1004D0009700809396008CE1E1CF2230F9F68AE410
:1004E00090E090939700809396008EE0D7CF98305D
:1004F00059F0993019F420939B00C1CF81E09A30D4
:1005000009F4BDCF80E0BBCF2BE930E081E0AECF76
:10051000988197FD8E8190E89093660080936700A4
:10052000109298008091950084FF2BC0C0916700C5
:10053000CF3F39F16C2FC93008F068E08C2F861B53
:10054000809367008091870098E8892780938700CF
:10055000CC2359F02091660027FF32C088E890E054
:100560009AD5C82F893008F052C06C2F88E890E0E7
:10057000C4DDCC5FCC3019F08FEF80936700C0935F
:10058000950084E196B3937031F48150D9F71092BD
:10059000990010929200DF91CF91089580916600AA
:1005A00087FFBECFCE017BD38F3F21F48EE18093B6
:1005B0009500B6CF882309F4B3CF10926700B0CF6F
:1005C000809196009091970026FF17C0FC01A8E843
:1005D000B0E0262F280F34913D9331962E13FBCF98
:1005E0002FEF260F30E02F5F3F4F820F931F909326
:1005F000970080939600C62FB8CFA8E8B0E0FC0122
:10060000262F280F31913D932E13FCCFE9CF8FEF8A
:1006100080936700CEE1B3CF8AE5809395008FEF9A
:100620008093670085B7826085BF8BB780648BBF7E
:100630000895C5980895C298FCCF87B38C6287BB94
:10064000BC98F7DFC398C2980895C59A0895FC0135
:100650008281938190937B0080937A008481809340
:100660007D00858180937C008681978190938500B1
:100670008093840010927E00609386000895FC01B0
:100680009A018281938143815281509380004093EB
:10069000810040916B004423F1F040916A00409347
:1006A00082001092830046815781509385004093C9
:1006B00084006093860030937900209378002115A0
:1006C000310541F0B9010DD8892B21F43093770021
:1006D00020937600089510928200E3CF815008F4B1
:1006E000089522B792B7921B9C33E0F3F7CFCF93D4
:1006F000DF93EC01E0916300F091640080EA0995DA
:10070000E0916300F09164008D2F0995E091630002
:10071000F09164008C2F0995E0916300F0916400E2
:1007200080E0DF91CF910994CF92DF92EF92FF9218
:100730006B017C01862F880F880F880F8870E091ED
:100740006300F091640080620995D701C60129E039
:10075000B695A795979587952A95D1F7E09163006F
:10076000F09164000995D701C601B695A7959795B4
:100770008795E0916300F09164000995E091630032
:10078000F091640080E0FF90EF90DF90CF900994AB
:10079000CF92DF92EF92FF92CF93DF936B017C01B8
:1007A000D42FC22F862F880F880F880F8870E09172
:1007B0006300F091640080640995D701C60129E0C7
:1007C000B695A795979587952A95D1F7E0916300FF
:1007D000F09164000995D701C601B695A795979544
:1007E0008795E0916300F09164000995E0916300C2
:1007F000F09164008D2F0995CC2371F0DF3F51F00B
:10080000CFE0C701B60190DFD81731F081E066DF95
:10081000C150B9F78FE062DF80E0DF91CF91FF90A8
:10082000EF90DF90CF900895CF93C82F80916B0009
:100830008823F9F0809160008C17D9F0C093600094
:10084000E0916300F09164008DE40995E09163000C
:10085000F091640080E00995E0916300F0916400FC
:100860008C2F0995E0916300F091640080E0CF91B6
:100870000994CF9108958FB9779BFECF8FB10895DA
:10088000C29A81E02BDF87B3837D87BB88B3837DEA
:1008900088BB8DB18F7A8DB98EB18FB110927500F2
:1008A00010926B0010926A008FEF809360000895A1
:1008B00087B38C6287BBBC988FEF809360000895EC
:1008C00022B79091680082B7821B8917E0F30895E0
:1008D000CF93DF93D8E0C0E0ACDEF2DFB6DE86B3C4
:1008E00082958170CC0FC82BEBDFA3DED150A1F72E
:1008F0008C2FDF91CF9108950F931F93CF93DF93A8
:100900008C016150770BC1E0D0E002C0CC0FDD1F3D
:100910006A95E2F7209729F4DF91CF911F910F910B
:10092000089587DECE0180239123892B41F0C39A5D
:10093000C7DF8BDEC5DF7DDED695C795EBCFC398CD
:10094000F7CFC298C598BCDFC29ABACF1F93CF9396
:10095000DF93182FC598D8E0C0E017FF13C0C39AE3
:10096000110FAEDFC59AACDF86B382958170CC0FD4
:10097000C82BC598A5DFD15081F78C2FDF91CF917F
:100980001F910895C398ECCF811105C0809161003B
:10099000811101C08DE09FEF980F9D3000F18DE037
:1009A000809375002BE334E0309364002093630060
:1009B00010926800EDE0E81B8E2F90E0FC01EB57F1
:1009C000FF4FE491E065EDB9FC01E158FF4FE49180
:1009D0008EB18E7FE82BEEB98EB18FB108958093E2
:1009E00075008830F8F626EA34E0309364002093EE
:1009F00063001DB8E7E0E81BF0E0E858FF4FE49122
:100A0000E093680008951F93CF93DF93C82FBCDF56
:100A1000D1E0C83008F4DFE0C3E0C29A8D2F5EDE7B
:100A2000C2988AEF5BDEE0916300F09164008CEA8B
:100A30000995E0916300F091640083E50995E091E8
:100A40006300F091640080E00995182FE091630045
:100A5000F091640080E00995133549F083E03EDEB3
:100A6000C150D9F681E0DF91CF911F91089580E0C8
:100A7000FACFFF920F931F93CF93DF93C09169003A
:100A8000CC2351F11092690080917500BCDF9091E8
:100A90007500811108C090936100DF91CF911F9183
:100AA0000F91FF9008959D3088F0D0E0C0E00C2FAA
:100AB00010E005571F4FF801F490DF15C9F08F2D96
:100AC000A2DF811115C0F0926100E7CFCDE0C91B14
:100AD000D0E0CD3061F7E9CF80916100882329F320
:100AE00092DF8823D1F2D091610010926100DFCFB4
:100AF000CF5F0F5F1F4FCD30F1F681E0CECF8FEF8C
:100B00000895282FBC98C49A98E080E0BB9AC398B7
:100B100030E13A95F1F7BB98C39A30E13A95F1F795
:100B2000880FB4998160915089F7BB9AC3982111BD
:100B30000FC0BC9AC49898E09A95F1F7BB98C39AF5
:100B400038E03A95F1F7BB9AC398BC98C49A0895D7
:100B5000BC98C49AF0CF98E0BB9AC39828E02A9535
:100B6000F1F787FF21C0BC98C49A28E02A95F1F7D5
:100B7000BB98C39A20E12A95F1F7880F915061F74D
:100B8000BB9AC398BC98C49A88E08A95F1F7BB9841
:100B9000C39A20E12A95F1F786B3BB9AC398829550
:100BA0008F70809581700895BC9AC498DECFBB9AEF
:100BB000C398BC9AC49888E08A95F1F7BB98C39A09
:100BC00088E08A95F1F7BC98C49A80E18A95F1F79C
:100BD0000895BC98C49ABB98C39A80E18A95F1F7AE
:100BE000BC9AC49880E18A95F1F7BB9AC39880E1DA
:100BF0008A95F1F70895EF92FF920F931F93CF9389
:100C0000DF93EC01E62EE5DF8A81880FA4DFFD800B
:100C1000F0FE02C08C819FDF8B819DDFEE20A9F06A
:100C2000D8DF8A81880F816096DF86E38093860013
:100C30008E819F819093850080938400DF91CF9176
:100C40001F910F91FF90EF900895F1FA002700F99E
:100C500000937F0085E3EACFC3E0C3BF12BA18BA9E
:100C600088B38C7F88BB87B3836087BB88EC36DD15
:100C700017BAC4BBA29885B38C6385BBA89888ECCF
:100C80002DDD88EC2BDDA89AA99888EC27DD88EC6F
:100C900025DDA99AA898C0DC7894ADDBFECF4F92F1
:100CA0005F926F927F92AF92BF92CF92DF92EF925C
:100CB000FF920F931F93CF93DF93EC01162F6623C0
:100CC00009F452C080918600882309F4CCC1813098
:100CD00059F0982F9D7F943039F0982F977F923359
:100CE00019F0853309F0BFC180918400909185008F
:100CF0001817190611F008F0182FA998809186008E
:100D0000863009F04FC0E12EF12C80918000909147
:100D1000810068DB6E01CE0CDF1CCC15DD05A1F572
:100D20008091800090918100A0918200B091830019
:100D3000810F911DA11DB11D8093800090938100B2
:100D4000A0938200B09383008091840090918500ED
:100D50008E199F099093850080938400892B09F454
:100D600040C010E0A99AA898812FDF91CF911F91E0
:100D70000F91FF90EF90DF90CF90BF90AF907F905A
:100D80006F905F904F90089583EFF1DA8DE1EFDA85
:100D900084E6EDDA8991EBDA82E7E9DAF5DA87FDC4
:100DA000FBCFBBCF823309F57E01E0916300F09168
:100DB0006400D7018D917D0109958C2F8E19810FCB
:100DC000A1F78091840090918500811B91099093F7
:100DD000850080938400892B21F680916200811127
:100DE000C29A1092860011E0BDCF8533E1F47E01F6
:100DF000F70181917F01AFDE8C2F8E19810FC1F732
:100E00008091840090918500811B910990938500C9
:100E100080938400892B09F0A4CF80917F008823E0
:100E200001F3C5DEDECF8A3309F048C080917E0031
:100E3000811126C000917D0082E0800FEE24E394B2
:100E4000F12C02C0EE0CFF1C8A95E2F780917A002B
:100E500090917B00E82AF92A80917C00837090E0D1
:100E6000002E02C0880F991F0A94E2F7E82AF92A97
:100E700068DD63E0600FC7013FDD81E080937E00A5
:100E80007E01D7018D917D0168E090E035DD8C2FEA
:100E90008E19810FB1F78091840090918500811B9C
:100EA00091099093850080938400892B09F059CF94
:100EB000C2DB1092860010927E0095CF813009F03F
:100EC0009DC0C0908000D0908100E0908200F090A2
:100ED00083008C2DA9DC5E01F50141915F018091B9
:100EE000780090917900892B99F421E0C701B6012F
:100EF0004FDC882309F464C010928600C092800001
:100F0000D0928100E0928200F09283001BEF2ACF02
:100F100020E0C701B6013CDC082F8111EDCF8091A4
:100F200076009091770001979093770080937600F8
:100F3000892B09F045C0409080005090810060905E
:100F4000820070908300E0916300F09164008CE473
:100F5000099580917800909179008F3F910519F063
:100F600010F0062D0695F0E80F9FC0011124952D75
:100F70009695E0916300F0916400892B0995D30167
:100F8000C201B695A79597958795E0916300F0917A
:100F900064000995E0916300F091640080E0099598
:100FA00060907800709079008CE02FEF62167104E9
:100FB00011F008F080E192DB709277006092760089
:100FC0008FEFC81AD80AE80AF80AC114D10411F43C
:100FD0008C2D2ADC8C2F8A19810F09F07DCFC092CD
:100FE0008000D0928100E0928200F0928300809194
:100FF000840090918500811B9109ACCE843089F5E5
:10100000FC2EF10EE990409080005090810060909D
:101010008200709083006201E0916300F0916400AF
:1010200080EC0995E0916300F0916400852D0995AD
:10103000E0916300F0916400842D0995E0916300D4
:10104000F09164008E2D09950FE081E047DBC60129
:101050004EDBE81651F00150C1F7109286001CEFEC
:1010600081CE1FEF7FCE1FEF7FCE809180009091C9
:101070008100A0918200B09183000196A11DB11D55
:101080008093800090938100A0938200B0938300AE
:10109000FC12B8CFACCF4F925F926F927F92AF921B
:1010A000BF92CF92DF92EF92FF920F931F93CF9355
:1010B000DF938C01C62F662309F44AC18091860014
:1010C0009EEF980F923048F0853039F0833329F045
:1010D000893319F0863309F039C1809184009091E9
:1010E0008500C817190611F008F0C82FA99880913B
:1010F00086008530B9F5EC2EF12C8091800090911E
:10110000810070D96801CE0CDF1C0C151D0519F586
:101110008091800090918100A0918200B091830025
:101120008C0F911DA11DB11D8093800090938100B3
:10113000A0938200B09383008091840090918500F9
:101140008E199F099093850080938400892B21F547
:101150001092860021C084E20AD916D9F801819341
:101160008F01D3CF8333D9F47801E0916300F091FC
:10117000640080E00995F70181937F01802F8E1B29
:101180008C0F99F780918400909185008C1B9109B8
:101190009093850080938400A99AA898D9C086333B
:1011A000E9F4DC2F7801FFEFEF1AFF0A81E0D1307C
:1011B00009F080E0A6DCF8018083D150870191F727
:1011C00080918400909185008C1B910990938500FB
:1011D00080938400892B01F7EADCBACF893309F0C8
:1011E0004CC080917E0081112CC0D0917D0082E0A6
:1011F0008D0FEE24E394F12C02C0EE0CFF1C8A95B7
:10120000E2F780917A0090917B00E82AF92A809198
:101210007C00837090E00D2E02C0880F991F0A9405
:10122000E2F7E82AF92A8DDB63E06D0FC70164DB82
:1012300000DA46DB0ADA44DB86B3FBD981E080932F
:101240007E00780145DBF70181937F01802F8E1BA3
:101250008C0FC1F780918400909185008C1B9109BF
:101260009093850080938400892B09F095CFE3D972
:101270001092860010927E008FCF8230E9F5C090E8
:101280008000D0908100E0908200F09083008E2D4D
:101290008695CADA260137015801C301B20144DA42
:1012A000F50181935F01FFEF4F1A5F0A6F0A7F0A12
:1012B0004114510419F4862D8695B6DA802F8A19C7
:1012C0008C0F59F78FEFC81AD80AE80AF80A8FEF7F
:1012D0008C0FC80ED11CE11CF11CC0928000D09272
:1012E0008100E0928200F0928300809184009091CE
:1012F00085008C1B910926CF833041F52091800019
:101300003091810078016901EFEFCE1ADE0AC90140
:10131000EED9F70181937F019601902F9E1B9C0FC0
:1013200091F78091800090918100A0918200B0910E
:1013300083008C0F911DA11DB11D8093800090939F
:101340008100A0938200B0938300CFCFA99ACFEF02
:101350008C2FDF91CF911F910F91FF90EF90DF9035
:10136000CF90BF90AF907F906F905F904F90089517
:10137000EF92FF920F931F93CF938C01DC01119694
:10138000CC911197C13029F580917500FDDAA898AC
:101390008FDAC298C59881E0A1D9C29A81E09ED91E
:1013A000C29867DB182F80937400882319F068DADD
:1013B0001092610010936C008CE690E0909397007F
:1013C000809396008C2FCF911F910F91FF90EF90FB
:1013D0000895C23021F454DAA99AC0E0EDCFC330A9
:1013E00049F5E0916300F091640012968C910995A3
:1013F00080936C00E0916300F0916400D801139633
:101400008C91099580936D00E0916300F0916400E8
:10141000D80114968C91099580936E00E091630039
:10142000F0916400D80115968C91099580936F0016
:10143000C4E0C2CFC53021F41CDB80936C00CEC069
:1014400050E040E062E0C43059F050E040E063E03A
:10145000C73031F0C63039F4FC014481558161E078
:10146000C8010DD962C050E040E064E0C830C1F36B
:10147000C93061F481E080936B0014968C91809365
:101480006A008695D1D910926C00A8C0CA3069F460
:10149000FC01828180937500811103C01092690064
:1014A000F2CF81E080936900EECFC131C1F4109298
:1014B0006C008091750080936D0080916100809335
:1014C0006E008091680080936F008091600080932F
:1014D00070008091860080937100C6E06DCFCF3799
:1014E00051F487E080936C0081E880936D00109246
:1014F0006E008FEC9BCFC23339F48091750044DAD3
:10150000A898D6D9C29A69CFC33389F4C2981296E3
:101510008C9112978093620016968D919C91909376
:10152000850080938400C0938600CFEF45CFC433FD
:1015300079F4C298FC018281809362008681978150
:10154000909385008093840082E380938600EDCFA2
:10155000C63431F4A898BC98C49ABB98C39A3DCFBE
:10156000C93411F436DB39CFCA3411F420DB35CF5E
:10157000CC3421F412968C91EEDA5FCFCB3421F487
:10158000FC018281BEDA59CF61E0C73419F0C8345A
:1015900021F460E0C8012FDBC8CFCD3431F41296BE
:1015A0008C9187FF70CF81E048CF6AE3CD3519F089
:1015B000CC3521F469E3C8014AD8B7CFCE3581F4E0
:1015C0003CD8C29AB8E2BA95F1F77AD9C6B333D803
:1015D000C295C17081E0C827C0936C00C1E0ECCE19
:1015E000CF35D1F42AD8C29AE8E2EA95F1F768E05B
:1015F00080EC90E081D9C0E01CD862D926D860D9AF
:10160000B49904C0CA5F15D816D8E6CF12D8CF5FF8
:10161000C73091F7CFEFF8CFCA3521F5A89891D907
:10162000D80116966C9116976F7112968D919C91B8
:1016300063D9F801868182958695877086838CE6CA
:10164000E82E80E0F82EC0E0F8018681C81710F47B
:10165000C43011F4F0D7B0CE3BD9D7018D937D01C2
:10166000CF5FF2CFCB3089F412968D919C919093FD
:10167000B3008093B200C29ABA9A83E02FD8C2987E
:10168000A89880E12BD86AD6A8CECC3099F480EC0B
:101690006ED680E06CD68AE021D8C29A85E01ED84A
:1016A000C29885E01BD887B3837D87BB88B3837DD1
:1016B00088BB93CECD3011F467D6BFCECE3021F4A7
:1016C000FC01828154D6DFCE50E040E065E0CF30AF
:1016D00009F4C6CEC03109F080CE50E040E066E0AB
:1016E000BFCEAA1BBB1B51E107C0AA1FBB1FA61779
:1016F000B70710F0A61BB70B881F991F5A95A9F7BB
:0E17000080959095BC01CD010895F894FFCF1F
:06170E00FF0D017F050044
:00000001FF
