:1000000042C076C05BC05AC059C058C057C056C025
:1000100055C054C053C052C051C050C04FC04EC054
:100020004DC04CC04BC009021200010100A01909CB
:10003000040000000000000012011001FF00000891
:10004000C016DC050701010200010E035500530034
:1000500042006100730070001C0377007700770096
:100060002E00660069007300630068006C002E00BB
:1000700064006500040309040E0D0C0B0A0908074F
:1000800006050403020111241FBECFE5D4E0DEBF44
:10009000CDBF10E0A0E6B0E0ECEDFAE102C00590C3
:1000A0000D92A436B107D9F720E0A4E6B0E001C074
:1000B0001D92A03BB207E1F7C3DB0ECDA1CFA82F65
:1000C000B92F80E090E041E050EA609530E009C04F
:1000D0002D9182279795879510F084279527305E7C
:1000E000C8F36F5FA8F30895EADF8D939D93089599
:1000F000CF93CFB7CF93C395B09BE9F7B09B09C01F
:10010000B09B07C0B09B05C0B09B03C0B09B01C0B3
:10011000A1C0DF93C0918C00DD27CC56DF4FB09B90
:1001200002C0DF91EBCF2F930F931F9306B32FEFF6
:1001300000FB20F94F933F9316B34FEF012700FBCD
:1001400021F93BE031C04E7F012F16B3216028C05A
:10015000102F4D7F2260000006B329C04B7F246022
:10016000012F000016B32BC016B3477F28602AC0AA
:100170004F7E06B320612CC04F7D16B320622FC086
:100180004F7B06B3206432C0422706B349934FEF3A
:100190000000102710FB20F916B31370C9F1297F56
:1001A00091F2012700FB21F906B3237F89F2315038
:1001B00058F1102710FB22F916B3277E79F2012798
:1001C00000FB23F92F7C81F206B3102710FB24F9E2
:1001D0002F7971F200C016B3012700FB25F92F73A8
:1001E00059F200C006B3102710FB26F9223040F266
:1001F00000C016B3012700FB27F9243028F64F77FB
:10020000206816B30000F9CF10E41ABF002717C00A
:100210003B503195C31BD04010E41ABF0881033C0A
:10022000E9F00B34D9F020918A001981110F1213D3
:10023000EDCF093641F10D3211F0013E39F700934F
:1002400092003F914F911F910F912F91DF91CAB76B
:10025000C6FD51CFCF91CFBFCF911895209192007D
:10026000222379F310919000112311F5343012F10B
:100270003093900020938B0010918C003BE0311B59
:1002800030938C0017C00091900001308CF40AE587
:1002900030918D0034FD10C000938D00CFE7D0E089
:1002A0000FC02795A8F45150A9F4220F0000F9CFF0
:1002B0004AE503C042ED01C0432FC4E1D0E032E083
:1002C00017B31360C09A17BB08B320E413E05F9321
:1002D000012756E008BB279520F4515021F4220F46
:1002E000F9CF012756E000003B5A08BBD0F2279512
:1002F00028F4515029F4220F0000F9CF012756E0CD
:10030000279508BB20F4515021F4220FF9CF012783
:1003100056E02991332308BB21F60C7F1091910000
:10032000110FC651D04008BB11F010938A0010E4A1
:100330001ABF016017B31C7F402F4C7F5F9100C034
:1003400000C008BB17BB48BB7CCFC598BD9ABB9803
:10035000C39A50E22AD05A95E9F7089527D028E0A9
:100360003327382780FB869522D02A95D1F730FB9A
:100370001ED01BD01AC020EC18D046F42A95E1F705
:1003800080E02AE113D02A95E9F70FC028E033274F
:1003900088270BD0869587F938272A95D1F705D07D
:1003A00027F932277AF301D000C06894E89416F454
:1003B000C39A01C0C39806D0C59AE6B3E3FB02D046
:1003C000C5980895E091AE00F091AF003197F0F735
:1003D000089518D084E2C2DFCEDF8D934A95D1F71D
:1003E000089510D083EFBADF8DE1B8DF84E6B6DF81
:1003F0008D91B4DF82E7B2DFBEDF8078D9F74A950E
:1004000089F70895AC0188E6A9DF842FA7DF89E684
:10041000A5DF852FA3CFBA01A901DBCFBA01A901BE
:10042000E0CFCF93DF9360919000635067FD90C061
:1004300080918C00CCE0D0E0C81BD109CC56DF4FB6
:1004400080918B008D3209F0BFC0683009F07EC00A
:1004500083EC80937F008AE580938D001092640086
:100460008881807671F0CE01CFD38F3F09F466C0CA
:100470009F81911169C09E81981708F065C0892FEE
:1004800063C02A8110928800998191110AC010924C
:10049000890028E830E082E030938F0020938E00BE
:1004A000E7CF953029F42093910028E830E0F4CF8D
:1004B000963099F59B81913059F488E390E09093C0
:1004C0008F0080938E0082E190E490936400D0CFFF
:1004D000923019F486E290E0F2CF9330A9F721111F
:1004E00008C084E790E090938F0080938E0084E0B2
:1004F000EBCF213041F488E590E090938F0080931A
:100500008E008CE1E1CF2230F9F68AE490E09093FE
:100510008F0080938E008EE0D7CF983059F09930BD
:1005200019F420939300C1CF81E09A3009F4BDCF34
:1005300080E0BBCF23E930E081E0AECF988197FD2A
:100540008E8190E8909364008093650010929000F3
:1005500080918D0084FF2BC0C0916500CF3F39F1A1
:100560006C2FC93008F068E08C2F861B80936500E3
:1005700080917F0098E8892780937F00CC2359F0F1
:100580002091640027FF32C080E890E06ED5C82F2C
:10059000893008F052C06C2F80E890E0A5DDCC5F78
:1005A000CC3019F08FEF80936500C0938D0084E10B
:1005B00096B3937031F48150D9F710929100109254
:1005C0008A00DF91CF9108958091640087FFBECFAC
:1005D000CE010ED78F3F21F48EE180938D00B6CFF0
:1005E000882309F4B3CF10926500B0CF80918E00BC
:1005F00090918F0026FF17C0FC01A0E8B0E0262FE5
:10060000280F34913D9331962E13FBCF2FEF260FF9
:1006100030E02F5F3F4F820F931F90938F008093A6
:100620008E00C62FB8CFA0E8B0E0FC01262F280F1F
:1006300031913D932E13FCCFE9CF8FEF809365006E
:10064000CEE1B3CF8AE580938D008FEF8093650074
:1006500085B7826085BF8BB780648BBF08958FB9E3
:10066000779BFECF8FB108958091AB008DB98091BB
:10067000AA008EB908951DB88823B1F0883078F1AA
:100680002FE233E030936800209367001092AA00B5
:1006900091E09093AC008B30D1F040F48930D9F0E8
:1006A000C0F48830D1F0E0CF8EE0EACF8D3049F051
:1006B00060F08E30C1F780E58093AB009093AA0084
:1006C000F2CF80E58093AB00EECF81E5F5CF81E5F9
:1006D000F9CF82E5F1CF82E5F5CF83E5F3CF25EDC4
:1006E00033E03093680020936700843091F030F459
:1006F000823099F0833079F080EC06C0863021F0AA
:1007000030F08730C9F783E08093AC0008958CE027
:10071000FBCF88E1F9CF80E3F7CF80E6F5CF0F93E9
:100720001F93CF93DF93C82FA6DF11E0DFE3C8301C
:1007300010F41FE0DAEFC3E0C29A812F19D2C298F9
:100740008D2F16D2E0916700F09168008CEA099530
:10075000E0916700F091680083E50995E0916700FA
:10076000F091680080E00995082FE0916700F09112
:10077000680080E00995033511F4882349F087E982
:100780009AE30197F1F700C00000C150A9F681E09B
:10079000DF91CF911F910F91089522B79091AC00F6
:1007A00082B7821B8917E0F308951F93CF93DF93DD
:1007B000182FC598D8E0C0E017FF13C0C39A110FD7
:1007C000ECDFC59AEADF86B382958170CC0FC82B27
:1007D000C598E3DFD15081F78C2FDF91CF911F9126
:1007E0000895C398ECCF87B38C6287BBBC98C2983E
:1007F000C59881E0BDD1C29A81E0BAD1C2988091FA
:100800006700909168008F52934009F42DDF8FEFBD
:1008100080936000089587B38C6287BB80916700E6
:10082000909168008F52934009F41EDF8FEF809300
:100830006000C29A089587B3837D87BB88B3837DA8
:1008400088BB1092750008950F931F93CF93DF9389
:1008500080916600882371F062DF811109C0909158
:10086000660090937500DF91CF911F910F910895CD
:100870001092660080917500C8E7D0E00C2F025FEF
:10088000882329F0DF91CF911F910F9148CFFE016E
:100890001491812F44DF811105C0109375001093CE
:1008A0006600E1CF21960C13F2CF109275008AE01A
:1008B000E2DE81E0D8CF0F931F938B019C01225081
:1008C0003109011511052640310550F5DC01CB0138
:1008D00021E1B695A795979587952A95D1F720910F
:1008E00060002817E9F080936000E0916700F091C4
:1008F00068008DE40995E0916700F091680080E060
:100900000995E0916700F091680080916000099579
:10091000E0916700F091680080E01F910F910994C9
:100920001F910F910895CF92DF92EF92FF926B018A
:100930007C01862F880F880F880F8870E0916700F0
:10094000F091680080620995D701C60129E0B6954B
:10095000A795979587952A95D1F7E0916700F09133
:1009600068000995D701C601B695A7959795879513
:10097000E0916700F09168000995E0916700F091BF
:10098000680080E0FF90EF90DF90CF900994CF92C5
:10099000DF92EF92FF926B017C018DDFC701B60100
:1009A000FF90EF90DF90CF90BECFCF92DF92EF928B
:1009B000FF92CF93DF936B017C01D42FC22F7BDF9B
:1009C0008C2D880F880F880F8870E0916700F09158
:1009D000680080640995D701C60129E0B695A795FE
:1009E000979587952A95D1F7E0916700F091680077
:1009F0000995D701C601B695A79597958795E0917A
:100A00006700F09168000995E0916700F091680037
:100A10008D2F0995C11108C080E0DF91CF91FF9023
:100A2000EF90DF90CF900895DF3F61F0CEE181E05D
:100A30009FD0C701B601ABDF8D1771F3C15041F4F0
:100A400081E0EBCFC701B601A2DF8F3F79F7E4CF9A
:100A5000C53168F784E0CB3058F382E0E9CFCF921C
:100A6000DF92EF92FF92CF936B017C0124DFE09144
:100A70006700F09168008CE40995D701C60129E070
:100A8000B695A795979587952A95D1F7E091670038
:100A9000F09168000995D701C601B695A79597957D
:100AA0008795E0916700F09168000995E0916700F3
:100AB000F091680080E00995C9E181E059D0C70153
:100AC000B60165DF8F3F81F4C15039F481E0CF91E9
:100AD000FF90EF90DF90CF900895C03170F784E0E1
:100AE000C63060F382E0EACF80E0F1CFCF93DF93AE
:100AF000EC01E0916700F091680080EA0995E091CF
:100B00006700F09168008D2F0995E0916700F091E2
:100B100068008C2F0995E0916700F091680080E0F3
:100B2000DF91CF9109941F93CF93DF93D82F192F83
:100B3000C62FE0916700F091680080EC0995E09184
:100B40006700F0916800812F0995E0916700F091AE
:100B500068008D2F0995E0916700F09168008C2F57
:100B600009958BE005D080E0DF91CF911F9108952A
:100B700022B792B7921B9C33E0F38150C9F70895D6
:100B8000262FFC0142815381052E000C660B770B4A
:100B900040937000509371006093720070937300E3
:100BA0008681978190936F0080936E0020937600EA
:100BB00008950F931F93522F2091740021110FC09D
:100BC000FC0102811381012E000C220B330B0093D8
:100BD0007000109371002093720030937300242FE3
:100BE00030E030936C0020936B0050FD40936D001B
:100BF000FC018681978190936F0080936E006093D3
:100C000076001F910F910895CF92DF92EF92FF929D
:100C10000F931F93CF938C01DC011196CC91119708
:100C2000C130E9F48091750026DD10927400A89817
:100C3000DADD0ADE80936A00882309F4C1C11092CC
:100C40006600F9DD80916A00809377008C2FCF9148
:100C50001F910F91FF90EF90DF90CF900895C233D6
:100C600039F48091750007DDA898D5DDC0E039C062
:100C7000C33379F4C298FC0182818093620086813B
:100C8000978190936F0080936E00C0937600CFEFB2
:100C900028C0C43389F4C29812968C91129780931D
:100CA000620016968D919C9190936F0080936E00D8
:100CB00082E380937600EBCFC63419F4A898F4D57C
:100CC000D5CFC73411F4F5D5D1CFC83411F403D63C
:100CD000CDCFCA3469F4FC0182810FD680937700AE
:100CE000C1E087E790E090938F0080938E00AECFB5
:100CF000CB3421F412968C912CD6F0CFCC3409F061
:100D00005DC0FC018381928190936100882309F486
:100D10004EC0823011F5C480D5800D2C000CEE0839
:100D2000FF08C0927000D0927100E0927200F092C1
:100D30007300BFD5C0916100C114D104B1E0EB06CE
:100D4000F10408F0CE608C2FD8D5882389F0C3D564
:100D50008EEF80937700C1E079CFC12CD12C760142
:100D60008130F9F61496CC90D12CF12CE12CD9CF0E
:100D7000C114D104E1E0EE06F10418F08D2DBDD5CB
:100D800007C0FFEFCF16D104E104F10409F0B0F77A
:100D90008C2DB3D58ED58C2F8160AFD5F80186818F
:100DA000978190936F0080936E0086E382CF81D508
:100DB00061E0D80112968C91F6D5F0CFCD34A9F52B
:100DC00013969C91139712968C91129780936100C1
:100DD0009923A1F014968C9114979230E1F4149613
:100DE0008D919C91092E000CAA0BBB0B8093700077
:100DF00090937100A0937200B0937300F801868104
:100E0000978190936F0080936E0085E380937600C6
:100E1000109269003CCF913021F490E0B0E0A0E066
:100E2000E5CF80E090E0DC01E1CFCD3549F41696C6
:100E30008D919C9190936F0080936E008AE339CFDF
:100E4000CC3549F4FC018681978190936F008093A3
:100E50006E0089E32ECFCE3541F4F1D5C82F813015
:100E600009F0AEC0809377003CCFCF3511F4F6D5B2
:100E700035CFCA3509F040C0A898A4D5D80112963C
:100E80008C91129713963C91139714962C9114976A
:100E900015969C9115978093700030937100209364
:100EA00072009093730016966C916F7197D5F8014C
:100EB00086818295869587708683882391F0ABD54D
:100EC00080937700D80116968C91823018F0A3D5C4
:100ED00080937800F8018681833018F09CD5809348
:100EE0007900D80116968C91843018F094D58093AF
:100EF0007A0072D5C4E0F5CEC23019F49CDCA99A10
:100F0000B5CEC33041F5E0916700F09168001296CC
:100F10008C91099580937700E0916700F0916800CB
:100F2000D80113968C91099580937800E091670021
:100F3000F0916800D80114968C91099580937900FE
:100F4000E0916700F0916800D80115968C910995A1
:100F500080937A00CFCF62E0C43009F476C063E0BA
:100F6000C73009F472C0C53011F46EDCB7CEC6309C
:100F700041F4FC0125812F70448161E0C80119DE34
:100F800086CEC83021F420E040E064E0F7CFC930DD
:100F900089F481E080937400F80182819381A481B7
:100FA000B5818093700090937100A0937200B0930C
:100FB00073005CCECA3039F412968C918093750020
:100FC000109277008DCEC43141F410927700809159
:100FD000750080937800C2E084CECB3089F4FC01A8
:100FE000828193819093AF008093AE00C29ABA9AA7
:100FF00083E0BEDDC298A89880E1BADDA6D936CEDE
:10100000CC3099F480ECAAD980E0A8D98AE0B0DD90
:10101000C29A85E0ADDDC29885E0AADD87B3837D05
:1010200087BB88B3837D88BB21CECD3011F4A3D993
:1010300055CECE3021F412968C9190D9C1CF65E077
:10104000CF3019F0C03121F466E0C80199DD1FCE20
:10105000CF3709F00BCE89E18093770081E8809348
:101060007800109279008FE073CFAF92BF92CF9249
:10107000DF92EF92FF920F931F93CF93DF93EC01D8
:10108000809176009EEF980F923048F0853039F0CD
:10109000833329F0893319F0863309F082C170E077
:1010A00000916E0010916F006017710708F48B01BA
:1010B000F02EA99880917600853061F5A801BE01D7
:1010C0008091700090917100A6D9809170009091EC
:1010D0007100A0917200B0917300800F911FA11D4B
:1010E000B11D8093700090937100A0937200B09333
:1010F000730080916E0090916F00801B910B909314
:101100006F0080936E00892B11F410927600A99ADB
:10111000A8984AC1833349F5EC2ECC2EDD2E8C2DB8
:101120008E198F15A8F080916E0090916F00801B32
:10113000910B90936F0080936E00892B41F7809103
:101140006200882311F3C29A24E02A95F1F7DDCFDB
:10115000E0916700F091680080E00995F6018193C5
:101160006F01F4E0FA95F1F7DACF8633A9F5D12CC7
:10117000C12C580181E0A81AB108CF1478F08091F1
:101180006E0090916F00801B910B90936F00809385
:101190006E00892B09F0BBCF9ED3B7CF81E0AC1492
:1011A000BD0409F080E0D5D38993809170009091BF
:1011B0007100A0917200B09173000196A11DB11D44
:1011C0008093700090937100A0937200B0937300AD
:1011D000EFEFCE1ADE0AD1CF8933F1F4EC2ECC2E0C
:1011E000DD2E8C2D8E198F1578F080916E009091E8
:1011F0006F00801B910B90936F0080936E00892B82
:1012000009F085CFE9D381CF06D4F60181936F0130
:10121000F4E0FA95F1F7E5CF823009F090C08091C3
:10122000700090917100A0917200B09173000197CD
:10123000A109B109800F911FA11DB11D0097A24006
:10124000B10508F07AC0EC2ECC2EDD2E8C2D8E1937
:101250008F1508F04ECF60917000709171008091F1
:101260007200909173005FDBF60181936F018091B2
:10127000700090917100A0917200B091730001967E
:10128000A11DB11D8093700090937100A093720016
:10129000B0937300DBCF609170007091710080910A
:1012A00072009091730007DB4091700050917100C3
:1012B0006091720070917300DF2CDE18DB01CA01AF
:1012C00088279927AE7F1296841B950BA60BB70B28
:1012D0004D2D50E070E060E0481759076A077B0722
:1012E00008F0D82E5E01AE0CB11CC12CCD1004C08C
:1012F000EC0CEF1480F2FDCE6091700070917100E3
:1013000080917200909173000EDBF50181935F0173
:101310008091700090917100A0917200B091730063
:101320000196A11DB11D8093700090937100A09350
:101330007200B0937300C394D9CFE12CDACF83301D
:1013400081F5EC2ECC2EDD2E8C2D8E198F1508F00C
:10135000D0CE8091700090917100A0917200B091F8
:1013600073008115E0E19E07A105B105C0F4BEDB65
:10137000F60181936F018091700090917100A091AE
:101380007200B09173000196A11DB11D8093700091
:1013900090937100A0937200B0937300D5CF8FEF3C
:1013A000E7CFA99AFF24FA948F2DDF91CF911F9157
:1013B0000F91FF90EF90DF90CF90BF90AF90089586
:1013C0000F931F93CF93DF93EC018C01060F111D38
:1013D000C017D10731F480E0DF91CF911F910F91B9
:1013E000089568E08991FAD2882391F381E0F4CFDF
:1013F0007F928F929F92AF92BF92CF92DF92EF92A5
:10140000FF920F931F93CF93DF93182F092F809193
:10141000760081110FC08FEFDF91CF911F910F9157
:10142000FF90EF90DF90CF90BF90AF909F908F9004
:101430007F900895813051F0982F9D7F943031F046
:10144000982F977F923311F0853329F770E0C09180
:101450006E00D0916F006C177D0708F4EB019C2E95
:10146000A998809176008630B1F5AE01612F702F7A
:101470008091700090917100D1D78091700090910F
:101480007100A0917200B09173008C0F9D1FA11D7F
:10149000B11D8093700090937100A0937200B0937F
:1014A000730080916E0090916F008C1B9D0B909348
:1014B0006F0080936E00892B11F410927600A99A28
:1014C000A89881E020916E0030916F00232B09F4E1
:1014D000A3CF80E0A1CFD12EE12EF02E823309F4EC
:1014E00068C0853309F0CEC06091700070917100C2
:1014F0008091720090917300D0E461157105B1E0A4
:101500008B07910508F0D0E8CD2ED12CF12CE12CE1
:10151000A7019601BFD2D61BD91508F49D2E809144
:101520006E0090916F009816190611F008F0982E31
:101530008091690081115DC0BCD1809161004091B2
:1015400070005091710060917200709173004115AC
:101550005105E1E06E07710548F09FE076956795CB
:10156000579547959A95D1F74E70842BC6D1811126
:1015700013C08091700090917100A0917200B091A1
:1015800073008F3F9105A105B10509F050F58091D9
:101590007000B3D1882351F19ED1109276008EEF66
:1015A0003BCFE0916700F0916800D7018D917D01FC
:1015B00009958E2D8D198915A0F380916E0090915B
:1015C0006F008C1B9D0B90936F0080936E00892B96
:1015D00009F075CF80916200882309F46ECFC29A1A
:1015E0006CCF892F8AD1882391F2D6CF81E0809366
:1015F0006900D12FA12EB02E19C0D5018D915D01AA
:101600007CD18111C9CF8091700090917100A0911F
:101610007200B09173000196A11DB11D80937000FE
:1016200090937100A0937200B09373008A2D8D1B6C
:10163000891518F380916E0090916F0089199109B6
:1016400090936F0080936E00892B81F06091700001
:10165000709171008091720090917300A7019601C2
:1016600019D2672B682B692B09F029CF34D1E7E910
:10167000FAE33197F1F700C0000080916E0090917D
:101680006F0019CF8A33A9F46C2F812F902F98DE29
:101690008111D4C080916E0090916F008C1B9D0BC6
:1016A00090936F0080936E00892B09F008CF94D13E
:1016B00004CF813089F0843009F0ADCE8091700084
:1016C00090917100A0917200B09173000097A140B9
:1016D000B10510F08CEFA0CE80916B0090916C0062
:1016E000C12CD12C7601009791F0CC24DD24C81AAE
:1016F000D90AF12CE12C4091700050917100609159
:10170000720070917300C422D522E622F722882449
:101710008394892B09F0812C712EA12EB02E8A2D55
:1017200087198915C0F080916E0090916F008C1B15
:101730009D0B90936F0080936E00892B09F0C9CEAA
:1017400080916B0090916C00009709F055C0109249
:10175000760081E061CED5014D915D0180917000F0
:1017600090917100A0917200B09173002091760069
:10177000213069F4282DBC01CD0117D9882351F0FF
:1017800080917600813009F0A5CF8BEF45CE642F94
:10179000CAD9F4CF80916B0090916C00892BC1F075
:1017A00080916D00815080936D00811111C0C7013F
:1017B000B60155D9882311F08AEF2ECE80916B00A7
:1017C00090916C00C80ED91EE11CF11C80936D0035
:1017D0008091700090917100A0917200B09173009F
:1017E0000196A11DB11D8093700090937100A0938C
:1017F0007200B093730093CF20916D0028171906E3
:1018000009F4A5CF00917000109171002091720031
:101810003091730001501109210931099195819589
:101820009109B0E0A0E0BC01CD01602371238223C7
:10183000932315D9882309F48ACFBECF8DEFECCD41
:1018400012BA18BA88B38C7F88BB87B3836087BB12
:101850002FEF37E582E0215030408040E1F700C0B3
:10186000000017BA93E094BBA29885B38C6385BB44
:10187000A8982FEF3FEA84E0215030408040E1F704
:1018800000C00000A89AA9982FEF3FEA84E02150F9
:1018900030408040E1F700C00000A99AA89893BFAB
:1018A000D1D67894BED5FECFBC98C49ABB98C39AC3
:1018B0000895BC98C49ABB98C39A84E18A95F1F7BD
:1018C000BC9AC49884E18A95F1F7BB9AC39884E1E5
:1018D0008A95F1F70895BB9AC398BC9AC49888E09A
:1018E0008A95F1F7BB98C39A88E08A95F1F7BC987E
:1018F000C49A84E18A95F1F7089598E0BB9AC39859
:1019000028E02A95F1F787FF21C0BC98C49A28E007
:101910002A95F1F7BB98C39A24E12A95F1F7880F2D
:10192000915061F7BB9AC398BC98C49A88E08A9595
:10193000F1F7BB98C39A24E12A95F1F786B3BB9AD5
:10194000C39882958F70809581700895BC9AC498D1
:10195000DECF282FBC98C49A98E080E0BB9AC39849
:1019600034E13A95F1F7BB98C39A34E13A95F1F72F
:10197000880FB4998160915089F7BB9AC39821115F
:101980000FC0BC9AC49898E09A95F1F7BB98C39A97
:1019900038E03A95F1F7BB9AC398BC98C49A089579
:1019A000BC98C49AF0CF880F613009F48160A5CF4C
:1019B000C598089587B38C6287BBBC98F9DFC3983C
:1019C000C2980895C298C598E8D6C29AC39AE5D637
:1019D000C59AE3D6C598E1C6C298EACFCF93DF9304
:1019E000D82F6150770BC1E001C0CC0F6A95EAF7A0
:1019F000C11104C080E0DF91CF910895D9DF8C2F11
:101A00008D2339F0C39AC9D6C59AC7D6D1DFC695FA
:101A1000EFCFC398F8CFCF93DF93D8E0C0E0C8DF13
:101A2000BCD6C59A86B382958170CC0FC82BB5D62B
:101A3000BFDFD150A1F78C2FDF91CF910895CF93C5
:101A4000B9DFC29A88E28A95F1F7A7D6C6B3C4DF98
:101A5000C295C17081E08C27CF910895CF93AADF02
:101A6000C29A88E28A95F1F768E080ECB7DFC0E0BF
:101A70009FDF93D6C59A91D6B49906C0CA5F98DF06
:101A8000ABDF8C2FCF91089593DFCF5FC73081F705
:101A9000CFEFF6CFA1E21A2EAA1BBB1BFD010DC092
:101AA000AA1FBB1FEE1FFF1FA217B307E407F5070E
:101AB00020F0A21BB30BE40BF50B661F771F881FEA
:101AC000991F1A9469F760957095809590959B0180
:0C1AD000AC01BD01CF010895F894FFCFD8
:041ADC00FFA0010066
:00000001FF
