:100000004BC0CCC064C063C062C061C060C05FC090
:100010005EC05DC05CC05BC05AC059C058C057C00C
:1000200056C055C054C009021200010100A01909B0
:10003000040000000000000012011001FF00000891
:10004000C016DC050701010200010E035500530034
:1000500042006100730070001C0377007700770096
:100060002E00660069007300630068006C002E00BB
:1000700064006500040309040D0C0B0A0908070657
:10008000050403020103060C183060C000010001E2
:10009000000050515152525311241FBECFE5D4E0FD
:1000A000DEBFCDBF10E0A0E6B0E0EEEFF8E102C0A9
:1000B00005900D92A436B107D9F720E0A4E6B0E090
:1000C00001C01D92A43BB207E1F7C7DA16CC98CF66
:1000D000C598BD9ABB98C39A50E22AD05A95E9F7C1
:1000E000089527D028E03327382780FB869522D033
:1000F0002A95D1F730FB1ED01BD01AC020EC18D0A7
:1001000046F42A95E1F780E02AE113D02A95E9F731
:100110000FC028E0332788270BD0869587F938272A
:100120002A95D1F705D027F932277AF301D000C0FC
:100130006894E89416F4C39A01C0C39806D0C59A8F
:10014000E6B3E3FB02D0C5980895E0918600F091F4
:1001500087003197F0F70895AC0188E6C2DF842F5D
:10016000C0DF89E6BEDF852FBCCFA82FB92F80E086
:1001700090E041E050EA609530E009C02D9182277F
:100180009795879510F084279527305EC8F36F5FA9
:10019000A8F30895EADF8D939D930895CF93CFB789
:1001A000CF93C395B09BE9F7B09B09C0B09B07C044
:1001B000B09B05C0B09B03C0B09B01C0A1C0DF9342
:1001C000C0919500DD27C356DF4FB09B02C0DF9181
:1001D000EBCF2F930F931F9306B32FEF00FB20F964
:1001E0004F933F9316B34FEF012700FB21F93BE0FC
:1001F00031C04E7F012F16B3216028C0102F4D7FD4
:100200002260000006B329C04B7F2460012F00004C
:1002100016B32BC016B3477F28602AC04F7E06B3A3
:1002200020612CC04F7D16B320622FC04F7B06B3D8
:10023000206432C0422706B349934FEF00001027D5
:1002400010FB20F916B31370C9F1297F91F2012731
:1002500000FB21F906B3237F89F2315058F11027B2
:1002600010FB22F916B3277E79F2012700FB23F950
:100270002F7C81F206B3102710FB24F92F7971F23D
:1002800000C016B3012700FB25F92F7359F200C0F7
:1002900006B3102710FB26F9223040F200C016B337
:1002A000012700FB27F9243028F64F77206816B382
:1002B0000000F9CF10E41ABF002717C03B5031955A
:1002C000C31BD04010E41ABF0881033CE9F00B3493
:1002D000D9F0209193001981110F1213EDCF093637
:1002E00041F10D3211F0013E39F700939B003F912F
:1002F0004F911F910F912F91DF91CAB7C6FD51CF3A
:10030000CF91CFBFCF91189520919B00222379F3F5
:1003100010919900112311F5343012F130939900A6
:1003200020939400109195003BE0311B3093950091
:1003300017C00091990001308CF40AE530919600C5
:1003400034FD10C000939600C8E8D0E00FC0279598
:10035000A8F45150A9F4220F0000F9CF4AE503C0D8
:1003600042ED01C0432FC4E1D0E032E017B3136087
:10037000C09A17BB08B320E413E05F93012756E04F
:1003800008BB279520F4515021F4220FF9CF012703
:1003900056E000003B5A08BBD0F2279528F4515094
:1003A00029F4220F0000F9CF012756E0279508BB5A
:1003B00020F4515021F4220FF9CF012756E0299162
:1003C000332308BB21F60C7F10919A00110FC65100
:1003D000D04008BB11F01093930010E41ABF0160E5
:1003E00017B31C7F402F4C7F5F9100C000C008BB3B
:1003F00017BB48BB7CCFCF93DF93609199006350CC
:1004000067FD90C080919500CCE0D0E0C81BD10979
:10041000C356DF4F809194008D3209F0BFC0683021
:1004200009F07EC083EC809388008AE58093960073
:10043000109264008881807671F0CE0192D38F3F54
:1004400009F466C09F81911169C09E81981708F0D8
:1004500065C0892F63C02A81109291009981911102
:100460000AC01092920021E930E082E030939800B7
:1004700020939700E7CF953029F420939A0021E943
:1004800030E0F4CF963099F59B81913059F488E3B0
:1004900090E0909398008093970082E190E490938D
:1004A0006400D0CF923019F486E290E0F2CF93301E
:1004B000A9F7211108C084E790E0909398008093F9
:1004C000970084E0EBCF213041F488E590E09093F1
:1004D0009800809397008CE1E1CF2230F9F68AE40E
:1004E00090E090939800809397008EE0D7CF98305B
:1004F00059F0993019F420939C00C1CF81E09A30D3
:1005000009F4BDCF80E0BBCF2CE930E081E0AECF75
:10051000988197FD8E8190E89093640080936500A8
:10052000109299008091960084FF2BC0C0916500C5
:10053000CF3F39F16C2FC93008F068E08C2F861B53
:10054000809365008091880098E8892780938800CF
:10055000CC2359F02091640027FF32C089E890E055
:100560001CD5C82F893008F052C06C2F89E890E064
:1005700011DECC5FCC3019F08FEF80936500C09313
:10058000960084E196B3937031F48150D9F71092BC
:100590009A0010929300DF91CF91089580916400AA
:1005A00087FFBECFCE0174D68F3F21F48EE18093BA
:1005B0009600B6CF882309F4B3CF10926500B0CF70
:1005C000809197009091980026FF17C0FC01A9E840
:1005D000B0E0262F280F34913D9331962E13FBCF98
:1005E0002FEF260F30E02F5F3F4F820F931F909326
:1005F000980080939700C62FB8CFA9E8B0E0FC011F
:10060000262F280F31913D932E13FCCFE9CF8FEF8A
:1006100080936500CEE1B3CF8AE5809396008FEF9B
:100620008093650085B7826085BF8BB780648BBF80
:1006300008958FB9779BFECF8FB1089580916700A1
:100640008DB9809166008EB90895811105C08091A1
:100650006100811101C08DE09FEF980F9D30D0F0B7
:100660008DE080937C0029E133E030936A00209391
:10067000690091E0909368008D508630F0F4E2E9D3
:10068000F0E0E491E0936700ECE8F0E0E491E093BF
:100690006600D4CF80937C00883028F72DEA33E0C1
:1006A00030936A00209369008750873060F4E5E852
:1006B000F0E0E491E0936800089581E5809367009D
:1006C00090936600E6CF80E38093680008950F93CF
:1006D0001F93CF93DF93C82FB8DF11E0DFE3C8305B
:1006E00010F41FE0DAEFC3E0C29A812FC7D1C2989D
:1006F0008D2FC4D1E0916900F0916A008CEA0995D0
:10070000E0916900F0916A0083E50995E091690044
:10071000F0916A0080E00995082FE0916900F0915E
:100720006A0080E00995033511F4882349F087E9D0
:100730009AE30197F1F700C00000C150A9F681E0EB
:10074000DF91CF911F910F91089522B7909168008A
:1007500082B7821B8917E0F308951F93CF93DF932D
:10076000182FC598D8E0C0E017FF13C0C39A110F27
:10077000ECDFC59AEADF86B382958170CC0FC82B77
:10078000C598E3DFD15081F78C2FDF91CF911F9176
:100790000895C398ECCF87B38C6287BBBC98C2988E
:1007A000C59881E06BD1C29A81E068D1C2988091EE
:1007B000690090916A008951934009F43FDF8FEFFF
:1007C00080936000089587B38C6287BB8091690035
:1007D00090916A008951934009F430DF8FEF809344
:1007E0006000C29A089587B3837D87BB88B3837DF9
:1007F00088BB0895FF920F931F93CF93DF93E8E791
:10080000F0E0C49180916C00882371F0C0917C006D
:100810008C2F5DDF811116C0C0936100DF91CF91F5
:100820001F910F91FF90089580916100882351F0EE
:100830004EDF811105C09091610090937C00EECF56
:100840001092610008E710E08DE0F82EF00EF8013C
:10085000D491CD1748F08D2F3ADF811105C0D09388
:100860007C00D0936100DACF0F5F1F4FF012EFCF03
:1008700081E0D4CFCF93C82FC695809160008C17AC
:10088000D9F0C0936000E0916900F0916A008DE4B6
:100890000995E0916900F0916A0080E00995E09186
:1008A0006900F0916A008C2F0995E0916900F09140
:1008B0006A0080E0CF910994CF910895CF93DF93A0
:1008C000EC01880F880F880F8870E0916900F09123
:1008D0006A0080620995E0916900F0916A008D2FAD
:1008E00086950995CE0196958795E0916900F091DE
:1008F0006A000995E0916900F0916A0080E0DF915B
:10090000CF9109940F931F93CF93DF938C01D62F30
:10091000C42F880F880F880F8870E0916900F091CC
:100920006A0080640995E0916900F0916A00812F66
:1009300086950995C80196958795E0916900F09193
:100940006A000995E0916900F0916A008D2F099580
:10095000C11106C080E0DF91CF911F910F910895E2
:10096000C801ACDFC0E18D17A9F381E087D0C801D1
:10097000A5DF8D1779F3C15011F481E0ECCFCB30B6
:10098000A0F784E0C83090F382E0F0CF0F931F937C
:10099000CF938C01E0916900F0916A008CE4099595
:1009A000E0916900F0916A00812F86950995C80150
:1009B00096958795E0916900F0916A000995E0911C
:1009C0006900F0916A0080E00995C9E181E056D0A4
:1009D000C80174DF8F3F71F4C15029F481E0CF91D9
:1009E0001F910F910895C03188F784E0C63078F3E5
:1009F00082E0EDCF80E0F3CFCF93DF93EC01E09185
:100A00006900F0916A0080EA0995E0916900F0912F
:100A10006A008D2F0995E0916900F0916A008C2F92
:100A20000995E0916900F0916A0080E0DF91CF9133
:100A300009941F93CF93DF93D82F192FC62FE091DE
:100A40006900F0916A0080EC0995E0916900F091ED
:100A50006A00812F0995E0916900F0916A008D2F5D
:100A60000995E0916900F0916A008C2F09958CE05E
:100A700005D080E0DF91CF911F91089522B792B702
:100A8000921B9C33E0F38150C9F70895262F3091D3
:100A90006B0031110FC0FC0142815381052E000C07
:100AA000660B770B409378005093790060937A003F
:100AB00070937B00FC0186819781909377008093EF
:100AC000760020937D000895FC01828193819093AC
:100AD0007300809372008481809374008581809379
:100AE00071008681978190937700809376001092B1
:100AF000700060937D0008950F931F93CF93DF9351
:100B0000EB018A0129DB0C0F1D1FC017D10729F447
:100B1000DF91CF911F910F91089584E2E2DAEEDA2E
:100B20008993F3CF0F931F93CF93DF93EB018A0148
:100B300013DB0C0F1D1FC017D10729F4DF91CF91D4
:100B40001F910F91089583EFCCDA8DE1CADA84E624
:100B5000C8DA8991C6DA82E7C4DAD0DA87FDFBCF3A
:100B6000EACFEF92FF920F931F93CF93DF938C0105
:100B7000EEE7F0E088E0DF011D928A95E9F7F801E1
:100B8000C181C13009F580917C005FDD10926B005E
:100B9000A89801DE2FDE80936D00882319F023DEF4
:100BA0001092610080916D0080937E008EE790E04E
:100BB00090939800809397008C2FDF91CF911F9195
:100BC0000F91FF90EF900895C23339F480917C002B
:100BD0003CDDA898F8DDC0E0E9CFC33371F4C298DA
:100BE00082818093620086819781909377008093C1
:100BF0007600C0937D00CFEFD9CFC43371F4C29893
:100C000082818093620086819781909377008093A0
:100C1000760082E380937D00EECFC63419F4A89865
:100C200050D5D9CFC93411F451D5D5CFCA3411F428
:100C30005FD5D1CFCC3429F482816CD580937E00EE
:100C400061C0CB3419F4828191D5F8CFC734F9F45F
:100C50003DD560E0D80112968C91B2D5F80185811E
:100C600080FF02C0848156D5D80113968C9152D54D
:100C70002DD561E0F8018281A3D5D80116968D911A
:100C80009C91909377008093760086E3C3CFC8341D
:100C900001F51CD560E0F801828192D5D801159646
:100CA0008C911597C82F80FF03C014968C9132D574
:100CB000F80183812FD5C695C170C093B300D801C8
:100CC00016968D919C91909377008093760085E3A2
:100CD000A1CFCD3429F4828187FF14C081E0AECF4B
:100CE0006AE3CD3519F0CC3521F469E3C801ECDEB7
:100CF00082CFCE3549F4D3D591E0811101C090E087
:100D000090937E00C1E052CFCF3511F4D7D596CF66
:100D1000CA3581F5A89865D5D80112966D917D9157
:100D20008D919C91159760937800709379008093D2
:100D30007A0090937B0016964C914F7159D5F8012B
:100D4000C681C295C695C770C6838EE7E82E80E03F
:100D5000F82E10E0C11711F0143031F447D5C5302A
:100D600008F424CFC4E022CF80D5D7018D937D0134
:100D70001F5FF0CFC23019F436DDA99A2CCFC330F3
:100D800089F5E0916900F0916A00D80112968C9182
:100D9000099580937E00E0916900F0916A00D80186
:100DA00013968C91099580937F00E0916900F091F2
:100DB0006A00D80114968C91099580938000E09187
:100DC0006900F0916A00D80115968C91099580937D
:100DD0008100109282001092830010928400109281
:100DE0008500C0CFC53011F405DD28CF62E0C430E6
:100DF00009F4C3C063E0C73009F4BFC0C63041F591
:100E000080916B0081110EC082819381092E000CAC
:100E1000AA0BBB0B8093780090937900A0937A0083
:100E2000B0937B00D80114968C91149715969C91E1
:100E3000159780936E0090936F00809375001696BF
:100E40008D919C91909377008093760081E0E2CE23
:100E5000C83001F580916B0081110EC082819381B1
:100E6000092E000CAA0BBB0B80937800909379009D
:100E7000A0937A00B0937B0010926F0010926E00E6
:100E8000D80116968D919C9190937700809376006F
:100E900084E0C0CEC93099F481E080936B00628118
:100EA0007381848195816093780070937900809339
:100EB0007A0090937B00DEDC10927E0023CFCA3054
:100EC00061F4828180937C00811103C010926C00D8
:100ED00019CF81E080936C0015CFC131B1F48091BE
:100EE0007C0080937F0080916100809380008091DE
:100EF00068008093810080916000809382008091DF
:100F00007D0080938300C6E051CECB3091F4828186
:100F10009381909387008093860010926B00C29A11
:100F2000BA9A83E0ABDDC298A89880E1A7DDD0D85B
:100F300052CECC3099F480ECD4D880E0D2D88AE07C
:100F40009DDDC29A85E09ADDC29885E097DD87B382
:100F5000837D87BB88B3837D88BB3DCECD3011F4C4
:100F6000CDD86CCECE3019F48281BBD8A5CF65E048
:100F7000CF3019F0C03121F466E0C80187DD3BCEE7
:100F8000CF3709F028CE83E180937E0081E88093FB
:100F90007F008FEC80938100E5CE7F928F929F92AD
:100FA000AF92BF92CF92DF92EF92FF920F931F9377
:100FB000CF93DF938C0180917D009EEF980F92304C
:100FC00048F0853039F0833329F0893319F08633BE
:100FD00009F04CC170E0E0907600F09077006E155B
:100FE0007F0508F47B01BE2CA99880917D00853097
:100FF00061F5A701B80180917800909179007CDDBE
:101000008091780090917900A0917A00B0917B0056
:101010008E0D9F1DA11DB11D8093780090937900C6
:10102000A0937A00B0937B00809176009091770036
:101030008E199F099093770080937600892B11F485
:1010400010927D00A99AA89814C1833321F5C80194
:1010500009C0EC01E0916900F0916A0080E0099517
:101060008993CE01282F201B2B1598F380917600B1
:10107000909177008E199F09909377008093760066
:10108000892B01F7809162008823D1F2C29A84E013
:101090008A95F1F7D5CF863339F5C0907600D09098
:1010A0007700CE14DF0408F47601BE2CE6018C2D07
:1010B0008C1B8B1558F0CE18DF08D0927700C092A9
:1010C0007600CD2809F0BECF13D3BACF21974801BF
:1010D0009FEF891A990A81E0209709F080E046D3B2
:1010E000F80180838401E3CF893309F04BC08091FC
:1010F0007000811125C0809171008370846090E040
:10110000B0E0A0E02091740004C0880F991FAA1FCE
:10111000BB1F2A95D2F78090720090907300B12C7B
:10112000A12C882A992AAA2ABB2A5BD34091740051
:101130004D5FC501B4015CD3ACD381E080937000F6
:10114000C0907600D0907700EC14FD0408F467019D
:10115000BC2CC801282F201B2B1578F0809176001D
:10116000909177008C199D09909377008093760079
:10117000892B09F067CF3AD363CFEC0176D38993FB
:10118000CE01E8CF823009F047C08090780090907F
:101190007900A0907A00B0907B00C0917600D09149
:1011A0007700EC16FD0608F4E7017C2EC501B401BA
:1011B00061DB750164017A948FEF78121CC08C0E8C
:1011C0009D1EA11CB11C8092780090927900A09283
:1011D0007A00B0927B0080917600909177008C1B12
:1011E0009D0B9093770080937600892B11F41092D9
:1011F0007D00BC2E27CFC60161DBF80181938F01F2
:10120000FFEFCF1ADF0AEF0AFF0AC114D10499F6E3
:10121000C701B6012FDBCFCF833041F5C0917600F7
:10122000D0917700EC16FD0608F4E701FC2EFA9445
:10123000FFEFFF1681F28091780090917900A091E4
:101240007A00B0917B00AC01BD014F5F5F4F6F4FE3
:101250007F4F409378005093790060937A007093A9
:101260007B00CADBF80181938F01E1CFA99ABB24EF
:10127000BA948B2DDF91CF911F910F91FF90EF903A
:10128000DF90CF90BF90AF909F908F907F90089508
:101290008F929F92AF92BF92CF92DF92EF92FF9286
:1012A0001F93CF93DF93EC0180917D00882309F495
:1012B000D2C1813059F0982F9D7F943039F0982F0A
:1012C000977F923319F0853309F0C5C170E0E09043
:1012D0007600F09077006E157F0508F47B01A998E1
:1012E00010917D001630B9F5A701BE0180917800FC
:1012F0009091790017DC8091780090917900A0910D
:101300007A00B0917B008E0D9F1DA11DB11D8093B1
:10131000780090937900A0937A00B0937B0080913D
:101320007600909177008E199F09909377008093B3
:101330007600892B41F110E0A99AA898812FDF91BE
:10134000CF911F91FF90EF90DF90CF90BF90AF9023
:101350009F908F900895123319F51E2DCE01282FDE
:101360002C1B211798F080917600909177008E19B0
:101370009F099093770080937600892BE1F6809106
:1013800062008111C29A10927D00D5CFE091690070
:10139000F0916A00DC018D916D010995C601DFCFE6
:1013A000153339F5C0907600D0907700EC14FD0429
:1013B00008F467011C2DCE01282F2C1B211798F053
:1013C00080917600909177008C199D099093770019
:1013D00080937600892B09F0AECF8091B3008823EB
:1013E00091F286D1D0CFFC0181917F0193D1C701C9
:1013F000E3CF1A3309F04FC080917000811124C0EF
:10140000809171008370846090E0B0E0A0E0209152
:10141000740004C0880F991FAA1FBB1F2A95D2F71A
:101420008090720090907300B12CA12C882A992A88
:10143000AA2ABB2AD6D1409174004D5FC501B401E0
:10144000D7D181E080937000C0907600D090770073
:10145000EC14FD0408F467011C2DCE01282F2C1B71
:10146000211778F080917600909177008C199D0972
:101470009093770080937600892B09F05CCFB6D1EA
:1014800082CFDC016D917D0170E090E080E048E06A
:10149000AFD1C701E3CF113009F0A3C0809078002D
:1014A00090907900A0907A00B0907B00C501B401C3
:1014B000E1D980916E0090916F006E01CE0CDF1C1F
:1014C000892B09F44FC0CC16DD0609F44EC040E06C
:1014D0006991C40117DA81112EC0FFEF8F1A9F0A9C
:1014E000AF0ABF0A80917500815080937500811109
:1014F00070C080916E0090916F00919581959109D7
:101500009401215031098223932340DA882309F47E
:101510005CC010927D008092780090927900A09239
:101520007A00B0927B001AEF07CF41E06991C401C5
:10153000E9D9882361F010927D0080927800909222
:101540007900A0927A00B0927B001BEFF5CEEFEF0E
:101550008E1A9E0AAE0ABE0A8114910419F4C501BE
:10156000B40188D9CC15DD0501F7809278009092FE
:101570007900A0927A00B0927B00809176009091E1
:1015800077008E199F099093770080937600892BBE
:1015900009F0D1CE10927D0080916E0090916F0085
:1015A000009709F4C9CE209175002817190609F48F
:1015B000C3CE21E0821A91089195819591098821E5
:1015C0009921E4D98111AFCFB7CE80916E0080937D
:1015D00075008114910409F076CFC501B4014AD990
:1015E00072CF6E01CE0CDF1C143009F11FEFA4CEB8
:1015F000699180917800909179001BDA882321F01D
:1016000010927D001CEF98CE809178009091790027
:10161000A0917A00B0917B000196A11DB11D80932D
:10162000780090937900A0937A00B0937B00CC155A
:10163000DD05F1F680917600909177008E199F0973
:101640009093770080937600892B09F074CE1092E6
:101650007D0011E071CE1FEF71CE12BA18BA88B3B7
:101660008C7F88BB87B3836087BB2FE93EE482E031
:10167000215030408040E1F700C0000017BA93E0ED
:1016800094BBA29885B38C6385BBA8982FE936EAF2
:1016900084E0215030408040E1F700C00000A89A6B
:1016A000A9982FE936EA84E0215030408040E1F7E4
:1016B00000C00000A99AA89893BFAED778949BD693
:1016C000FECFBC98C49ABB98C39A0895BC98C49A9C
:1016D000BB98C39A80E18A95F1F7BC9AC49880E1DF
:1016E0008A95F1F7BB9AC39880E18A95F1F708953E
:1016F000BB9AC398BC9AC49888E08A95F1F7BB98C6
:10170000C39A88E08A95F1F7BC98C49A80E18A95DB
:10171000F1F7089598E0BB9AC39828E02A95F1F76D
:1017200087FF21C0BC98C49A28E02A95F1F7BB989E
:10173000C39A20E12A95F1F7880F915061F7BB9A7F
:10174000C398BC98C49A88E08A95F1F7BB98C39A6D
:1017500020E12A95F1F786B3BB9AC39882958F70E2
:10176000809581700895BC9AC498DECF282FBC98CC
:10177000C49A98E080E0BB9AC39830E13A95F1F7BB
:10178000BB98C39A30E13A95F1F7880FB49981601C
:10179000915089F7BB9AC39821110FC0BC9AC49885
:1017A00098E09A95F1F7BB98C39A38E03A95F1F72B
:1017B000BB9AC398BC98C49A0895BC98C49AF0CFB9
:1017C000880F613009F48160A5CFC59A0895C59846
:1017D000089587B38C6287BBBC98F9DFC398C29821
:1017E0000895C298C598B1D7C29AAFC7C298EFCF33
:1017F0008F929F92AF92BF92CF92DF92EF92FF9221
:101800004B015C014150550BC12CD12C7601C39486
:1018100004C0CC0CDD1CEE1CFF1C4A95D2F7C11491
:10182000D104E104F10451F480E0FF90EF90DF90E7
:10183000CF90BF90AF909F908F900895C8DFD70151
:10184000C60188219921AA21BB21892B8A2B8B2BA8
:1018500051F0C39A7AD7B9DF78D7B9DFF694E79415
:10186000D794C794DCCFC398F5CFCF93DF93D8E05C
:10187000C0E0ADDF6AD7A9DF86B382958170CC0F57
:10188000C82B63D7A4DFD150A1F78C2FDF91CF9164
:1018900008959DDF5AD799DF58D786B398CFCF9355
:1018A00098DFC29A88E28A95F1F74FD7C6B39EDFD8
:1018B000C295C17081E08C27CF910895CF9389DFC5
:1018C000C29A88E28A95F1F748E060EC70E080E027
:1018D00090E08EDFC0E07BDF38D777DF36D7B49972
:1018E00006C0CA5F74DF82DF8C2FCF9108956FDF4F
:0E18F000CF5FC73081F7CFEFF6CFF894FFCF70
:0418FE00FF0D0100D9
:00000001FF
