:1000000043C077C05CC05BC05AC059C058C057C01D
:1000100056C055C054C053C052C051C050C04FC04C
:100020004EC04DC04CC009021200010100A01909C8
:10003000040000000000000012011001FF00000891
:10004000C016DC050701010200010E035500530034
:1000500042006100730070001C0377007700770096
:100060002E00660069007300630068006C002E00BB
:100070006400650004030904100F0E0D0C0B0A093F
:10008000080706050403020111241FBECFE5D4E0D2
:10009000DEBFCDBF10E0A0E6B0E0ECEDFBE102C0BA
:1000A00005900D92A636B107D9F720E0A6E6B0E09C
:1000B00001C01D92A43BB207E1F747DC8DCDA0CF74
:1000C000A82FB92F80E090E041E050EA609530E041
:1000D00009C02D9182279795879510F08427952741
:1000E000305EC8F36F5FA8F30895EADF8D939D93A8
:1000F0000895CF93CFB7CF93C395B09BE9F7B09B4B
:1001000009C0B09B07C0B09B05C0B09B03C0B09BAB
:1001100001C0A1C0DF93C0919000DD27C856DF4F1A
:10012000B09B02C0DF91EBCF2F930F931F9306B3C9
:100130002FEF00FB20F94F933F9316B34FEF0127AA
:1001400000FB21F93BE031C04E7F012F16B3216047
:1001500028C0102F4D7F2260000006B329C04B7FBE
:100160002460012F000016B32BC016B3477F286010
:100170002AC04F7E06B320612CC04F7D16B320628B
:100180002FC04F7B06B3206432C0422706B3499389
:100190004FEF0000102710FB20F916B31370C9F1C0
:1001A000297F91F2012700FB21F906B3237F89F211
:1001B000315058F1102710FB22F916B3277E79F23F
:1001C000012700FB23F92F7C81F206B3102710FBD7
:1001D00024F92F7971F200C016B3012700FB25F92D
:1001E0002F7359F200C006B3102710FB26F92230F6
:1001F00040F200C016B3012700FB27F9243028F68F
:100200004F77206816B30000F9CF10E41ABF00271B
:1002100017C03B503195C31BD04010E41ABF088172
:10022000033CE9F00B34D9F020918E001981110FB5
:100230001213EDCF093641F10D3211F0013E39F7BD
:10024000009396003F914F911F910F912F91DF9155
:10025000CAB7C6FD51CFCF91CFBFCF91189520918E
:100260009600222379F310919400112311F5343074
:1002700012F13093940020938F00109190003BE096
:10028000311B3093900017C00091940001308CF422
:100290000AE53091910034FD10C000939100C3E84D
:1002A000D0E00FC02795A8F45150A9F4220F000008
:1002B000F9CF4AE503C042ED01C0432FC4E1D0E0CD
:1002C00032E017B31360C09A17BB08B320E413E001
:1002D0005F93012756E008BB279520F4515021F485
:1002E000220FF9CF012756E000003B5A08BBD0F29D
:1002F000279528F4515029F4220F0000F9CF012747
:1003000056E0279508BB20F4515021F4220FF9CF75
:10031000012756E02991332308BB21F60C7F109169
:100320009500110FC651D04008BB11F010938E00FC
:1003300010E41ABF016017B31C7F402F4C7F5F9100
:1003400000C000C008BB17BB48BB7CCFC598BD9A96
:10035000BB98C39A50E22AD05A95E9F7089527D05E
:1003600028E03327382780FB869522D02A95D1F7BD
:1003700030FB1ED01BD01AC020EC18D046F42A95B2
:10038000E1F780E02AE113D02A95E9F70FC028E0D1
:10039000332788270BD0869587F938272A95D1F7F8
:1003A00005D027F932277AF301D000C06894E89489
:1003B00016F4C39A01C0C39806D0C59AE6B3E3FB0E
:1003C00002D0C5980895E091B200F091B300319742
:1003D000F0F7089518D084E2C2DFCEDF8D934A95FE
:1003E000D1F7089510D083EFBADF8DE1B8DF84E64E
:1003F000B6DF8D91B4DF82E7B2DFBEDF8078D9F758
:100400004A9589F70895AC0188E6A9DF842FA7DF14
:1004100089E6A5DF852FA3CFBA01A901DBCFBA01F9
:10042000A901E0CFCF93DF9360919400635067FD03
:1004300090C080919000CCE0D0E0C81BD109C85694
:10044000DF4F80918F008D3209F0BFC0683009F016
:100450007EC083EC809383008AE5809391001092A4
:1004600066008881807671F0CE010FD48F3F09F449
:1004700066C09F81911169C09E81981708F065C080
:10048000892F63C02A8110928C00998191110AC032
:1004900010928D002CE830E082E03093930020939E
:1004A0009200E7CF953029F4209395002CE830E0B6
:1004B000F4CF963099F59B81913059F488E390E020
:1004C000909393008093920082E190E49093660071
:1004D000D0CF923019F486E290E0F2CF9330A9F7B2
:1004E000211108C084E790E09093930080939200DC
:1004F00084E0EBCF213041F488E590E090939300C5
:10050000809392008CE1E1CF2230F9F68AE490E00A
:1005100090939300809392008EE0D7CF983059F05B
:10052000993019F420939700C1CF81E09A3009F4F3
:10053000BDCF80E0BBCF27E930E081E0AECF98812E
:1005400097FD8E8190E890936600809367001092EB
:1005500094008091910084FF2BC0C0916700CF3F31
:1005600039F16C2FC93008F068E08C2F861B80931E
:1005700067008091830098E8892780938300CC23CB
:1005800059F02091660027FF32C084E890E047D5FB
:10059000C82F893008F052C06C2F84E890E0A5DDA8
:1005A000CC5FCC3019F08FEF80936700C09391003F
:1005B00084E196B3937031F48150D9F7109295008D
:1005C00010928E00DF91CF9108958091660087FF91
:1005D000BECFCE014DD78F3F21F48EE180939100A5
:1005E000B6CF882309F4B3CF10926700B0CF8091C3
:1005F00092009091930026FF17C0FC01A4E8B0E0A0
:10060000262F280F34913D9331962E13FBCF2FEFD9
:10061000260F30E02F5F3F4F820F931F9093930080
:1006200080939200C62FB8CFA4E8B0E0FC01262F3B
:10063000280F31913D932E13FCCFE9CF8FEF80939C
:100640006700CEE1B3CF8AE5809391008FEF80936E
:10065000670085B7826085BF8BB780648BBF0895C4
:100660008FB9779BFECF8FB108958091AF008DB980
:100670008091AE008EB908951DB88823B1F08830FE
:10068000C8F120E333E030936A00209369001092B0
:10069000AE0091E09093B0008C3031F170F489306D
:1006A00029F128F4883021F1E0CF80E1EACF8A30C7
:1006B000A1F08B30C9F783E505C0803140F48E305E
:1006C00060F081E58093AF009093AE00EDCF803174
:1006D00059F780E58093AF00E7CF82E58093AF00C4
:1006E00081E08093AE00E0CF81E5F4CF82E5F2CFE8
:1006F00083E5F0CF20EE33E030936A002093690069
:10070000843091F030F4823099F0833079F080ECCD
:1007100006C0863021F030F08730C9F783E080933F
:10072000B00008958CE0FBCF88E1F9CF80E3F7CFEC
:1007300080E6F5CF0F931F93CF93DF93C82F9CDFF5
:1007400011E0DFE3C83010F41FE0DAEFC3E0C29A33
:10075000812F08D2C2988D2F05D2E0916900F091C7
:100760006A008CEA0995E0916900F0916A0083E5DE
:100770000995E0916900F0916A0080E00995082FE1
:10078000E0916900F0916A0080E00995033511F469
:10079000882349F087E99AE30197F1F700C0000048
:1007A000C150A9F681E0DF91CF911F910F9108957B
:1007B00022B79091B00082B7821B8917E0F30895A9
:1007C0001F93CF93DF93182FC598D8E0C0E017FF91
:1007D00013C0C39A110FECDFC59AEADF86B3829586
:1007E0008170CC0FC82BC598E3DFD15081F78C2FD7
:1007F000DF91CF911F910895C398ECCF87B38C629E
:1008000087BBBC98C298C59881E0ACD1C29A81E000
:10081000A9D1C2988091690090916A008053934059
:1008200009F423DF8FEF80936000089587B38C6213
:1008300087BB8091690090916A008053934009F4CE
:1008400014DF8FEF80936000C29A089587B3837D91
:1008500087BB88B3837D88BB1092790008950F937E
:100860001F93CF93DF9380916800882371F062DF3C
:10087000811109C09091680090937900DF91CF9128
:100880001F910F9108951092680080917900C8E738
:10089000D0E00C2F005F882329F0DF91CF911F91CA
:1008A0000F9148CFFE011491812F44DF811105C0C3
:1008B0001093790010936800E1CF21960C13F2CFCA
:1008C000109279008AE0D8DE81E0D8CF04976115D4
:1008D00071058440910500F5809160008130E1F060
:1008E00081E080936000E0916900F0916A008DE4FE
:1008F0000995E0916900F0916A0080E00995E09126
:100900006900F0916A00809160000995E0916900AA
:10091000F0916A0080E009940895CF92DF92EF92FF
:10092000FF926B017C01862F880F880F880F8870DB
:10093000E0916900F0916A0080620995D701C601D3
:1009400029E0B695A795979587952A95D1F7E091D7
:100950006900F0916A000995D701C601B695A7957F
:1009600097958795E0916900F0916A000995E0916B
:100970006900F0916A0080E0FF90EF90DF90CF90E7
:100980000994CF92DF92EF92FF926B017C019EDF80
:10099000C701B601FF90EF90DF90CF90BECFCF920E
:1009A000DF92EF92FF92CF93DF936B017C01D42F04
:1009B000C22F8CDF8C2D880F880F880F8870E091F4
:1009C0006900F0916A0080640995D701C60129E0A9
:1009D000B695A795979587952A95D1F7E0916900E7
:1009E000F0916A000995D701C601B695A79597952C
:1009F0008795E0916900F0916A000995E09169009E
:100A0000F0916A008D2F0995C11108C080E0DF9137
:100A1000CF91FF90EF90DF90CF900895DF3F61F08E
:100A2000CEE181E09FD0C701B601ABDF8D1771F336
:100A3000C15041F481E0EBCFC701B601A2DF8F3F87
:100A400079F7E4CFC53168F784E0CB3058F382E022
:100A5000E9CFCF92DF92EF92FF92CF936B017C01AF
:100A600035DFE0916900F0916A008CE40995D701C7
:100A7000C60129E0B695A795979587952A95D1F750
:100A8000E0916900F0916A000995D701C601B69519
:100A9000A79597958795E0916900F0916A0009956F
:100AA000E0916900F0916A0080E00995C9E181E078
:100AB00059D0C701B60165DF8F3F81F4C15039F4C9
:100AC00081E0CF91FF90EF90DF90CF900895C031FB
:100AD00070F784E0C63060F382E0EACF80E0F1CFC7
:100AE000CF93DF93EC01E0916900F0916A0080EA16
:100AF0000995E0916900F0916A008D2F0995E091C8
:100B00006900F0916A008C2F0995E0916900F091DD
:100B10006A0080E0DF91CF9109941F93CF93DF9318
:100B2000D82F192FC62FE0916900F0916A0080EC50
:100B30000995E0916900F0916A00812F0995E09193
:100B40006900F0916A008D2F0995E0916900F0919C
:100B50006A008C2F09958BE005D080E0DF91CF9162
:100B60001F91089522B792B7921B9C33E0F38150F6
:100B7000C9F70895262FFC0142815381052E000CF0
:100B8000660B770B4093740050937500609376006A
:100B900070937700868197819093730080937200A1
:100BA00020937A000895C298FB019281909364008B
:100BB00026813781309373002093720080937A00EE
:100BC00008950F931F93522F2091780021110FC089
:100BD000FC0102811381012E000C220B330B0093C8
:100BE0007400109375002093760030937700242FC3
:100BF00030E03093700020936F0050FD40937100FF
:100C0000FC018681978190937300809372006093BA
:100C10007A001F910F9108950F931F93FC01838118
:100C200091E0811101C090E090936D0080936C0081
:100C3000928190936200882381F08230E1F40481F4
:100C40001581012E000C220B330B009374001093BE
:100C5000750020937600309377008681978190937A
:100C600073008093720060937A008FEFFA018083A3
:100C70001F910F91089500E010E09801813029F74D
:100C8000048110E030E020E0E0CFCF92DF92FF92CD
:100C90000F931F93CF93DF930F92CDB7DEB78C01E5
:100CA0001982DC0111968C9111978130A1F4809109
:100CB0007900E2DC10927800A898A0DDD0DD809366
:100CC0006E00882319F0C2DD1092680080916E00DA
:100CD00080937B004BC08233A9F480917900CCDCF7
:100CE000A898A4DD8BE790E0909393008093920006
:100CF00089810F90DF91CF911F910F91FF90DF902D
:100D0000CF900895B801833319F0843321F482E33E
:100D10004ADF8FEF3AC1853311F484E3F9CF86348B
:100D200019F4A89846D6DECF893411F447D6DACF25
:100D30008A3411F455D6D6CF8C3461F48091630097
:100D400090E08E7F3BD6F80182815CD649D6109226
:100D50007B000CC08B3461F480916300816090E073
:100D60002DD680E07BD680937B003AD681E00DC102
:100D7000873449F410926100AE014F5F5F4F66E324
:100D8000C8014ADFAFCF883459F414968C91809310
:100D9000610010926B00AE014F5F5F4F65E3F0CFD3
:100DA0008D3449F4F801828187FD03C0809363008C
:100DB000CECF81E08DCF8D3559F416968D919C91D3
:100DC00090937300809372008AE380937A00A1CF9E
:100DD0008C3549F4F8018681978190937300809354
:100DE000720089E3F2CF8E3541F4A9D691E08111EA
:100DF00001C090E090937B00B9CF8F3511F4AED64F
:100E000067CF8A35C1F5A8985DD6D80112968C9126
:100E1000129713963C91139714962C91149715964C
:100E20009C91159780937400309375002093760001
:100E30009093770016966C916F7150D6F801F680FA
:100E4000F294F69447E0F422F6825BE7C52E50E078
:100E5000D52E10E0F11611F0143039F43DD68F2D57
:100E6000853008F492C084E090C055D6D6018D93A9
:100E70006D011F5FEFCF823019F4E8DCA99A32CF01
:100E8000833041F5E0916900F0916A0012968C91EF
:100E9000099580937B00E0916900F0916A00D80188
:100EA00013968C91099580937C00E0916900F091F4
:100EB0006A00D80114968C91099580937D00E09189
:100EC0006900F0916A00D80115968C91099580937C
:100ED0007E00C9CF62E0843009F491C063E08730BE
:100EE00009F48DC0853011F4BADCF2CE863041F4BD
:100EF000F80125812F70448161E0C80162DE09CFCD
:100F0000883021F420E040E064E0F7CF8930E9F454
:100F100013962C91139712966C91129770E090E0B3
:100F200080E0CB0177276627922B14962C9114979B
:100F3000622B15962C91722B61157105B2E08B070F
:100F4000910508F404CFC2DC02CF8A3029F4F801FD
:100F5000828180937900FBCE8131C9F410927B00AD
:100F60008091790080937C008091680080937D005F
:100F70008091B00080937E008091600080937F001C
:100F800080917A008093800086E08983ABCE8B309D
:100F900089F412968D919C919093B3008093B20046
:100FA000C29ABA9A83E0DEDDC298A89880E1DADDC1
:100FB000CDD998CE8C3099F480ECD1D980E0CFD9BE
:100FC0008AE0D0DDC29A85E0CDDDC29885E0CADD39
:100FD00087B3837D87BB88B3837D88BB83CE8D3009
:100FE00011F4CAD975CE8E3021F4F8018281B7D9B7
:100FF000AECE65E08F3019F0803121F466E0C80193
:10100000B9DD87CE8F3709F06DCE83E180937B0009
:1010100081E880937C0010927D008FEC58CFAF92D6
:10102000BF92CF92DF92EF92FF920F931F93CF93D5
:10103000DF93EC0180917A009EEF980F923048F098
:10104000853039F0833329F0893319F0863309F07C
:10105000D2C170E0009172001091730060177107A7
:1010600008F48B01F02EA99880917A00853061F503
:10107000A801BE018091740090917500CDD9809136
:10108000740090917500A0917600B0917700800F68
:10109000911FA11DB11D8093740090937500A093C2
:1010A0007600B09377008091720090917300801B5E
:1010B000910B9093730080937200892B11F410921E
:1010C0007A00A99AA8987FC0833349F5EC2ECC2EDC
:1010D000DD2E8C2D8E198F15A8F0809172009091C5
:1010E0007300801B910B9093730080937200892B87
:1010F00041F780916400882311F3C29A24E02A9575
:10110000F1F7DDCFE0916900F0916A0080E0099588
:10111000F60181936F01F4E0FA95F1F7DACF8633A7
:1011200009F084C080916B00811132C0E0906200B0
:10113000D0906C0080916D00882389F080917400BC
:1011400090917500A0917600B09177002FE0B69550
:10115000A795979587952A95D1F78E70E82A2ED472
:101160008E2D50D4811159C0DD2049F08091750039
:1011700049D481E08D1518F48091740043D41ED4B5
:101180008E2D81603FD4811148C081E080936B0037
:10119000D12CC12C5801E1E0AE1AB108CF14F8F0FF
:1011A0008091720090917300801B910B909373005B
:1011B00080937200892B39F413D410927A00109224
:1011C0006D0010926B008F2DDF91CF911F910F91C9
:1011D000FF90EF90DF90CF90BF90AF90089581E0A7
:1011E000AC14BD0409F080E039D489938091740077
:1011F00090917500A0917600B09177000196A11DA5
:10120000B11D8093740090937500A0937600B09305
:101210007700FFEFCF1ADF0AC1CFE2D310927A0036
:1012200010926D0010926B00F12CCDCF8933F1F448
:10123000EC2ECC2EDD2E8C2D8E198F1578F0809112
:10124000720090917300801B910B909373008093B8
:101250007200892B09F035CF3FD431CF5CD4F60131
:1012600081936F01F4E0FA95F1F7E5CF823009F050
:1012700090C08091740090917500A0917600B0911B
:1012800077000197A109B109800F911FA11DB11D20
:101290000097A240B10508F07AC0EC2ECC2EDD2ECE
:1012A0008C2D8E198F1508F0FECE60917400709110
:1012B000750080917600909177002FDBF601819385
:1012C0006F018091740090917500A0917600B091AB
:1012D00077000196A11DB11D809374009093750055
:1012E000A0937600B0937700DBCF6091740070918B
:1012F00075008091760090917700E8DA4091740053
:10130000509175006091760070917700DF2CDE18A7
:10131000DB01CA0188279927AE7F1296841B950BA3
:10132000A60BB70B4D2D50E070E060E04817590751
:101330006A077B0708F0D82E5E01AE0CB11CC12CE9
:10134000CD1004C0EC0CEF1480F2ADCE60917400AF
:10135000709175008091760090917700DEDAF5014A
:1013600081935F018091740090917500A091760047
:10137000B09177000196A11DB11D809374009093E8
:101380007500A0937600B0937700C394D9CFE12C79
:10139000DACF833081F5EC2ECC2EDD2E8C2D8E19FC
:1013A0008F1508F080CE8091740090917500A09107
:1013B0007600B09177008115E0E19E07A105B105A7
:1013C000C0F48EDBF60181936F01809174009091DF
:1013D0007500A0917600B09177000196A11DB11D16
:1013E0008093740090937500A0937600B09377007B
:1013F000D5CF8FEFE7CFA99AFF24FA94E4CE6115F9
:10140000710522E08207910598F46115710521E0CC
:101410008207910578F4611520E87207810591052E
:1014200058F4611570448105910540F080E10895FC
:1014300080E8089580E4089580E2089588E00895A2
:101440000F931F93CF93DF93EC018C01060F111DB7
:10145000C017D10731F480E0DF91CF911F910F9138
:10146000089568E089913AD3882391F381E0F4CF1D
:101470004F925F926F927F928F929F92AF92BF92A4
:10148000CF92DF92EF92FF920F931F93CF93DF9350
:10149000F82EE92E80917A00882309F452C2813017
:1014A00059F0982F9D7F943039F0982F977F923381
:1014B00019F0853309F045C270E000917200109177
:1014C00073006017710708F48B01902EA998D091D2
:1014D0007A00D63009F03FC0A8016F2D7E2D809193
:1014E0007400909175009BD7809174009091750065
:1014F000A0917600B0917700800F911FA11DB11DC2
:101500008093740090937500A0937600B093770059
:101510008091720090917300801B910B90937300E7
:1015200080937200892B11F410927A00C0E0A99A7E
:10153000A8988C2FDF91CF911F910F91FF90EF9082
:10154000DF90CF90BF90AF909F908F907F906F90E3
:101550005F904F900895D23301F5DF2CCF2DDE2D13
:101560008C2F8D19891590F08091720090917300E5
:10157000801B910B9093730080937200892BB1F6BE
:1015800080916400882381F2C29ACECFE0916900F5
:10159000F0916A0089910995E3CFD43361F55FD961
:1015A000E0916900F0916A008CEA0995E091690088
:1015B000F0916A0080E80995E0916900F0916A0075
:1015C00080E00995E0916900F0916A0080E009955A
:1015D0002FE58AEE90E0215080409040E1F700C076
:1015E000000081E080937B008BE790E09093930074
:1015F0008093920099CFD53309F0D8C080916D00C7
:10160000DF2CCF2DDE2D882309F4A8C080916B003C
:10161000811132C0D3D18091620040917400509109
:101620007500609176007091770041155105E1E0F9
:101630006E07710548F09FE0769567955795479539
:101640009A95D1F74E70842BDDD18111A6C080917F
:10165000740090917500A0917600B091770000978A
:10166000F1E0AF07B10510F0892FCCD18091740063
:10167000C9D181E080936B00409074005090750058
:101680006090760070907700C301B201B8DEC82F79
:10169000882E912CB12CA12CC301B201A50194017B
:1016A00079D2C61BD0E020917200309173000217EE
:1016B000130708F498018E012C173D0708F48901DF
:1016C000D02ECF2CCF2DDE2D8C2F8C198D1550F1D7
:1016D0008091720090917300801B910B9093730026
:1016E00080937200892B81F0609174007091750075
:1016F0008091760090917700A50194014BD2672BE1
:10170000682B692B09F012CF6BD187E99AE3019717
:10171000F1F700C000008091720090917300892B56
:1017200091F104CF89916ED1811137C080917400FD
:1017300090917500A0917600B09177000196A11D5F
:10174000B11D8093740090937500A0937600B093C0
:101750007700BACF899156D1811126C08C2F8D196F
:101760008915C0F38091720090917300801B910BDA
:101770009093730080937200892B09F0D7CE8091EB
:101780006100811108C010927A0010926D001092D1
:101790006B00C1E0CCCE24D1BECF22D110927A0012
:1017A00010926D0010926B00CEEFC1CEDA33C1F40F
:1017B000602F8F2D9E2D44DEC82F8111C4C08091D3
:1017C000720090917300801B910B90937300809333
:1017D0007200892B09F0AACE7FD110927A00A7CE91
:1017E000D13029F0CCEFD43019F0CFEFA0CECBEF31
:1017F0008F2CAF2CBE2C8A2D8819891598F08091DA
:10180000720090917300801B910B909373008093F2
:101810007200892B09F08ACED13009F464C010928D
:101820007A00B7CFF50141915F01809174009091EA
:101830007500A0917600B0917700D130B9F521E024
:1018400060916F0070917000672B09F020E0BC017F
:10185000CD01A5D881116BCE80916F009091700061
:10186000009741F1409174005091750060917600AD
:101870007091770020917100215020937100211107
:1018800019C0919581959109B0E0A0E06C017D01AE
:10189000C422D522E622F722C701B60117D8C70114
:1018A000B601D7D88823D1F0CAEF41CE642F35D9FD
:1018B00081113DCE8091740090917500A0917600C9
:1018C000B09177000196A11DB11D80937400909393
:1018D0007500A0937600B09377008DCF80916F0054
:1018E00080937100E7CF20916F0030917000211537
:1018F000310509F494CF809171008217130609F421
:101900008ECFC0907400D0907500E0907600F0907B
:101910007700F1E0CF1AD108E108F108319521955F
:101920003109C901B0E0A0E0C222D922EA22FB229B
:10193000C701B601CBD7C701B6018BD88111B4CF8F
:101940006ECFCFEFF6CDCDEFF4CD12BA18BA88B383
:101950008C7F88BB87B3836087BB2FE93EE482E03E
:10196000215030408040E1F700C0000017BA93E0FA
:1019700094BBA29885B38C6385BBA8982FE936EAFF
:1019800084E0215030408040E1F700C00000A89A78
:10199000A9982FE936EA84E0215030408040E1F7F1
:1019A00000C00000A99AA89893BF4DD678943AD564
:1019B000FECFBC98C49ABB98C39A0895BC98C49AA9
:1019C000BB98C39A84E18A95F1F7BC9AC49884E1E4
:1019D0008A95F1F7BB9AC39884E18A95F1F7089547
:1019E000BB9AC398BC9AC49888E08A95F1F7BB98D3
:1019F000C39A88E08A95F1F7BC98C49A84E18A95E5
:101A0000F1F7089598E0BB9AC39828E02A95F1F77A
:101A100087FF21C0BC98C49A28E02A95F1F7BB98AB
:101A2000C39A24E12A95F1F7880F915061F7BB9A88
:101A3000C398BC98C49A88E08A95F1F7BB98C39A7A
:101A400024E12A95F1F786B3BB9AC39882958F70EB
:101A5000809581700895BC9AC498DECF282FBC98D9
:101A6000C49A98E080E0BB9AC39834E13A95F1F7C4
:101A7000BB98C39A34E13A95F1F7880FB499816025
:101A8000915089F7BB9AC39821110FC0BC9AC49892
:101A900098E09A95F1F7BB98C39A38E03A95F1F738
:101AA000BB9AC398BC98C49A0895BC98C49AF0CFC6
:101AB000C598089587B38C6287BBBC98F9DFC3983B
:101AC000C2980895C298C59873D6C29AC39A70D620
:101AD000C59A6ED6C5986CC6C298EACFCF93DF93ED
:101AE000D82F6150770BC1E001C0CC0F6A95EAF79F
:101AF000C11104C080E0DF91CF910895D9DF8C2F10
:101B00008D2339F0C39A54D6C59A52D6D1DFC695E3
:101B1000EFCFC398F8CFCF93DF93D8E0C0E0C8DF12
:101B200047D6C59A86B382958170CC0FC82B40D614
:101B3000BFDFD150A1F78C2FDF91CF910895CF93C4
:101B4000B9DFC29A88E28A95F1F732D6C6B3C4DF0C
:101B5000C295C17081E08C27CF910895CF93AADF01
:101B6000C29A88E28A95F1F768E080ECB7DFC0E0BE
:101B70009FDF1ED6C59A1CD6B49906C0CA5F98DFEF
:101B8000ABDF8C2FCF91089593DFCF5FC73081F704
:101B9000CFEFF6CFA1E21A2EAA1BBB1BFD010DC091
:101BA000AA1FBB1FEE1FFF1FA217B307E407F5070D
:101BB00020F0A21BB30BE40BF50B661F771F881FE9
:101BC000991F1A9469F760957095809590959B017F
:0C1BD000AC01BD01CF010895F894FFCFD7
:061BDC00FF01A0FF010063
:00000001FF
