:1000000042C076C05BC05AC059C058C057C056C025
:1000100055C054C053C052C051C050C04FC04EC054
:100020004DC04CC04BC009021200010100A01909CB
:10003000040000000000000012011001FF00000891
:10004000C016DC050701010200010E035500530034
:1000500042006100730070001C0377007700770096
:100060002E00660069007300630068006C002E00BB
:1000700064006500040309040E0D0C0B0A0908074F
:1000800006050403020111241FBECFE5D4E0DEBF44
:10009000CDBF10E0A0E6B0E0E2E3FBE102C00590D6
:1000A0000D92A436B107D9F720E0A4E6B0E001C074
:1000B0001D92A23BB207E1F7D4DB39CDA1CFA82F27
:1000C000B92F80E090E041E050EA609530E009C04F
:1000D0002D9182279795879510F084279527305E7C
:1000E000C8F36F5FA8F30895EADF8D939D93089599
:1000F000CF93CFB7CF93C395B09BE9F7B09B09C01F
:10010000B09B07C0B09B05C0B09B03C0B09B01C0B3
:10011000A1C0DF93C0918D00DD27CB56DF4FB09B90
:1001200002C0DF91EBCF2F930F931F9306B32FEFF6
:1001300000FB20F94F933F9316B34FEF012700FBCD
:1001400021F93BE031C04E7F012F16B3216028C05A
:10015000102F4D7F2260000006B329C04B7F246022
:10016000012F000016B32BC016B3477F28602AC0AA
:100170004F7E06B320612CC04F7D16B320622FC086
:100180004F7B06B3206432C0422706B349934FEF3A
:100190000000102710FB20F916B31370C9F1297F56
:1001A00091F2012700FB21F906B3237F89F2315038
:1001B00058F1102710FB22F916B3277E79F2012798
:1001C00000FB23F92F7C81F206B3102710FB24F9E2
:1001D0002F7971F200C016B3012700FB25F92F73A8
:1001E00059F200C006B3102710FB26F9223040F266
:1001F00000C016B3012700FB27F9243028F64F77FB
:10020000206816B30000F9CF10E41ABF002717C00A
:100210003B503195C31BD04010E41ABF0881033C0A
:10022000E9F00B34D9F020918B001981110F1213D2
:10023000EDCF093641F10D3211F0013E39F700934F
:1002400093003F914F911F910F912F91DF91CAB76A
:10025000C6FD51CFCF91CFBFCF911895209193007C
:10026000222379F310919100112311F5343012F10A
:100270003093910020938C0010918D003BE0311B56
:1002800030938D0017C00091910001308CF40AE585
:1002900030918E0034FD10C000938E00C0E8D0E095
:1002A0000FC02795A8F45150A9F4220F0000F9CFF0
:1002B0004AE503C042ED01C0432FC4E1D0E032E083
:1002C00017B31360C09A17BB08B320E413E05F9321
:1002D000012756E008BB279520F4515021F4220F46
:1002E000F9CF012756E000003B5A08BBD0F2279512
:1002F00028F4515029F4220F0000F9CF012756E0CD
:10030000279508BB20F4515021F4220FF9CF012783
:1003100056E02991332308BB21F60C7F10919200FF
:10032000110FC651D04008BB11F010938B0010E4A0
:100330001ABF016017B31C7F402F4C7F5F9100C034
:1003400000C008BB17BB48BB7CCFC598BD9ABB9803
:10035000C39A50E22AD05A95E9F7089527D028E0A9
:100360003327382780FB869522D02A95D1F730FB9A
:100370001ED01BD01AC020EC18D046F42A95E1F705
:1003800080E02AE113D02A95E9F70FC028E033274F
:1003900088270BD0869587F938272A95D1F705D07D
:1003A00027F932277AF301D000C06894E89416F454
:1003B000C39A01C0C39806D0C59AE6B3E3FB02D046
:1003C000C5980895E091B000F091B1003197F0F731
:1003D000089518D084E2C2DFCEDF8D934A95D1F71D
:1003E000089510D083EFBADF8DE1B8DF84E6B6DF81
:1003F0008D91B4DF82E7B2DFBEDF8078D9F74A950E
:1004000089F70895AC0188E6A9DF842FA7DF89E684
:10041000A5DF852FA3CFBA01A901DBCFBA01A901BE
:10042000E0CFCF93DF9360919100635067FD90C060
:1004300080918D00CCE0D0E0C81BD109CB56DF4FB6
:1004400080918C008D3209F0BFC0683009F07EC009
:1004500083EC809380008AE580938E001092640084
:100460008881807671F0CE01FBD38F3F09F466C09E
:100470009F81911169C09E81981708F065C0892FEE
:1004800063C02A8110928900998191110AC010924B
:100490008A0029E830E082E03093900020938F00BA
:1004A000E7CF953029F42093920029E830E0F4CF8B
:1004B000963099F59B81913059F488E390E09093C0
:1004C000900080938F0082E190E490936400D0CFFD
:1004D000923019F486E290E0F2CF9330A9F721111F
:1004E00008C084E790E09093900080938F0084E0B0
:1004F000EBCF213041F488E590E090939000809319
:100500008F008CE1E1CF2230F9F68AE490E09093FD
:10051000900080938F008EE0D7CF983059F09930BB
:1005200019F420939400C1CF81E09A3009F4BDCF33
:1005300080E0BBCF24E930E081E0AECF988197FD29
:100540008E8190E8909364008093650010929100F2
:1005500080918E0084FF2BC0C0916500CF3F39F1A0
:100560006C2FC93008F068E08C2F861B80936500E3
:100570008091800098E8892780938000CC2359F0EF
:100580002091640027FF32C081E890E0A9D5C82FF0
:10059000893008F052C06C2F81E890E0A5DDCC5F77
:1005A000CC3019F08FEF80936500C0938E0084E10A
:1005B00096B3937031F48150D9F710929200109253
:1005C0008B00DF91CF9108958091640087FFBECFAB
:1005D000CE01E9D68F3F21F48EE180938E00B6CF15
:1005E000882309F4B3CF10926500B0CF80918F00BB
:1005F0009091900026FF17C0FC01A1E8B0E0262FE3
:10060000280F34913D9331962E13FBCF2FEF260FF9
:1006100030E02F5F3F4F820F931F909390008093A5
:100620008F00C62FB8CFA1E8B0E0FC01262F280F1D
:1006300031913D932E13FCCFE9CF8FEF809365006E
:10064000CEE1B3CF8AE580938E008FEF8093650073
:1006500085B7826085BF8BB780648BBF08958FB9E3
:10066000779BFECF8FB10895DC01CB0121E1B695D8
:10067000A795979587952A95D1F72091AD002817D2
:10068000D9F08093AD00E0916700F09168008DE4AF
:100690000995E0916700F091680080E00995E0918C
:1006A0006700F09168008091AD000995E0916700C6
:1006B000F091680080E0099408958091AC008DB9B4
:1006C0008091AB008EB908951DB88823B1F08830B1
:1006D00078F12FE233E030936800209367001092A6
:1006E000AB0091E09093AE008B30D1F040F48930B4
:1006F000D9F0C0F48830D1F0E0CF8CE0EACF8D3073
:1007000049F060F08E30C1F780E58093AC009093A3
:10071000AB00F2CF80E58093AC00EECF81E5F5CF62
:1007200081E5F9CF82E5F1CF82E5F5CF83E5F3CF1F
:1007300020EC33E03093680020936700843091F020
:1007400030F4823099F0833079F080EC06C0863046
:1007500021F030F08730C9F783E08093AE00089530
:100760008CE0FBCF88E1F9CF80E3F7CF80E6F5CFCF
:1007700022B79091AE0082B7821B8917E0F30895EB
:100780001F93CF93DF93182FC598D8E0C0E017FFD1
:1007900013C0C39A110FECDFC59AEADF86B38295C6
:1007A0008170CC0FC82BC598E3DFD15081F78C2F17
:1007B000DF91CF911F910895C398ECCF87B38C62DE
:1007C00087BBBC98C298C59881E0FED1C29A81E0EF
:1007D000FBD1C29880916700909168008F5293403E
:1007E00009F46BDF8FEF8093AD00089587B38C62BF
:1007F00087BB80916700909168008F52934009F405
:100800005CDF8FEF8093AD00C29A089587B3837D3C
:1008100087BB88B3837D88BB109276000895CF9301
:10082000C82F809160008C1731F06C2F80E190E030
:100830006DD9C0936000CF91089580E190E05ED9BA
:100840009FEF980F9E3018F48093660008951092E1
:1008500066000895DF92EF92FF920F931F93CF935C
:10086000DF93809166008823C9F12EDFD3E0C29A1E
:100870008AE0AAD1C29884E6A7D1E0916700F091FE
:1008800068008CEA0995E0916700F091680083E5C3
:100890000995E0916700F091680080E00995182FB4
:1008A000E0916700F091680080E00995C82F13354A
:1008B00079F481110DC080916600809376008C2FB1
:1008C000DF91CF911F910F91FF90EF90DF900895EE
:1008D0008AE07AD1D15059F61092660008E710E00C
:1008E0009EE0E92EE00EF801D4918D2FEDDE83E03D
:1008F000F82EC29A8AE068D1C29884E665D1E09168
:100900006700F09168008CEA0995E0916700F0912A
:10091000680083E50995E0916700F091680080E048
:100920000995D82EE0916700F091680080E0099564
:10093000C82FF3E5DF1209C0811107C0D0937600FC
:10094000D09366008D2F6BDFBACF8AE03DD1FA9449
:10095000F110CFCF0F5F1F4FE012C5CF109276007E
:1009600089E0B2DEC1E0ABCFCF92DF92EF92FF928F
:100970006B017C01DC01CB0112970097A640B10509
:1009800010F4C70171DE8C2D880F880F880F8870D6
:10099000E0916700F091680080620995D701C60177
:1009A00029E0B695A795979587952A95D1F7E09177
:1009B0006700F09168000995D701C601B695A79523
:1009C00097958795E0916700F09168000995E0910F
:1009D0006700F091680080E0FF90EF90DF90CF908B
:1009E0000994CF92DF92EF92FF92CF93DF936B0146
:1009F0007C01D42FC22FDC01CB0112970097A640B7
:100A0000B10510F4C70130DE8C2D880F880F880FD8
:100A10008870E0916700F091680080640995E0912A
:100A20006700F0916800D701C60129E0B695A79547
:100A3000979587952A95D1F70995E0916700F091F0
:100A40006800D701C601B695A79597958795099532
:100A5000E0916700F09168008D2F0995C11108C0E1
:100A600080E0DF91CF91FF90EF90DF90CF900895DD
:100A7000DF3F61F0CEE181E0A7D0C701B60174DFAE
:100A80008D1771F3C15041F481E0EBCFC701B6017E
:100A90006BDF8F3F79F7E4CFC53168F784E0CB3067
:100AA00058F382E0E9CFCF92DF92EF92FF92CF939B
:100AB0006B017C01DC01CB0112970097A640B105C8
:100AC00010F4C701D1DDE0916700F09168008CE47B
:100AD0000995E0916700F0916800D701C60129E00F
:100AE000B695A795979587952A95D1F70995E091A1
:100AF0006700F0916800D701C601B695A795979554
:100B000087950995E0916700F091680080E009956C
:100B1000C9E181E059D0C701B60126DF8F3F81F4DA
:100B2000C15039F481E0CF91FF90EF90DF90CF90EA
:100B30000895C03170F784E0C63060F382E0EACFF8
:100B400080E0F1CFCF93DF93EC01E0916700F0916B
:100B5000680080EA0995E0916700F09168008D2FA8
:100B60000995E0916700F09168008C2F0995E0915C
:100B70006700F091680080E0DF91CF9109941F93A6
:100B8000CF93DF93D82F192FC62FE0916700F091F4
:100B9000680080EC0995E0916700F0916800812F72
:100BA0000995E0916700F09168008D2F0995E0911B
:100BB0006700F09168008C2F09958BE005D080E0EC
:100BC000DF91CF911F91089522B792B7921B9C336A
:100BD000E0F38150C9F70895262FFC01428153812B
:100BE000052E000C660B770B40937100509372003A
:100BF0006093730070937400868197819093700066
:100C000080936F002093770008950F931F93522FC6
:100C10002091750021110FC0FC0102811381012E6A
:100C2000000C220B330B0093710010937200209381
:100C3000730030937400242F30E030936C002093C5
:100C40006B0050FD40936E00FC018681978190936C
:100C5000700080936F00609377001F910F9108954B
:100C6000CF92DF92EF92FF920F931F93CF938C015D
:100C7000DC011196CC911197C13089F480917600F6
:100C800023DD10927500A89899DDE4DD809378004B
:100C900088E790E09093900080938F0081C0C233EA
:100CA00039F48091760010DDA898A0DDC0E0F0CF87
:100CB000C33379F4C298FC018281809363008681FA
:100CC00097819093700080936F00C0937700CFEF6F
:100CD000DFCFC43389F4C29812968C911297809317
:100CE000630016968D919C919093700080936F0095
:100CF00082E380937700EBCFC63419F4A898E6D549
:100D0000D5CFC73411F4E7D5D1CFC83411F4F5D518
:100D1000CDCFCA3439F4FC01828101D680937800AA
:100D2000C1E0B6CFCB3421F412968C9124D6F6CF05
:100D3000CC3409F06FC0FC01838191E0811101C0C6
:100D400090E090936A00D80112969C91129790932C
:100D50006200882309F458C0823059F51496CD906A
:100D6000DC900D2C000CEE08FF08C0927100D092B0
:100D70007200E0927300F0927400ADD5C0916200F1
:100D8000C114D104F1E0EF06F10408F0CE608C2F1D
:100D9000C6D58823C9F0B1D58EEF80937800C1E025
:100DA0008C2FCF911F910F91FF90EF90DF90CF90FC
:100DB0000895C12CD12C76018130B9F6F801C48098
:100DC000D12CF12CE12CD1CFC114D10481E0E80663
:100DD000F10418F08D2DA3D507C0AFEFCA16D104CA
:100DE000E104F10409F0B0F78C2D99D574D58C2F5E
:100DF000816095D5D80116968D919C919093700045
:100E000080936F0086E375CF66D561E0F80182813B
:100E1000DCD5F0CFCD34E1F5FC01938181E0911177
:100E200001C080E080936A00D80112968C911297DD
:100E30008093620014968C9114978093610099239B
:100E400081F09230D9F415969C91092E000CAA0BD2
:100E5000BB0B8093710090937200A0937300B093CA
:100E60007400F801868197819093700080936F00E1
:100E700085E3809377001092690029CF913021F4A7
:100E800090E0B0E0A0E0E5CF80E090E0DC01E1CFD1
:100E9000CD3571F414968C91149780936D0016964D
:100EA0008D919C919093700080936F008AE321CF85
:100EB000CC3561F4FC01848180936D00868197813B
:100EC0009093700080936F0089E313CFCE3541F487
:100ED000C8D5C82F813009F0AEC080937800D8CE35
:100EE000CF3511F4CDD51ACFCA3509F040C0A89836
:100EF0007BD5D80112968C91129713963C9113973B
:100F000014962C91149715969C91159780937100C7
:100F100030937200209373009093740016966C9136
:100F20006F716ED5F801868182958695877086836C
:100F3000882391F082D580937800D80116968C9101
:100F4000823018F07AD580937900F8018681833059
:100F500018F073D580937A00D80116968C9184305E
:100F600018F06BD580937B0049D5C4E091CEC23098
:100F700019F44CDCA99A9ACEC33041F5E091670090
:100F8000F091680012968C91099580937800E09119
:100F90006700F0916800D80113968C9109958093B1
:100FA0007900E0916700F0916800D80114968C9167
:100FB000099580937A00E0916700F0916800D8016C
:100FC00015968C91099580937B00CFCF62E0C43059
:100FD00009F476C063E0C73009F472C0C53011F47B
:100FE00039DC9CCEC63041F4FC0125812F70448150
:100FF00061E0C8010ADE6BCEC83021F420E040E099
:1010000064E0F7CFC93089F481E080937500F8017E
:1010100082819381A481B581809371009093720045
:10102000A0937300B093740041CECA3039F4129685
:101030008C91809376001092780072CEC43141F486
:10104000109278008091760080937900C2E020CEE3
:10105000CB3089F4FC01828193819093B10080931D
:10106000B000C29ABA9A83E0AFDDC298A89880E136
:10107000ABDD6BD91BCECC3099F480EC6FD980E01E
:101080006DD98AE0A1DDC29A85E09EDDC29885E037
:101090009BDD87B3837D87BB88B3837D88BB06CE0A
:1010A000CD3011F468D93ACECE3021F412968C911D
:1010B00055D9C1CF65E0CF3019F0C03121F466E0D9
:1010C000C8018ADD04CECF3709F0F0CD89E18093E5
:1010D000780081E88093790010927A008FE073CFD6
:1010E000AF92BF92CF92DF92EF92FF920F931F9336
:1010F000CF93DF93EC01809177009EEF980F9230B1
:1011000048F0853039F0833329F0893319F086337C
:1011100009F045C170E000916F00109170006017F8
:10112000710708F48B01F02EA99880917700853023
:1011300059F5A801BE0180917100909172006BD9A0
:101140008091710090917200A0917300B091740031
:10115000800F911FA11DB11D8093710090937200AB
:10116000A0937300B093740080916F009091700011
:10117000801B910B9093700080936F00892B09F076
:101180005FC0109277005CC0833351F5EC2ECC2EFB
:10119000DD2E8C2D8E198F15B0F080916F009091FF
:1011A0007000801B910B9093700080936F00892BCF
:1011B00009F046C080916300882319F3C29A24E0A5
:1011C0002A95F1F7DECFE0916700F091680080E0AA
:1011D0000995F60181936F01F4E0FA95F1F7D9CF03
:1011E000863309F059C080916A00D12CC12C580176
:1011F000811110C081E0A81AB108CF1480F481E0F9
:10120000AC14BD0409F080E0B6D389932FEFC21A65
:10121000D20AF3CFE1E0AE1AB108CF14F8F0809112
:101220006F0090917000801B910B909370008093E1
:101230006F00892B29F461D31092770010926A0015
:10124000A99AA8988F2DDF91CF911F910F91FF90B0
:10125000EF90DF90CF90BF90AF90089581E0AC14F5
:10126000BD0409F080E087D389938091710090914B
:101270007200A0917300B09174000196A11DB11D80
:101280008093710090937200A0937300B0937400E8
:10129000FFEFCF1ADF0AC1CF8933F1F4EC2ECC2E49
:1012A000DD2E8C2D8E198F1578F080916F00909126
:1012B0007000801B910B9093700080936F00892BBE
:1012C00009F0BECF9BD35DCFB8D3F60181936F01F8
:1012D000F4E0FA95F1F7E5CF9EEF980F923008F021
:1012E0005EC0D12CC12CEE24EA94823009F051C0AA
:1012F000EC2ECC2EDD2E8C2D8E198F1508F034CFD0
:1013000060917100709172008091730090917400EF
:101310002BDBF60181936F01809171009091720037
:10132000A0917300B09174000196A11DB11D80932E
:10133000710090937200A0937300B0937400DBCFA0
:101340008091710090917200A0917300B09174002F
:101350005E01AC0CBD1C0097F1E0AF07B105E0F4F5
:10136000F1DBF50180838091710090917200A09172
:101370007300B09174000196A11DB11D809371009E
:1013800090937200A0937300B0937400FFEFCF1A94
:10139000DF0ACF14A8F2E8CEF501E082E4CFA99AE3
:1013A000FF24FA944FCF7F928F929F92AF92BF9279
:1013B000CF92DF92EF92FF920F931F93CF93DF9321
:1013C0008C0180917700811112C0CFEFA99AA89863
:1013D0008C2FDF91CF911F910F91FF90EF90DF90B5
:1013E000CF90BF90AF909F908F907F900895813065
:1013F00051F0982F9D7F943031F0982F977F923342
:1014000011F0853311F7A998C0906F00D09070004B
:10141000E62EF12CCE14DF0408F47601CE2D809157
:101420007700863049F5A701B8018091710090914D
:101430007200F4D78091710090917200A0917300B6
:10144000B09174008E0D9F1DA11DB11D8093710080
:1014500090937200A0937300B093740080916F001A
:10146000909170008E199F099093700080936F0087
:10147000892BD1F0C0E0AACF823311F5D02F6801BB
:101480008C2D8D1B8C1798F080916F0090917000BF
:101490008E199F099093700080936F00892B51F7EC
:1014A000809163008111C29A10927700D9C0E091B7
:1014B0006700F0916800D6018D916D010995E0CF2C
:1014C000853309F0E0C080916A0081111AC0D02FE5
:1014D00068018C2D8D1B8C1708F4C4C080916F009F
:1014E000909170008E199F099093700080936F0007
:1014F000892B09F0BFCF809161008130A9F6FDD121
:10150000D3CF6091710070917200809173009091BF
:101510007400D0E461157105B1E08B07910508F006
:10152000D0E88D2E912CB12CA12CA5019401C4D210
:10153000D61BDC1708F4CD2FCC151D0411F008F0D4
:10154000CC2D80916900811136C0C5D18091620097
:10155000409171005091720060917300709174001D
:1015600041155105E1E06E07710548F09FE0769561
:101570006795579547959A95D1F74E70842BCFD1A3
:10158000811179C08091710090917200A0917300D7
:10159000B09174000097F1E0AF07B10578F0892FA2
:1015A000BED1811168C080917100B9D1811163C031
:1015B00081E080936900D02F780120C08F3F910592
:1015C000A105B10591F388F3EACFD7018D917D0193
:1015D000A6D1811150C08091710090917200A091AC
:1015E0007300B09174000196A11DB11D809371002C
:1015F00090937200A0937300B09374008E2D8D1B96
:101600008C1718F380916F00909170008C1B9109DA
:101610009093700080936F00892B81F0609171002E
:10162000709172008091730090917400A5019401F3
:1016300043D2672B682B692B09F0C8CE5ED1E7E94E
:10164000FAE33197F1F700C0000080916F009091AC
:101650007000892B09F0BACE1092770010926A00C0
:10166000C1E0B4CED6018D916D0159D1882309F422
:1016700030CFCEEFABCE41D11092770010926A00FE
:1016800010926900F6CF8A3359F5D12CC12C17C0BE
:10169000D0916D00DD2381F0D93008F0D8E06D2FB6
:1016A000F801EC0DFD1D8081ABD18111D8C0809176
:1016B0006D008D1B80936D00BFEFCB1ADB0ACC163B
:1016C00038F380916F00909170008E199F0990936C
:1016D000700080936F00892B09F0CCCE8FD1E4CEBF
:1016E000813089F0843009F070CE80917100909142
:1016F0007200A0917300B09174000097A140B105F1
:1017000010F0CCEF63CE80916B0090916C00812C37
:10171000912C5401009791F088249924881A990AF1
:10172000B12CA12C40917100509172006091730016
:101730007091740084229522A622B722D1E0892BD1
:1017400009F0D0E0702E68018C2D87198C17B0F14C
:1017500080916F00909170008E199F099093700096
:1017600080936F00892B09F085CE80916B0090915A
:101770006C00009709F498CE20916E002817190686
:1017800009F492CE009171001091720020917300C3
:101790003091740001501109210931099195819509
:1017A0009109B0E0A0E0BC01CD0160237123822348
:1017B000932379D9882309F477CE31C0D6014D918E
:1017C0006D018091710090917200A0917300B091B1
:1017D000740020917700213069F42D2FBC01CD01D8
:1017E00000D9882351F080917700813009F089CFAA
:1017F000CBEFECCD642FC3D9F4CF80916B009091E7
:101800006C00892BC1F080916E00815080936E0036
:10181000811111C0C501B40146D9882311F0CAEF66
:10182000D5CD80916B0090916C00880E991EA11C03
:10183000B11C80936E008091710090917200A09114
:101840007300B09174000196A11DB11D80937100C9
:1018500090937200A0937300B093740075CFCDEF96
:10186000B5CD12BA18BA88B38C7F88BB87B38360B2
:1018700087BB2FEF37E582E0215030408040E1F711
:1018800000C0000017BA93E094BBA29885B38C63A4
:1018900085BBA8982FEF3FEA84E02150304080407C
:1018A000E1F700C00000A89AA9982FEF3FEA84E072
:1018B000215030408040E1F700C00000A99AA8986C
:1018C00093BFC0D6BAD77894ACD5FECFBC98C49A93
:1018D000BB98C39A0895BC98C49ABB98C39A84E1F4
:1018E0008A95F1F7BC9AC49884E18A95F1F7BB9A7E
:1018F000C39884E18A95F1F70895BB9AC398BC9A7E
:10190000C49888E08A95F1F7BB98C39A88E08A95D5
:10191000F1F7BC98C49A84E18A95F1F7089598E0AC
:10192000BB9AC39828E02A95F1F787FF21C0BC989D
:10193000C49A28E02A95F1F7BB98C39A24E12A9526
:10194000F1F7880F915061F7BB9AC398BC98C49A7D
:1019500088E08A95F1F7BB98C39A24E12A95F1F7BC
:1019600086B3BB9AC39882958F70809581700895D5
:10197000BC9AC498DECF282FBC98C49A98E080E027
:10198000BB9AC39834E13A95F1F7BB98C39A34E116
:101990003A95F1F7880FB4998160915089F7BB9A15
:1019A000C39821110FC0BC9AC49898E09A95F1F79A
:1019B000BB98C39A38E03A95F1F7BB9AC398BC98A4
:1019C000C49A0895BC98C49AF0CF880F613009F486
:1019D0008160A5CFC598089587B38C6287BBBC98FA
:1019E000F9DFC398C2980895C298C598C1D6C29A23
:1019F000C39ABED6C59ABCD6C598BAC6C298EACF15
:101A0000CF93DF93D82F6150770BC1E001C0CC0F8B
:101A10006A95EAF7C11104C080E0DF91CF91089583
:101A2000D9DF8C2F8D2339F0C39AA2D6C59AA0D6C0
:101A3000D1DFC695EFCFC398F8CFCF93DF93D8E02F
:101A4000C0E0C8DF95D6C59A86B382958170CC0F69
:101A5000C82B8ED6BFDFD150A1F78C2FDF91CF914D
:101A60000895CF93B9DFC29A88E28A95F1F780D6BC
:101A7000C6B3C4DFC295C17081E08C27CF910895B1
:101A8000CF93AADFC29A88E28A95F1F768E080ECEA
:101A9000B7DFC0E09FDF6CD6C59A6AD6B49906C09E
:101AA000CA5F98DFABDF8C2FCF91089593DFCF5FB4
:101AB000C73081F7CFEFF6CFA1E21A2EAA1BBB1BCE
:101AC000FD010DC0AA1FBB1FEE1FFF1FA217B3070A
:101AD000E407F50720F0A21BB30BE40BF50B661F20
:101AE000771F881F991F1A9469F7609570958095E4
:101AF00090959B01AC01BD01CF010895E199FECF06
:101B00009FBB8EBBE09A99278DB30895262FE1994C
:101B1000FECF9FBB8EBBE09A01970DB2021631F04B
:101B20002DBB0FB6F894E29AE19A0FBE0895F8948F
:021B3000FFCFE5
:041B3200FF01A0010E
:00000001FF
