:1000000042C0E2C05BC05AC059C058C057C056C0B9
:1000100055C054C053C052C051C050C04FC04EC054
:100020004DC04CC04BC009021200010100A01909CB
:10003000040000000000000012011001FF00000891
:10004000C016DC050701010200010E035500530034
:1000500042006100730070001C0377007700770096
:100060002E00660069007300630068006C002E00BB
:1000700064006500040309040D0C0B0A0908070657
:1000800005040302010011241FBECFE5D4E0DEBF4A
:10009000CDBF10E0A0E6B0E0E2EBFAE102C00590CF
:1000A0000D92A436B107D9F720E0A4E6B0E001C074
:1000B0001D92A23BB207E1F7D5DBF9CCA1CFC598E1
:1000C000BD9ABB98C39A50E22AD05A95E9F7089591
:1000D00027D028E03327382780FB869522D02A9521
:1000E000D1F730FB1ED01BD01AC020EC18D046F43C
:1000F0002A95E1F780E02AE113D02A95E9F70FC0AD
:1001000028E0332788270BD0869587F938272A954A
:10011000D1F705D027F932277AF301D000C06894CF
:10012000E89416F4C39A01C0C39806D0C59AE6B302
:10013000E3FB02D0C5980895E0918400F09185001A
:100140003197F0F7089518D084E2C2DFCEDF8D93A7
:100150004A95D1F7089510D083EFBADF8DE1B8DF6B
:1001600084E6B6DF8D91B4DF82E7B2DFBEDF807850
:10017000D9F74A9589F70895AC0188E6A9DF842F5D
:10018000A7DF89E6A5DF852FA3CFBA01A901DBCFC1
:10019000BA01A901E0CFA82FB92F80E090E041E09B
:1001A00050EA609530E009C02D9182279795879598
:1001B00010F084279527305EC8F36F5FA8F3089589
:1001C000EADF8D939D930895CF93CFB7CF93C395D7
:1001D000B09BE9F7B09B09C0B09B07C0B09B05C0BE
:1001E000B09B03C0B09B01C0A1C0DF93C09193003E
:1001F000DD27C556DF4FB09B02C0DF91EBCF2F93B9
:100200000F931F9306B32FEF00FB20F94F933F93FB
:1002100016B34FEF012700FB21F93BE031C04E7FC1
:10022000012F16B3216028C0102F4D7F22600000DF
:1002300006B329C04B7F2460012F000016B32BC0EA
:1002400016B3477F28602AC04F7E06B320612CC0BA
:100250004F7D16B320622FC04F7B06B3206432C09F
:10026000422706B349934FEF0000102710FB20F9F7
:1002700016B31370C9F1297F91F2012700FB21F910
:1002800006B3237F89F2315058F1102710FB22F971
:1002900016B3277E79F2012700FB23F92F7C81F228
:1002A00006B3102710FB24F92F7971F200C016B3A2
:1002B000012700FB25F92F7359F200C006B3102760
:1002C00010FB26F9223040F200C016B3012700FBD4
:1002D00027F9243028F64F77206816B30000F9CFAD
:1002E00010E41ABF002717C03B503195C31BD04004
:1002F00010E41ABF0881033CE9F00B34D9F02091D7
:1003000091001981110F1213EDCF093641F10D3211
:1003100011F0013E39F7009399003F914F911F91E1
:100320000F912F91DF91CAB7C6FD51CFCF91CFBFAB
:10033000CF91189520919900222379F3109197007D
:10034000112311F5343012F130939700209392006D
:10035000109193003BE0311B3093930017C0009144
:10036000970001308CF40AE53091940034FD10C000
:1003700000939400C6E8D0E00FC02795A8F4515030
:10038000A9F4220F0000F9CF4AE503C042ED01C0F5
:10039000432FC4E1D0E032E017B31360C09A17BB1B
:1003A00008B320E413E05F93012756E008BB2795CC
:1003B00020F4515021F4220FF9CF012756E000001C
:1003C0003B5A08BBD0F2279528F4515029F4220F4C
:1003D0000000F9CF012756E0279508BB20F45150C3
:1003E00021F4220FF9CF012756E02991332308BBCE
:1003F00021F60C7F10919800110FC651D04008BB18
:1004000011F01093910010E41ABF016017B31C7F24
:10041000402F4C7F5F9100C000C008BB17BB48BB9A
:100420007CCFCF93DF9360919700635067FD90C0BE
:1004300080919300CCE0D0E0C81BD109C556DF4FB6
:10044000809192008D3209F0BFC0683009F07EC003
:1004500083EC809386008AE5809394001092640078
:100460008881807671F0CE01A5D38F3F09F466C0F4
:100470009F81911169C09E81981708F065C0892FEE
:1004800063C02A8110928F00998191110AC0109245
:1004900090002FE830E082E03093960020939500A2
:1004A000E7CF953029F4209398002FE830E0F4CF7F
:1004B000963099F59B81913059F488E390E09093C0
:1004C00096008093950082E190E490936400D0CFF1
:1004D000923019F486E290E0F2CF9330A9F721111F
:1004E00008C084E790E0909396008093950084E0A4
:1004F000EBCF213041F488E590E090939600809313
:1005000095008CE1E1CF2230F9F68AE490E09093F7
:100510009600809395008EE0D7CF983059F09930AF
:1005200019F420939A00C1CF81E09A3009F4BDCF2D
:1005300080E0BBCF2AE930E081E0AECF988197FD23
:100540008E8190E8909364008093650010929700EC
:100550008091940084FF2BC0C0916500CF3F39F19A
:100560006C2FC93008F068E08C2F861B80936500E3
:100570008091860098E8892780938600CC2359F0E3
:100580002091640027FF32C087E890E068D5C82F2B
:10059000893008F052C06C2F87E890E011DECC5F04
:1005A000CC3019F08FEF80936500C093940084E104
:1005B00096B3937031F48150D9F71092980010924D
:1005C0009100DF91CF9108958091640087FFBECFA5
:1005D000CE0109D78F3F21F48EE180939400B6CFEE
:1005E000882309F4B3CF10926500B0CF80919500B5
:1005F0009091960026FF17C0FC01A7E8B0E0262FD7
:10060000280F34913D9331962E13FBCF2FEF260FF9
:1006100030E02F5F3F4F820F931F9093960080939F
:100620009500C62FB8CFA7E8B0E0FC01262F280F11
:1006300031913D932E13FCCFE9CF8FEF809365006E
:10064000CEE1B3CF8AE5809394008FEF809365006D
:1006500085B7826085BF8BB780648BBF08958FB9E3
:10066000779BFECF8FB10895809167008DB98091FF
:1006700066008EB9089581111AC0809161008111C0
:1006800016C08DE080937A002FE233E030936A0049
:10069000209369001092660091E0909368008A3080
:1006A00051F1C0F4883059F1893039F1DDCF8093B0
:1006B0007A00883048F728ED33E030936A002093C1
:1006C0006900843049F1E8F4823051F1833031F12E
:1006D00080EC1DC08C3039F060F08D3039F780E54A
:1006E00080936700E3CF81E5809367009093660075
:1006F000DDCF81E5F5CF82E5F7CF82E5F1CF83E568
:10070000EFCF863021F030F0873011F783E080930F
:10071000680008958CE0FBCF88E1F9CF80E3F7CF44
:1007200080E6F5CF0F931F93CF93DF93C82FA3DFFE
:1007300011E0DFE3C83010F41FE0DAEFC3E0C29A43
:10074000812F12D2C2988D2F0FD2E0916900F091C3
:100750006A008CEA0995E0916900F0916A0083E5EE
:100760000995E0916900F0916A0080E00995082FF1
:10077000E0916900F0916A0080E00995033511F479
:10078000882349F087E99AE30197F1F700C0000058
:10079000C150A9F681E0DF91CF911F910F9108958B
:1007A00022B79091680082B7821B8917E0F3089501
:1007B0001F93CF93DF93182FC598D8E0C0E017FFA1
:1007C00013C0C39A110FECDFC59AEADF86B3829596
:1007D0008170CC0FC82BC598E3DFD15081F78C2FE7
:1007E000DF91CF911F910895C398ECCF87B38C62AE
:1007F00087BBBC98C298C59881E0B6D1C29A81E007
:10080000B3D1C2988091690090916A008F52934051
:1008100009F42ADF8FEF80936000089587B38C621C
:1008200087BB8091690090916A008F52934009F4D0
:100830001BDF8FEF80936000C29A089587B3837D9A
:1008400087BB88B3837D88BB0895FF920F931F9366
:10085000CF93DF93E8E7F0E0C49180916C008823A8
:1008600071F0C0917A008C2F5DDF811116C0C093AA
:100870006100DF91CF911F910F91FF9008958091BA
:100880006100882351F04EDF811105C09091610015
:1008900090937A00EECF1092610008E710E08DE0AF
:1008A000F82EF00EF801D491CD1748F08D2F3ADFD5
:1008B000811105C0D0937A00D0936100DACF0F5F29
:1008C0001F4FF012EFCF81E0D4CF0F931F9361152C
:1008D000710522E08207910580F18B019C0141E1C5
:1008E00036952795179507954A95D1F7202F309182
:1008F0006000321721F1209360006115710582407C
:100900009105E8F0E0916900F0916A008DE40995A5
:10091000E0916900F0916A0080E00995E09169003A
:10092000F0916A00809160000995E0916900F09172
:100930006A0080E01F910F91099420E0D8CF1F91A9
:100940000F910895CF92DF92EF92FF926B017C019D
:10095000862F880F880F880F8870E0916900F091CA
:100960006A0080620995D701C60129E0B695A7956E
:10097000979587952A95D1F7E0916900F0916A00E3
:100980000995D701C601B695A79597958795E091EA
:100990006900F0916A000995E0916900F0916A00A0
:1009A00080E0FF90EF90DF90CF900994CF92DF929C
:1009B000EF92FF92CF93DF936B017C01D42FC22F74
:1009C000862F880F880F880F8870E0916900F0915A
:1009D0006A0080640995D701C60129E0B695A795FC
:1009E000979587952A95D1F7E0916900F0916A0073
:1009F0000995D701C601B695A79597958795E0917A
:100A00006900F0916A000995E0916900F0916A002F
:100A10008D2F0995C11108C080E0DF91CF91FF9023
:100A2000EF90DF90CF900895C701B6018BDFC0E152
:100A30008D1791F381E098D0C701B60183DF8D1740
:100A400059F3C15011F481E0E8CFCB3098F784E03E
:100A5000C83088F382E0EFCFCF92DF92EF92FF921F
:100A6000CF936B017C01E0916900F0916A008CE406
:100A70000995D701C60129E0B695A7959795879561
:100A80002A95D1F7E0916900F0916A000995D701A4
:100A9000C601B695A79597958795E0916900F09165
:100AA0006A000995E0916900F0916A0080E009957B
:100AB000C9E181E059D0C701B60144DF8F3F81F41D
:100AC000C15039F481E0CF91FF90EF90DF90CF904B
:100AD0000895C03170F784E0C63060F382E0EACF59
:100AE00080E0F1CFCF93DF93EC01E0916900F091CA
:100AF0006A0080EA0995E0916900F0916A008D2F03
:100B00000995E0916900F0916A008C2F0995E091B8
:100B10006900F0916A0080E0DF91CF9109941F9302
:100B2000CF93DF93D82F192FC62FE0916900F09152
:100B30006A0080EC0995E0916900F0916A00812FCC
:100B40000995E0916900F0916A008D2F0995E09177
:100B50006900F0916A008C2F09958BE005D080E048
:100B6000DF91CF911F91089522B792B7921B9C33CA
:100B7000E0F38150C9F70895262F30916B003111B1
:100B80000FC0FC0142815381052E000C660B770BD0
:100B900040937600509377006093780070937900CB
:100BA000FC01868197819093750080937400209357
:100BB0007B000895EF92FF920F931F93CF93DF93E3
:100BC0008C0110927C0010927D0010927E00109299
:100BD0007F0010928000109281001092820010928B
:100BE0008300DC011196CC911197C13009F58091F9
:100BF0007A0041DD10926B00A898F8DD26DE809324
:100C00006D00882319F01ADE1092610080916D004A
:100C100080937C008CE790E0909396008093950001
:100C20008C2FDF91CF911F910F91FF90EF9008953E
:100C3000C23339F480917A001EDDA898EFDDC0E060
:100C4000E9CFC33379F4C298FC01828180936200BA
:100C5000868197819093750080937400C0937B0088
:100C6000CFEFD8CFC43389F4C29812968C911297E3
:100C70008093620016968D919C919093750080935D
:100C8000740082E380937B00EBCFC63419F4A898FC
:100C90001DD6D5CFC93411F41ED6D1CFCA3411F424
:100CA0002CD6CDCFCC3431F4FC01828138D6809360
:100CB0007C007FC0CB3421F412968C915CD6F7CFA8
:100CC000C734C1F408D660E0F80182817ED6D8012D
:100CD00015968C91159780FF03C014968C911FD6A2
:100CE000F80183811CD6F7D561E0D80112968C916A
:100CF0006CD6A5CFC83401F5EED560E0F80182814D
:100D000064D6D80115968C911597C82F80FF03C023
:100D100014968C9104D6F801838101D6C695C170D2
:100D2000C093B100D80116968D919C919093750057
:100D30008093740085E3A6CFCD3431F4FC01828129
:100D400087FF37C081E0B3CFCD35B1F412968D91D6
:100D50009C911397909371008093700014968C91DE
:100D600014978093720016968D919C9190937500C4
:100D7000809374008AE386CFCC3591F4FC018281A4
:100D800093819093710080937000848180937200AE
:100D900086819781909375008093740089E372CF68
:100DA000CE3549F459D691E0811101C090E090937D
:100DB0007C00C1E02FCFCF3511F45DD678CFCA3596
:100DC000B1F5A89811D6D80112968C911297139666
:100DD0003C91139714962C91149715969C91159706
:100DE0008093760030937700209378009093790079
:100DF00016966C916F71FFD5F801C681C295C695A4
:100E0000C770C6838CE7E82E80E0F82E10E0C1178B
:100E100011F0143031F4EDD5C53008F4FBCEC4E048
:100E2000F9CE06D6D7018D937D011F5FF0CFC2307A
:100E300019F404DDA99A03CFC33081F5E09169006C
:100E4000F0916A0012968C91099580937C00E09154
:100E50006900F0916A00D80113968C9109958093EE
:100E60007D00E0916900F0916A00D80114968C91A0
:100E7000099580937E00E0916900F0916A00D801A5
:100E800015968C91099580937F00109280001092A6
:100E900081001092820010928300C1CFC53011F4FE
:100EA000D4DC05CF62E0C43009F4C9C063E0C730C8
:100EB00009F4C5C0C63049F580916B0081110FC09F
:100EC000F80182819381092E000CAA0BBB0B809341
:100ED000760090937700A0937800B0937900D801C2
:100EE00014968C91149715969C91159780936E008B
:100EF00090936F008093730016968D919C919093C0
:100F000075008093740081E0BDCEC83009F58091F2
:100F10006B0081110FC0F80182819381092E000CB2
:100F2000AA0BBB0B8093760090937700A093780078
:100F3000B093790010926F0010926E00D80116964F
:100F40008D919C91909375008093740084E09ACE6B
:100F5000C930A1F481E080936B00F8016281738154
:100F600084819581609376007093770080937800F8
:100F700090937900AADC10927C001BCFCA3069F4F0
:100F800012968C9180937A00811103C010926C00AC
:100F900010CF81E080936C000CCFC131B1F480910F
:100FA0007A0080937D008091610080937E00809123
:100FB000680080937F008091600080938000809122
:100FC0007B0080938100C6E025CECB3099F4FC01F4
:100FD00082819381909385008093840010926B00AE
:100FE000C29ABA9A83E0C0DDC298A89880E1BCDDBD
:100FF00066D825CECC3099F480EC6AD880E068D8E9
:101000008AE0B2DDC29A85E0AFDDC29885E0ACDD52
:1010100087B3837D87BB88B3837D88BB10CECD30FB
:1010200011F463D844CECE3021F412968C9150D86E
:10103000A2CF65E0CF3019F0C03121F466E0C801DD
:101040009BDD0ECECF3709F0FACD83E180937C0093
:1010500081E880937D008FEC80937F00E0CE2F921B
:101060003F924F925F926F927F928F929F92AF9238
:10107000BF92CF92DF92EF92FF920F931F93CF9385
:10108000DF9300D000D0CDB7DEB7282FE92F8091B5
:101090007B003EEF380F323048F0853039F0833333
:1010A00029F0893319F0863309F06AC170E00091A4
:1010B0007400109175006017710708F48B010B83A1
:1010C000A99880917B00853049F5A801622F7E2F79
:1010D000809176009091770058D880917600909119
:1010E0007700A0917800B0917900800F911FA11D29
:1010F000B11D8093760090937700A0937800B09311
:1011000079008091740090917500801B910B9093F1
:10111000750080937400892B11F51FC0833379F516
:101120002983E22EFE2E8E2D2981821B3B8183177F
:10113000C8F08091740090917500801B910B909382
:10114000750080937400892B51F48091620088238C
:1011500021F0C29A84E08A95F1F710927B00A99A57
:10116000A89811C1E0916900F0916A0080E00995AA
:10117000F70181937F01F4E0FA95F1F7D4CF86333C
:1011800071F5E0907400F09075000E151F0508F4DD
:101190007801EB82C22EDE2E10E000E0570191E0D4
:1011A000A91AB108FB810F1770F08091740090911B
:1011B00075008E199F099093750080937400892B98
:1011C00071F69BD3CACF81E0A016B10609F080E08A
:1011D000D2D3F60181936F010F5F1F4FE3CF8933A5
:1011E00001F52983E22EFE2E8E2D2981821B3B8163
:1011F000831778F08091740090917500801B910B9B
:101200009093750080937400892B09F0A8CFF1D3D7
:10121000A4CF0ED4F70181937F01F4E0FA95F1F7A2
:10122000E3CF823009F06DC0C0907600D090770097
:10123000E0907800F09079008091740090917500B2
:101240009C838B830817190710F41C830B838091F0
:101250006000122FE983260137019B81920F9A8348
:10126000FA81F11315C02B813C81C20ED31EE11C03
:10127000F11CC0927600D0927700E0927800F09254
:1012800079008091740090917500821B930B3FCF81
:10129000082F4114510401F54301AA24BB24082D51
:1012A0008815D1F080926000E0916900F0916A00A9
:1012B0008DE40995E0916900F0916A0080E009955C
:1012C000E0916900F0916A00882D0995E09169002C
:1012D000F0916A0080E0099553014201EFEF8E1A08
:1012E0009E0AAE0ABE0A212E3980C301B2012ADB52
:1012F000F10181931F01802F1E2F398224013501B6
:10130000AFCF8330E9F5E0907400F09075000E15D2
:101310001F0508F478011E2D115080F4809174008F
:10132000909175008E199F099093750080937400B9
:10133000892B11F410927B00EB8211CF8091760003
:1013400090917700A0917800B09179004C015D01F7
:10135000FFEF8F1A9F0AAF0ABF0A80927600909221
:101360007700A0927800B09279002B83EC83BADBEF
:10137000EB81FC818193FC83EB832B81EC81CCCFCF
:10138000A99AFFEFFB838B810F900F900F900F9026
:10139000DF91CF911F910F91FF90EF90DF90CF9051
:1013A000BF90AF909F908F907F906F905F904F9085
:1013B0003F902F9008950F931F93CF93DF93EC01ED
:1013C0008C01060F111DC017D10731F480E0DF91A9
:1013D000CF911F910F91089568E089910CD38823D4
:1013E00091F381E0F4CF3F924F925F926F927F92A0
:1013F0008F929F92AF92BF92CF92DF92EF92FF9225
:101400000F931F93CF93DF93EC0180917B00882390
:1014100009F426C2813059F0982F9D7F943039F01D
:10142000982F977F923319F0853309F019C270E035
:10143000A0907400B09075006A157B0508F45B01FC
:10144000FA2CA99810917B001630E9F5A501BE0190
:1014500080917600909177009BD680917600909154
:101460007700A0917800B09179008A0D9B1DA11D95
:10147000B11D8093760090937700A0937800B0938D
:10148000790080917400909175008A199B0990935E
:10149000750080937400892B79F110E0A99AA898BF
:1014A000812FDF91CF911F910F91FF90EF90DF90EF
:1014B000CF90BF90AF909F908F907F906F905F90F4
:1014C0004F903F900895123319F5EC2E0C2F1D2FDD
:1014D000802F8E198F1598F080917400909175006F
:1014E0008A199B099093750080937400892BA9F643
:1014F000809162008111C29A10927B00CECFE09160
:101500006900F0916A00D8018D918D010995E0CFB5
:10151000153351F5E0907400F0907500AE14BF04DF
:1015200008F47501DE2CCC2E0C2F1D2F802F8C196A
:101530008D1598F080917400909175008E199F0917
:101540009093750080937400892B09F0A6CF809149
:10155000B100882339F0D1D1CFCFD8018D918D0141
:10156000DED1E4CFB8D1C8CF1A3399F5809172009B
:1015700025E0C22ED12CE12CF12C04C0CC0CDD1CBA
:10158000EE1CFF1C8A95D2F780917000909171003B
:10159000C82A2AD2609172006D5F8C2D2CD26A2DE0
:1015A000CE0109DF182F882319F023D21DEF76CF43
:1015B00080917400909175008A199B099093750031
:1015C00080937400892B09F068CF13D210927B00AE
:1015D00065CF113009F009C1C0907600D090770036
:1015E000E0907800F09079000091600080916E00AA
:1015F00090916F004E018A0C9B1C892B09F47AC0D4
:101600008C169D0609F47AC0302EC114D10401F560
:10161000270166247724342C0415D1F04092600011
:10162000E0916900F0916A008DE40995E09169000C
:10163000F0916A0080E00995E0916900F0916A00FC
:10164000842D0995E0916900F0916A0080E0099588
:1016500020E04991C701B601A9D9882309F48DC0BA
:1016600010927B00C0927600D0927700E0927800D2
:10167000F09279003BC0C114D10401F52701662422
:1016800077240415D9F040926000E0916900F09150
:101690006A008DE40995E0916900F0916A0080E0AC
:1016A0000995E0916900F0916A00842D0995E09117
:1016B0006900F0916A0080E00995042D2601370148
:1016C000BFEF4B1A5B0A6B0A7B0A21E04991C70105
:1016D000B6016CD9882361F010927B0040927600AD
:1016E0005092770060927800709279001BEFD6CE0E
:1016F00073016201C815D90509F0BDCFC09276000B
:10170000D0927700E0927800F09279008091740096
:10171000909175008A199B099093750080937400CD
:10172000892B09F0BACE10927B0020916E00309187
:101730006F002115310509F4B1CE80917300821735
:10174000130609F4ABCEC701B601615071098109D6
:1017500091096901F12CE12CF094E094D094C094AB
:10176000C11CD11CE11CF11C6C217D218E219F210B
:1017700073D9882309F492CE2EC026013701EFEFEA
:101780004E1A5E0A6E0A7E0A809173008150809321
:101790007300811126C080916E0090916F00B0E0BF
:1017A000A0E09C01AD0166277727CB01621B730B7C
:1017B000840B950B6C217D218E219F214DD988238F
:1017C00061F010927B004092760050927700609218
:1017D0007800709279001AEF61CE80916E0080934C
:1017E0007300032D730162010BCF1430B9F58E0124
:1017F0000A0D1B1DC017D10789F4809174009091C8
:1018000075008A199B099093750080937400892B49
:1018100009F043CE10927B0011E040CE6991809197
:101820007600909177007BD9882321F010927B007D
:101830001CEF34CE8091760090917700A0917800D3
:10184000B09179000196A11DB11D8093760090930F
:101850007700A0937800B0937900CCCF1FEF1ECE15
:101860001FEF1ECE12BA18BA88B38C7F88BB87B31D
:10187000836087BB2FE93EE482E021503040804006
:10188000E1F700C0000017BA93E094BBA29885B3BB
:101890008C6385BBA8982FE936EA84E0215030405C
:1018A0008040E1F700C00000A89AA9982FE936EA25
:1018B00084E0215030408040E1F700C00000A99A48
:1018C000A89893BFBFD67894ACD5FECFBC98C49AE5
:1018D000BB98C39A0895BC98C49ABB98C39A84E1F4
:1018E0008A95F1F7BC9AC49884E18A95F1F7BB9A7E
:1018F000C39884E18A95F1F70895BB9AC398BC9A7E
:10190000C49888E08A95F1F7BB98C39A88E08A95D5
:10191000F1F7BC98C49A84E18A95F1F7089598E0AC
:10192000BB9AC39828E02A95F1F787FF21C0BC989D
:10193000C49A28E02A95F1F7BB98C39A24E12A9526
:10194000F1F7880F915061F7BB9AC398BC98C49A7D
:1019500088E08A95F1F7BB98C39A24E12A95F1F7BC
:1019600086B3BB9AC39882958F70809581700895D5
:10197000BC9AC498DECF282FBC98C49A98E080E027
:10198000BB9AC39834E13A95F1F7BB98C39A34E116
:101990003A95F1F7880FB4998160915089F7BB9A15
:1019A000C39821110FC0BC9AC49898E09A95F1F79A
:1019B000BB98C39A38E03A95F1F7BB9AC398BC98A4
:1019C000C49A0895BC98C49AF0CF880F613009F486
:1019D0008160A5CFC598089587B38C6287BBBC98FA
:1019E000F9DFC398C2980895C298C598D9D6C29A0B
:1019F000D7C6C298EFCFCF93DF93D82F6150770B24
:101A0000C1E001C0CC0F6A95EAF7C11104C080E0C3
:101A1000DF91CF910895DEDF8C2F8D2339F0C39AAB
:101A2000BFD6C59ABDD6D6DFC695EFCFC398F8CF3F
:101A3000CF93DF93D8E0C0E0CDDFB2D6C59A86B3AE
:101A400082958170CC0FC82BABD6C4DFD150A1F7E3
:101A50008C2FDF91CF910895CF93BEDFC29A88E299
:101A60008A95F1F79DD6C6B3C4DFC295C17081E0F7
:101A70008C27CF910895CF93AFDFC29A88E28A95E1
:101A8000F1F768E080ECB7DFC0E0A4DF89D6C59A43
:101A900087D6B49906C0CA5F9DDFABDF8C2FCF918C
:101AA000089598DFCF5FC73081F7CFEFF6CFF89476
:021AB000FFCF66
:041AB200FF0D010023
:00000001FF
