:1000000043C077C05CC05BC05AC059C058C057C01D
:1000100056C055C054C053C052C051C050C04FC04C
:100020004EC04DC04CC009021200010100A01909C8
:10003000040000000000000012011001FF00000891
:10004000C016DC050701010200010E035500530034
:1000500042006100730070001C0377007700770096
:100060002E00660069007300630068006C002E00BB
:100070006400650004030904100F0E0D0C0B0A093F
:10008000080706050403020111241FBECFE5D4E0D2
:10009000DEBFCDBF10E0A0E6B0E0E0E5FDE102C0CC
:1000A00005900D92A636B107D9F720E0A6E6B0E09C
:1000B00001C01D92A63BB207E1F701DD47CEA0CFFC
:1000C000A82FB92F80E090E041E050EA609530E041
:1000D00009C02D9182279795879510F08427952741
:1000E000305EC8F36F5FA8F30895EADF8D939D93A8
:1000F0000895CF93CFB7CF93C395B09BE9F7B09B4B
:1001000009C0B09B07C0B09B05C0B09B03C0B09BAB
:1001100001C0A1C0DF93C0919200DD27C656DF4F1A
:10012000B09B02C0DF91EBCF2F930F931F9306B3C9
:100130002FEF00FB20F94F933F9316B34FEF0127AA
:1001400000FB21F93BE031C04E7F012F16B3216047
:1001500028C0102F4D7F2260000006B329C04B7FBE
:100160002460012F000016B32BC016B3477F286010
:100170002AC04F7E06B320612CC04F7D16B320628B
:100180002FC04F7B06B3206432C0422706B3499389
:100190004FEF0000102710FB20F916B31370C9F1C0
:1001A000297F91F2012700FB21F906B3237F89F211
:1001B000315058F1102710FB22F916B3277E79F23F
:1001C000012700FB23F92F7C81F206B3102710FBD7
:1001D00024F92F7971F200C016B3012700FB25F92D
:1001E0002F7359F200C006B3102710FB26F92230F6
:1001F00040F200C016B3012700FB27F9243028F68F
:100200004F77206816B30000F9CF10E41ABF00271B
:1002100017C03B503195C31BD04010E41ABF088172
:10022000033CE9F00B34D9F0209190001981110FB3
:100230001213EDCF093641F10D3211F0013E39F7BD
:10024000009398003F914F911F910F912F91DF9153
:10025000CAB7C6FD51CFCF91CFBFCF91189520918E
:100260009800222379F310919600112311F5343070
:1002700012F13093960020939100109192003BE090
:10028000311B3093920017C00091960001308CF41E
:100290000AE53091930034FD10C000939300C5E847
:1002A000D0E00FC02795A8F45150A9F4220F000008
:1002B000F9CF4AE503C042ED01C0432FC4E1D0E0CD
:1002C00032E017B31360C09A17BB08B320E413E001
:1002D0005F93012756E008BB279520F4515021F485
:1002E000220FF9CF012756E000003B5A08BBD0F29D
:1002F000279528F4515029F4220F0000F9CF012747
:1003000056E0279508BB20F4515021F4220FF9CF75
:10031000012756E02991332308BB21F60C7F109169
:100320009700110FC651D04008BB11F010939000F8
:1003300010E41ABF016017B31C7F402F4C7F5F9100
:1003400000C000C008BB17BB48BB7CCFC598BD9A96
:10035000BB98C39A50E22AD05A95E9F7089527D05E
:1003600028E03327382780FB869522D02A95D1F7BD
:1003700030FB1ED01BD01AC020EC18D046F42A95B2
:10038000E1F780E02AE113D02A95E9F70FC028E0D1
:10039000332788270BD0869587F938272A95D1F7F8
:1003A00005D027F932277AF301D000C06894E89489
:1003B00016F4C39A01C0C39806D0C59AE6B3E3FB0E
:1003C00002D0C5980895E091B400F091B50031973E
:1003D000F0F7089518D084E2C2DFCEDF8D934A95FE
:1003E000D1F7089510D083EFBADF8DE1B8DF84E64E
:1003F000B6DF8D91B4DF82E7B2DFBEDF8078D9F758
:100400004A9589F70895AC0188E6A9DF842FA7DF14
:1004100089E6A5DF852FA3CFBA01A901DBCFBA01F9
:10042000A901E0CFCF93DF9360919600635067FD01
:1004300090C080919200CCE0D0E0C81BD109C65694
:10044000DF4F809191008D3209F0BFC0683009F014
:100450007EC083EC809385008AE5809393001092A0
:1004600066008881807671F0CE0146D48F3F09F412
:1004700066C09F81911169C09E81981708F065C080
:10048000892F63C02A8110928E00998191110AC030
:1004900010928F002EE830E082E030939500209398
:1004A0009400E7CF953029F4209397002EE830E0B0
:1004B000F4CF963099F59B81913059F488E390E020
:1004C000909395008093940082E190E4909366006D
:1004D000D0CF923019F486E290E0F2CF9330A9F7B2
:1004E000211108C084E790E09093950080939400D8
:1004F00084E0EBCF213041F488E590E090939500C3
:10050000809394008CE1E1CF2230F9F68AE490E008
:1005100090939500809394008EE0D7CF983059F057
:10052000993019F420939900C1CF81E09A3009F4F1
:10053000BDCF80E0BBCF29E930E081E0AECF98812C
:1005400097FD8E8190E890936600809367001092EB
:1005500096008091930084FF2BC0C0916700CF3F2D
:1005600039F16C2FC93008F068E08C2F861B80931E
:1005700067008091850098E8892780938500CC23C7
:1005800059F02091660027FF32C086E890E073D5CD
:10059000C82F893008F052C06C2F86E890E0A5DDA6
:1005A000CC5FCC3019F08FEF80936700C09393003D
:1005B00084E196B3937031F48150D9F7109297008B
:1005C00010929000DF91CF9108958091660087FF8F
:1005D000BECFCE01B6D78F3F21F48EE1809393003A
:1005E000B6CF882309F4B3CF10926700B0CF8091C3
:1005F00094009091950026FF17C0FC01A6E8B0E09A
:10060000262F280F34913D9331962E13FBCF2FEFD9
:10061000260F30E02F5F3F4F820F931F909395007E
:1006200080939400C62FB8CFA6E8B0E0FC01262F37
:10063000280F31913D932E13FCCFE9CF8FEF80939C
:100640006700CEE1B3CF8AE5809393008FEF80936C
:10065000670085B7826085BF8BB780648BBF0895C4
:100660008FB9779BFECF8FB108958091B1008DB97E
:100670008091B0008EB9089581111BC080916100F6
:10068000811117C080E180937B0020E333E0309339
:100690006900209368001092B00091E09093B2003E
:1006A0008C30B9F1F8F48930B1F1B0F48830A9F1A7
:1006B000DCCF80937B00883040F726EE33E0309328
:1006C0006900209368008430A9F148F58230B1F1C7
:1006D000833091F180EC29C08A30A1F08B3041F752
:1006E00083E505C0803140F48E3060F081E5809371
:1006F000B1009093B000DCCF8031D1F680E58093DB
:10070000B100D6CF82E58093B10081E08093B00044
:10071000CFCF81E5F4CF82E5F2CF83E5F0CF86300D
:1007200021F030F08730B1F683E08093B200089575
:100730008CE0FBCF88E1F9CF80E3F7CF80E6F5CFFF
:100740000F931F93CF93DF93C82F96DF11E0DFE362
:10075000C83010F41FE0DAEFC3E0C29A812F07D24D
:10076000C2988D2F04D2E0916800F09169008CEA64
:100770000995E0916800F091690083E50995E091A1
:100780006800F091690080E00995082FE091680009
:10079000F091690080E00995033511F4882349F050
:1007A00087E99AE30197F1F700C00000C150A9F66C
:1007B00081E0DF91CF911F910F91089522B7909121
:1007C000B20082B7821B8917E0F308951F93CF937D
:1007D000DF93182FC598D8E0C0E017FF13C0C39A65
:1007E000110FECDFC59AEADF86B382958170CC0FDA
:1007F000C82BC598E3DFD15081F78C2FDF91CF91C3
:100800001F910895C398ECCF87B38C6287BBBC98C7
:10081000C298C59881E0ABD1C29A81E0A8D1C298B4
:1008200080916800909169008053934009F41DDF26
:100830008FEF80936000089587B38C6287BB8091AF
:100840006800909169008053934009F40EDF8FEFA8
:1008500080936000C29A089587B3837D87BB88B375
:10086000837D88BB10927B0008950F931F93CF93D5
:10087000DF9380916D00C8E7D0E00C2F005F8823E4
:1008800071F080917B005CDF81111BC090917B0037
:1008900090936100DF91CF911F910F910895FE0118
:1008A000149180916100811749F0812F49DF8111F6
:1008B00005C010937B0010936100ECCF21960C13C0
:1008C000EECF81E0E7CF6115710521E08207910548
:1008D00040F1DC01CB0121E1B695A795979587956D
:1008E0002A95D1F7209160002817D9F080936000F5
:1008F000E0916800F09169008DE40995E09168004D
:10090000F091690080E00995E0916800F09169003C
:10091000809160000995E0916800F091690080E0A5
:1009200009940895CF92DF92EF92FF926B017C01C0
:10093000862F880F880F880F8870E0916800F091EB
:10094000690080620995D701C60129E0B695A7958F
:10095000979587952A95D1F7E0916800F091690005
:100960000995D701C601B695A79597958795E0910A
:100970006800F09169000995E0916800F0916900C4
:1009800080E0FF90EF90DF90CF900994CF92DF92BC
:10099000EF92FF926B017C0196DFC701B601FF90D9
:1009A000EF90DF90CF90BECFCF92DF92EF92FF9289
:1009B000CF93DF936B017C01D42FC22F84DF8C2D6A
:1009C000880F880F880F8870E0916800F0916900A7
:1009D00080640995D701C60129E0B695A79597953A
:1009E00087952A95D1F7E0916800F0916900099503
:1009F000D701C601B695A79597958795E0916800B0
:100A0000F09169000995E0916800F09169008D2FDF
:100A10000995C11108C080E0DF91CF91FF90EF9060
:100A2000DF90CF900895DF3F61F0CEE181E09FD06D
:100A3000C701B601ABDF8D1771F3C15041F481E0FE
:100A4000EBCFC701B601A2DF8F3F79F7E4CFC53105
:100A500068F784E0CB3058F382E0E9CFCF92DF92A1
:100A6000EF92FF92CF936B017C012DDFE091680044
:100A7000F09169008CE40995D701C60129E0B6958B
:100A8000A795979587952A95D1F7E0916800F09101
:100A900069000995D701C601B695A79597958795E1
:100AA000E0916800F09169000995E0916800F0918B
:100AB000690080E00995C9E181E059D0C701B6011C
:100AC00065DF8F3F81F4C15039F481E0CF91FF9011
:100AD000EF90DF90CF900895C03170F784E0C6307A
:100AE00060F382E0EACF80E0F1CFCF93DF93EC01B7
:100AF000E0916800F091690080EA0995E091680052
:100B0000F09169008D2F0995E0916800F0916900DE
:100B10008C2F0995E0916800F091690080E0DF91E9
:100B2000CF9109941F93CF93DF93D82F192FC62FFE
:100B3000E0916800F091690080EC0995E09168000F
:100B4000F0916900812F0995E0916800F0916900AA
:100B50008D2F0995E0916800F09169008C2F09951F
:100B60008BE005D080E0DF91CF911F91089522B7EF
:100B700092B7921B9C33E0F38150C9F70895262F5A
:100B8000FC0142815381052E000C660B770B4093CC
:100B90007600509377006093780070937900868197
:100BA0009781092E000CAA0BBB0B809372009093C7
:100BB0007300A0937400B093750020937C00089597
:100BC000C298FB0192819093650046815781052E62
:100BD000000C660B770B4093720050937300609388
:100BE00074007093750080937C0008950F931F9399
:100BF000522F20917A0021110FC0FC010281138134
:100C0000012E000C220B330B00937600109377001B
:100C10002093780030937900242F30E030937000D7
:100C200020936F0050FD40937100FC0186819781F5
:100C3000092E000CAA0BBB0B8093720090937300DB
:100C4000A0937400B093750060937C001F910F9186
:100C50000895FC0186819781092E000CAA0BBB0B1D
:100C60008093720090937300A0937400B09375000A
:100C700060937C0008950F931F93FC01838191E0A2
:100C8000811101C090E090936C0080936B00928181
:100C900090936300882381F0823021F504811581CF
:100CA000012E000C220B330B00937600109377007B
:100CB000209378003093790086819781092E000C6B
:100CC000AA0BBB0B8093720090937300A0937400E7
:100CD000B093750060937C008FEFFA0180831F91C1
:100CE0000F91089500E010E098018130E9F6048149
:100CF00010E030E020E0D8CFCF92DF92FF920F9348
:100D00001F93CF93DF930F92CDB7DEB78C0119827B
:100D1000DC0111968C9111978130A1F480917B00B8
:100D2000ABDC10927A00A8986FDD9FDD80936E0097
:100D3000882319F091DD1092610080916E008093FC
:100D40007D0047C08233A9F480917B0095DCA89890
:100D500073DD8DE790E090939500809394008981F6
:100D60000F90DF91CF911F910F91FF90DF90CF9067
:100D70000895B801833319F0843321F482E320DF2E
:100D80008FEF2FC1863419F4A898CDD6E2CF8934DD
:100D900011F4CED6DECF8A3411F4DCD6DACF8C341F
:100DA00061F48091640090E08E7FC2D6F801828168
:100DB000E3D6D0D610927D000CC08B3461F48091C4
:100DC0006400816090E0B4D680E002D780937D001B
:100DD000C1D681E006C1873449F410926200AE01A9
:100DE0004F5F5F4F66E3C80146DFB3CF883459F4E5
:100DF00014968C918093620010926A00AE014F5F4E
:100E00005F4F65E3F0CF8D3449F4F801828187FDAF
:100E100003C080936400CECF81E091CF6AE38D352B
:100E200019F08C3521F469E3C80113DFA9CF8E35A1
:100E300041F43FD791E0811101C090E090937D0093
:100E4000C8CF8F3511F444D77ACF8A35C1F5A89829
:100E5000F3D6D80112968C91129713963C91139762
:100E600014962C91149715969C9115978093760063
:100E700030937700209378009093790016966C91C8
:100E80006F71E6D6F801F680F294F69447E0F4220A
:100E9000F6825DE7C52E50E0D52E10E0F11611F078
:100EA000143039F4D3D68F2D853008F49AC084E0FD
:100EB00098C0EBD6D6018D936D011F5FEFCF8230C6
:100EC00019F4CADCA99A45CF833041F5E091680056
:100ED000F091690012968C91099580937D00E091C4
:100EE0006800F0916900D80113968C910995809360
:100EF0007E00E0916800F0916900D80114968C9111
:100F0000099580937F00E0916800F0916900D80115
:100F100015968C91099580938000C9CF62E084304A
:100F200009F499C063E0873009F495C0853011F465
:100F30009CDC05CF863041F4F80125812F70448177
:100F400061E0C80153DE1CCF883021F420E040E08E
:100F500064E0F7CF8930E9F413962C911397129639
:100F60006C91129770E090E080E0CB0177276627C4
:100F7000922B14962C911497622B15962C91722B10
:100F800061157105B2E08B07910508F413CF9BDC66
:100F900011CF8A3069F4F801828180937B0081113E
:100FA00003C010926D0006CF81E080936D0002CFE8
:100FB0008131C9F410927D0080917B0080937E0086
:100FC0008091610080937F008091B20080938000C7
:100FD000809160008093810080917C0080938200EA
:100FE00086E08983B6CE8B3089F412968D919C91E0
:100FF0009093B5008093B400C29ABA9A83E0B7DDAB
:10100000C298A89880E1B3DDA1D9A3CE8C3099F421
:1010100080ECA5D980E0A3D98AE0A9DDC29A85E059
:10102000A6DDC29885E0A3DD87B3837D87BB88B347
:10103000837D88BB8ECE8D3011F49ED980CE8E30CC
:1010400021F4F80182818BD9B5CE65E08F3019F09B
:10105000803121F466E0C80192DD92CE8F3709F02D
:1010600078CE83E180937D0081E880937E001092AA
:101070007F008FEC50CF8F929F92AF92BF92CF9212
:10108000DF92EF92FF920F931F93CF93DF93EC01C8
:1010900080917C009EEF980F923048F0853039F0B7
:1010A000833329F0893319F0863309F00EC2862F75
:1010B00090E0B0E0A0E0C0907200D0907300E090AB
:1010C0007400F09075008C159D05AE05BF0510F4F9
:1010D0006C017D011C2DA99880917C008530C1F5A3
:1010E000A601BE01809176009091770095D98091FC
:1010F000760090917700A0917800B09179008C0DE6
:101100009D1DAE1DBF1D8093760090937700A09328
:101110007800B09379008091720090917300A09153
:101120007400B09175008C199D09AE09BF098093B8
:10113000720090937300A0937400B0937500892B94
:101140008A2B8B2B11F410927C00A99AA89897C037
:101150008333A9F50C2FA02EBD2E8A2D801B81175D
:1011600008F18091720090917300A0917400B09189
:1011700075008C199D09AE09BF0980937200909388
:101180007300A0937400B0937500892B8A2B8B2B6E
:10119000E1F6809165008823B1F2C29A24E02A9595
:1011A000F1F7D1CFE0916800F091690080E00995F6
:1011B000F50181935F01F4E0FA95F1F7CECF863324
:1011C00009F092C080916A00811132C000916300E1
:1011D000B0906B0080916C00882389F0809176003C
:1011E00090917700A0917800B09179002FE0B695AA
:1011F000A795979587952A95D1F78E70082B98D447
:10120000802FBAD4811167C0BB2049F0809177004C
:10121000B3D481E08B1518F480917600ADD488D4D6
:10122000802F8160A9D4811156C081E080936A002B
:10123000912C812CE12FE150FF0B5F01811668F1A9
:101240008091720090917300A0917400B09175002C
:101250008C199D09AE09BF098093720090937300A9
:10126000A0937400B0937500892B8A2B8B2B39F4D3
:1012700071D410927C0010926C0010926A00812F41
:10128000DF91CF911F910F91FF90EF90DF90CF9062
:10129000BF90AF909F908F90089581E0A814B904FB
:1012A00009F080E095D48993809176009091770041
:1012B000A0917800B09179000196A11DB11D809395
:1012C000760090937700A0937800B0937900FFEFB9
:1012D0008F1A9F0AB3CF3ED410927C0010926C00FC
:1012E00010926A0010E0CBCF893351F50C2FA02E5D
:1012F000BD2E8A2D801B8117D8F0809172009091AD
:101300007300A0917400B09175008C199D09AE090D
:10131000BF098093720090937300A0937400B09300
:101320007500892B8A2B8B2B09F00FCF8FD40BCF15
:10133000ACD4F50181935F01F4E0FA95F1F7D9CFD0
:10134000823009F090C08091760090917700A09152
:101350007800B09179000197A109B1098C0D9D1D0C
:10136000AE1DBF1D0097A240B10508F07AC00C2F3A
:10137000AC2EBD2E8A2D801B811708F0CCCE60913B
:101380007600709177008091780090917900CADAA8
:10139000F50181935F018091760090917700A09193
:1013A0007800B09179000196A11DB11D809376005F
:1013B00090937700A0937800B0937900DBCF609191
:1013C00076007091770080917800909179007BDAB7
:1013D000409176005091770060917800709179008B
:1013E000912E901ADB01CA0188279927AE7F1296A9
:1013F000841B950BA60BB70B492D50E070E060E005
:10140000481759076A077B0708F0982E5E01A00E5F
:10141000B11C812C891004C0080D011780F27BCE0D
:1014200060917600709177008091780090917900BA
:1014300079DAF50181935F018091760090917700D0
:10144000A0917800B09179000196A11DB11D809303
:10145000760090937700A0937800B09379008394FE
:10146000D9CF00E0DACF833081F50C2FAC2EBD2E22
:101470008A2D801B811708F04ECE809176009091C6
:101480007700A0917800B09179008115E0E19E0786
:10149000A105B105C0F429DBF50181935F018091BD
:1014A000760090917700A0917800B0917900019634
:1014B000A11DB11D8093760090937700A0937800D2
:1014C000B0937900D5CF8FEFE7CFA99A1FEFD7CE92
:1014D0006115710522E08207910598F46115710587
:1014E00021E08207910578F4611520E872078105F3
:1014F000910558F4611570448105910540F080E133
:10150000089580E8089580E4089580E2089588E0D1
:1015100008950F931F93CF93DF93EC018C01060F77
:10152000111DC017D10731F480E0DF91CF911F91D9
:101530000F91089568E089918BD3882391F381E01E
:10154000F4CF4F925F926F927F928F929F92AF9261
:10155000BF92CF92DF92EF92FF920F931F93CF93A0
:10156000DF9300D000D000D0CDB7DEB78D839E834F
:1015700080917C00882309F49EC2813059F0982F15
:101580009D7F943039F0982F977F923319F08533EF
:1015900009F091C2862F90E0B0E0A0E0C090720008
:1015A000D0907300E0907400F09075008C159D054C
:1015B000AE05BF0510F46C017D019C2CA99800912B
:1015C0007C000630C1F5A6016D817E818091760098
:1015D0009091770024D78091760090917700A09128
:1015E0007800B09179008C0D9D1DAE1DBF1D8093BC
:1015F000760090937700A0937800B0937900809163
:10160000720090917300A0917400B09175008C19D4
:101610009D09AE09BF098093720090937300A09357
:101620007400B0937500892B8A2B8B2B11F41092C8
:101630007C0010E069C1023371F5BD800B2D1E8165
:10164000802F8B198915F0F08091720090917300B2
:10165000A0917400B09175008C199D09AE09BF0965
:101660008093720090937300A0937400B093750000
:10167000892B8A2B8B2BE9F6809165008823B9F2A0
:10168000C29AD5CFE0916800F0916900D8018D91A0
:101690008D010995D5CF053309F011C180916C00FA
:1016A000BD800B2D1E81882309F4D5C080916A006E
:1016B000811132C03DD280916300409176005091FB
:1016C0007700609178007091790041155105B1E083
:1016D0006B07710548F09FE076956795579547959C
:1016E0009A95D1F74E70842B47D28111DFC080913B
:1016F000760090917700A0917800B09179000097E2
:10170000E1E0AE07B10510F0892F36D28091760066
:1017100033D281E080936A00409076005090770049
:101720006090780070907900C301B201D1DE182F6B
:1017300090E0B0E0A0E089839A83AB83BC83809083
:10174000720090907300A0907400B0907500C8145F
:10175000D904EA04FB0410F446015701C301B201A5
:1017600029813A814B815C81CFD2161B812F90E079
:10177000B0E0A0E0750164018C159D05AE05BF05C4
:1017800010F46C017D017C2C6D80062D1E81802F54
:101790008619871508F43FC08091720090917300FC
:1017A000A0917400B09175008C199D09AE09BF0914
:1017B0008093720090937300A0937400B0937500AF
:1017C000892B8A2B8B2B91F060917600709177009A
:1017D000809178009091790029813A814B815C81D8
:1017E00093D2672B682B692B09F023CFB3D1E7E99C
:1017F000FAE33197F1F700C00000809172009091F8
:101800007300A0917400B0917500892B8A2B8B2BEB
:1018100009F442C00ECFD8018D918D01ADD1811157
:1018200045C08091760090917700A0917800B091AA
:1018300079000196A11DB11D8093760090937700E9
:10184000A0937800B0937900A2CFD8018D918D013B
:1018500093D1811132C0802F8B198915B0F38091FB
:10186000720090917300A0917400B09175008C1972
:101870009D09AE09BF098093720090937300A093F5
:101880007400B0937500892B8A2B8B2B09F0D1CE75
:1018900080916200811108C010927C0010926C004F
:1018A00010926A0011E030C055D1A7CF53D11092E9
:1018B0007C0010926C0010926A001EEF25C00A3363
:1018C000E9F56C2D8D819E8124DE182F8111F5C0E4
:1018D0008091720090917300A0917400B091750096
:1018E0008C199D09AE09BF09809372009093730013
:1018F000A0937400B0937500892B8A2B8B2B09F071
:1019000098CEA4D110927C00A99AA898812F2696EF
:101910000FB6F894DEBF0FBECDBFDF91CF911F9100
:101920000F91FF90EF90DF90CF90BF90AF909F907E
:101930008F907F906F905F904F900895013029F0C5
:101940001CEF043019F01FEFDFCF1BEF8D80A82CA8
:10195000BE808A2D88198915F8F0809172009091C7
:101960007300A0917400B09175008C199D09AE09A7
:10197000BF098093720090937300A0937400B0939A
:101980007500892B8A2B8B2B09F053CE013009F47B
:1019900064C010927C0086CFF50141915F01809177
:1019A000760090917700A0917800B0917900013095
:1019B000B9F521E0E0916F00F0917000EF2B09F094
:1019C00020E0BC01CD01F0D781119ECF80916F0046
:1019D00090917000009741F140917600509177000E
:1019E00060917800709179002091710021502093CE
:1019F0007100211119C0919581959109B0E0A0E085
:101A00002C013D014422552266227722C301B201F6
:101A10005AD7C301B20122D88823D1F01AEF74CF6C
:101A2000642F80D8811170CF8091760090917700DB
:101A3000A0917800B09179000196A11DB11D80930D
:101A4000760090937700A0937800B093790081CFCF
:101A500080916F0080937100E7CF20916F003091EB
:101A600070002115310509F494CF8091710082171F
:101A7000130609F48ECFC0907600D0907700E090E6
:101A80007800F0907900F1E0CF1AD108E108F10870
:101A9000319521953109C901B0E0A0E0C222D922D7
:101AA000EA22FB22C701B6010ED7C701B601D6D77D
:101AB0008111B4CF6ECF1FEF29CF1DEF27CF12BA00
:101AC00018BA88B38C7F88BB87B3836087BB2FE944
:101AD0003EE482E0215030408040E1F700C0000049
:101AE00017BA93E094BBA29885B38C6385BBA89882
:101AF0002FE936EA84E0215030408040E1F700C011
:101B00000000A89AA9982FE936EA84E021503040D5
:101B10008040E1F700C00000A99AA89893BF93D530
:101B2000789480D4FECFBC98C49ABB98C39A089589
:101B3000BC98C49ABB98C39A84E18A95F1F7BC9A81
:101B4000C49884E18A95F1F7BB9AC39884E18A9599
:101B5000F1F70895BB9AC398BC9AC49888E08A9517
:101B6000F1F7BB98C39A88E08A95F1F7BC98C49ABC
:101B700084E18A95F1F7089598E0BB9AC39828E02C
:101B80002A95F1F787FF21C0BC98C49A28E02A95CE
:101B9000F1F7BB98C39A24E12A95F1F7880F915089
:101BA00061F7BB9AC398BC98C49A88E08A95F1F70C
:101BB000BB98C39A24E12A95F1F786B3BB9AC398E0
:101BC00082958F70809581700895BC9AC498DECFFD
:101BD000282FBC98C49A98E080E0BB9AC39834E15F
:101BE0003A95F1F7BB98C39A34E13A95F1F7880F2B
:101BF000B4998160915089F7BB9AC39821110FC0A5
:101C0000BC9AC49898E09A95F1F7BB98C39A38E0CB
:101C10003A95F1F7BB9AC398BC98C49A0895BC98BA
:101C2000C49AF0CFC598089587B38C6287BBBC98DF
:101C3000F9DFC398C2980895C298C598BFD5C29AD3
:101C4000C39ABCD5C59ABAD5C598B8C5C298EACFCB
:101C5000CF93DF93D82F6150770BC1E001C0CC0F39
:101C60006A95EAF7C11104C080E0DF91CF91089531
:101C7000D9DF8C2F8D2339F0C39AA0D5C59A9ED574
:101C8000D1DFC695EFCFC398F8CFCF93DF93D8E0DD
:101C9000C0E0C8DF93D5C59A86B382958170CC0F1A
:101CA000C82B8CD5BFDFD150A1F78C2FDF91CF91FE
:101CB0000895CF93B9DFC29A88E28A95F1F77ED56D
:101CC000C6B3C4DFC295C17081E08C27CF9108955F
:101CD000CF93AADFC29A88E28A95F1F768E080EC98
:101CE000B7DFC0E09FDF6AD5C59A68D5B49906C052
:101CF000CA5F98DFABDF8C2FCF91089593DFCF5F62
:101D0000C73081F7CFEFF6CFA1E21A2EAA1BBB1B7B
:101D1000FD010DC0AA1FBB1FEE1FFF1FA217B307B7
:101D2000E407F50720F0A21BB30BE40BF50B661FCD
:101D3000771F881F991F1A9469F760957095809591
:101D400090959B01AC01BD01CF010895F894FFCFA0
:061D5000FF1001A0FF01DD
:00000001FF
