:1000000048C07CC061C060C05FC05EC05DC05CC0F5
:100010005BC05AC059C058C057C056C055C054C024
:1000200053C052C051C009021200010100A01909B9
:10003000040000000000000012011001FF00000891
:10004000C016DC050701010200010E035500530034
:1000500042006100730070001C0377007700770096
:100060002E00660069007300630068006C002E00BB
:1000700064006500040309040D0C0B0A0908070657
:1000800005040302010001000100005051515252C9
:10009000530011241FBECFE5D4E0DEBFCDBF10E07A
:1000A000A0E6B0E0ECE7F9E102C005900D92A436BD
:1000B000B107D9F720E0A4E6B0E001C01D92A53B4E
:1000C000B207E1F723DB58CC9BCFA82FB92F80E0F4
:1000D00090E041E050EA609530E009C02D91822720
:1000E0009795879510F084279527305EC8F36F5F4A
:1000F000A8F30895EADF8D939D930895CF93CFB72A
:10010000CF93C395B09BE9F7B09B09C0B09B07C0E4
:10011000B09B05C0B09B03C0B09B01C0A1C0DF93E2
:10012000C0919300DD27C556DF4FB09B02C0DF9121
:10013000EBCF2F930F931F9306B32FEF00FB20F904
:100140004F933F9316B34FEF012700FB21F93BE09C
:1001500031C04E7F012F16B3216028C0102F4D7F74
:100160002260000006B329C04B7F2460012F0000ED
:1001700016B32BC016B3477F28602AC04F7E06B344
:1001800020612CC04F7D16B320622FC04F7B06B379
:10019000206432C0422706B349934FEF0000102776
:1001A00010FB20F916B31370C9F1297F91F20127D2
:1001B00000FB21F906B3237F89F2315058F1102753
:1001C00010FB22F916B3277E79F2012700FB23F9F1
:1001D0002F7C81F206B3102710FB24F92F7971F2DE
:1001E00000C016B3012700FB25F92F7359F200C098
:1001F00006B3102710FB26F9223040F200C016B3D8
:10020000012700FB27F9243028F64F77206816B322
:100210000000F9CF10E41ABF002717C03B503195FA
:10022000C31BD04010E41ABF0881033CE9F00B3433
:10023000D9F0209191001981110F1213EDCF0936D9
:1002400041F10D3211F0013E39F7009399003F91D1
:100250004F911F910F912F91DF91CAB7C6FD51CFDA
:10026000CF91CFBFCF91189520919900222379F398
:1002700010919700112311F5343012F1309397004B
:1002800020939200109193003BE0311B3093930038
:1002900017C00091970001308CF40AE5309194006A
:1002A00034FD10C000939400C6E8D0E00FC027953D
:1002B000A8F45150A9F4220F0000F9CF4AE503C079
:1002C00042ED01C0432FC4E1D0E032E017B3136028
:1002D000C09A17BB08B320E413E05F93012756E0F0
:1002E00008BB279520F4515021F4220FF9CF0127A4
:1002F00056E000003B5A08BBD0F2279528F4515035
:1003000029F4220F0000F9CF012756E0279508BBFA
:1003100020F4515021F4220FF9CF012756E0299102
:10032000332308BB21F60C7F10919800110FC651A2
:10033000D04008BB11F01093910010E41ABF016087
:1003400017B31C7F402F4C7F5F9100C000C008BBDB
:1003500017BB48BB7CCFC598BD9ABB98C39A50E2E7
:100360002AD05A95E9F7089527D028E0332738276F
:1003700080FB869522D02A95D1F730FB1ED01BD06A
:100380001AC020EC18D046F42A95E1F780E02AE163
:1003900013D02A95E9F70FC028E0332788270BD020
:1003A000869587F938272A95D1F705D027F932277E
:1003B0007AF301D000C06894E89416F4C39A01C09F
:1003C000C39806D0C59AE6B3E3FB02D0C59808955A
:1003D000E091B200F091B3003197F0F7089518D092
:1003E00084E2C2DFCEDF8D934A95D1F7089510D015
:1003F00083EFBADF8DE1B8DF84E6B6DF8D91B4DF3D
:1004000082E7B2DFBEDF8078D9F74A9589F7089591
:10041000AC0188E6A9DF842FA7DF89E6A5DF852F59
:10042000A3CFBA01A901DBCFBA01A901E0CFCF93D5
:10043000DF9360919700635067FD90C080919300B7
:10044000CCE0D0E0C81BD109C556DF4F80919200A7
:100450008D3209F0BFC0683009F07EC083EC809314
:1004600086008AE5809394001092640088818076EB
:1004700071F0CE01B1D38F3F09F466C09F81911115
:1004800069C09E81981708F065C0892F63C02A81D2
:1004900010928F00998191110AC0109290002FE85C
:1004A00030E082E03093960020939500E7CF9530BE
:1004B00029F4209398002FE830E0F4CF963099F596
:1004C0009B81913059F488E390E09093960080935B
:1004D000950082E190E490936400D0CF923019F4BB
:1004E00086E290E0F2CF9330A9F7211108C084E7AB
:1004F00090E0909396008093950084E0EBCF2130BC
:1005000041F488E590E090939600809395008CE10B
:10051000E1CF2230F9F68AE490E090939600809340
:1005200095008EE0D7CF983059F0993019F4209388
:100530009A00C1CF81E09A3009F4BDCF80E0BBCFF3
:100540002AE930E081E0AECF988197FD8E8190E876
:1005500090936400809365001092970080919400BE
:1005600084FF2BC0C0916500CF3F39F16C2FC9309B
:1005700008F068E08C2F861B8093650080918600D0
:1005800098E8892780938600CC2359F02091640055
:1005900027FF32C087E890E03BD5C82F893008F0AC
:1005A00052C06C2F87E890E0A5DDCC5FCC3019F00D
:1005B0008FEF80936500C093940084E196B39370AD
:1005C00031F48150D9F71092980010929100DF9188
:1005D000CF9108958091640087FFBECFCE01A4D64D
:1005E0008F3F21F48EE180939400B6CF882309F4E5
:1005F000B3CF10926500B0CF809195009091960096
:1006000026FF17C0FC01A7E8B0E0262F280F349181
:100610003D9331962E13FBCF2FEF260F30E02F5F47
:100620003F4F820F931F9093960080939500C62FA3
:10063000B8CFA7E8B0E0FC01262F280F31913D93F9
:100640002E13FCCFE9CF8FEF80936500CEE1B3CFBF
:100650008AE5809394008FEF8093650085B7826070
:1006600085BF8BB780648BBF08958FB9779BFECF12
:100670008FB10895809167008DB9809166008EB921
:10068000089587B38C6287BBBC9880916900909174
:100690006A008553934009F4EDDF8FEF809360008B
:1006A0000895811105C080916100811101C08DE024
:1006B0009FEF980F9D3008F08DE080937C0098EFBD
:1006C000980F9630D0F425E333E030936A002093FE
:1006D000690091E090936800EDE0E81B8E2F90E0B8
:1006E000FC01E557FF4FE491E0936700FC01EB57F5
:1006F000FF4FE491E0936600BDCF08950F931F93E1
:10070000CF93DF93C82FCDDF11E0DFE3C83010F4C3
:100710001FE0DAEFC3E0C29A812FEBD1C2988D2F90
:10072000E8D1E0916900F0916A008CEA0995E091C6
:100730006900F0916A0083E50995E0916900F09104
:100740006A0080E00995082FE0916900F0916A0045
:1007500080E00995033511F4882329F083E0C9D19D
:10076000C150C9F681E0DF91CF911F910F9108959B
:1007700022B79091680082B7821B8917E0F3089531
:1007800080DFC298C59881E0B4D1C29A81E0B1D12E
:10079000C298089576DFC29A0895C29A81E0A9D1DD
:1007A00087B3837D87BB88B3837D88BB1DB81092D8
:1007B0007C0008950F931F93CF93DF9380916C007B
:1007C000882371F080917C0099DF811120C0909185
:1007D0007C0090936100DF91CF911F910F9108955C
:1007E00080916100811109C0C0E00C2F10E0085811
:1007F0001F4FCD30E9F481E0EECF80DF811105C0DD
:100800009091610090937C00E6CF109261008091FE
:100810006C00882349F380917C00E8E7F0E0C0E0B9
:100820009491CF5F891709F33196CD30C9F7DCCFAA
:10083000F801D4918D2F62DF0F5F1F4F811105C02A
:10084000D0937C00D0936100C6CFCF5FD2CFCF933F
:1008500090916B00992309F1C82FC6958091600093
:100860008C17D9F0C0936000E0916900F0916A00A4
:100870008DE40995E0916900F0916A0080E00995A6
:10088000E0916900F0916A008C2F0995E091690070
:10089000F0916A0080E0CF910994CF910895CF92B2
:1008A000DF92EF92FF926B017C01862F880F880FF9
:1008B000880F8870E0916900F0916A008062099564
:1008C000D701C60129E0B695A795979587952A95F2
:1008D000D1F7E0916900F0916A000995D701C6014E
:1008E000B695A79597958795E0916900F0916A0074
:1008F0000995E0916900F0916A0080E0FF90EF9027
:10090000DF90CF900994CF92DF92EF92FF92CF9336
:10091000DF936B017C01D42FC22F862F880F880FA5
:10092000880F8870E0916900F0916A0080640995F1
:10093000D701C60129E0B695A795979587952A9581
:10094000D1F7E0916900F0916A000995D701C601DD
:10095000B695A79597958795E0916900F0916A0003
:100960000995E0916900F0916A008D2F0995C111F8
:1009700008C080E0DF91CF91FF90EF90DF90CF90A3
:100980000895C701B6018BDFC0E18D1791F381E0B7
:10099000B0D0C701B60183DF8D1759F3C15011F4F0
:1009A00081E0E8CFCB3098F784E0C83088F382E06C
:1009B000EFCFCF92DF92EF92FF92CF936B017C014A
:1009C000E0916900F0916A008CE40995D701C601B5
:1009D00029E0B695A795979587952A95D1F7E09147
:1009E0006900F0916A000995D701C601B695A795EF
:1009F00097958795E0916900F0916A000995E091DB
:100A00006900F0916A0080E00995C9E181E071D048
:100A1000C701B60144DF8F3F81F4C15039F481E052
:100A2000CF91FF90EF90DF90CF900895C03170F795
:100A300084E0C63060F382E0EACF80E0F1CFCF936C
:100A4000DF93EC01E0916900F0916A0080EA09957A
:100A5000E0916900F0916A008D2F0995E09169009D
:100A6000F0916A008C2F0995E0916900F0916A007D
:100A700080E0DF91CF9109940F931F93CF93DF9381
:100A8000182F092FD62FE0916900F0916A0080ECB1
:100A90000995E0916900F0916A00802F0995E09135
:100AA0006900F0916A00812F0995E0916900F09149
:100AB0006A008D2F0995812F902FC1DFC6E08D131D
:100AC00016C080E0DF91CF911F910F910895C5303E
:100AD00071F084E0C33008F082E00BD0812F902FBA
:100AE000AEDF8D1771F3C15091F781E0EBCF81E05C
:100AF000F4CF22B792B7921B9C33E0F38150C9F731
:100B00000895262F30916B0031110FC0FC014281F6
:100B10005381052E000C660B770B409378005093A1
:100B2000790060937A0070937B00FC018681978145
:100B3000909377008093760020937D000895FC01C8
:100B4000828193819093730080937200848180935B
:100B500074008581809371008681978190937700DE
:100B6000809376001092700060937D0008950F933B
:100B70001F93CF93DF93EB018A014ADC0C0F1D1FFB
:100B8000C017D10729F4DF91CF911F910F910895DC
:100B900084E2EADBF6DB8993F3CF0F931F93CF93C5
:100BA000DF93EB018A0134DC0C0F1D1FC017D10746
:100BB00029F4DF91CF911F910F91089583EFD4DB3A
:100BC0008DE1D2DB84E6D0DB8991CEDB82E7CCDB22
:100BD000D8DB87FDFBCFEACFEF92FF920F931F93F5
:100BE000CF93DF938C01EEE7F0E088E0DF011D9208
:100BF0008A95E9F7F801C181C13009F580917C003F
:100C000050DD10926B00A898BBDDD4DD80936D00A1
:100C1000882319F0C2DD1092610080916D008093ED
:100C20007E008EE790E090939600809395008C2F45
:100C3000DF91CF911F910F91FF90EF900895C233F4
:100C400039F480917C002DDDA898A4DDC0E0E9CFC7
:100C5000C33371F4C2988281809362008681978148
:100C60009093770080937600C0937D00CFEFD9CF2B
:100C7000C43371F4C2988281809362008681978127
:100C8000909377008093760082E380937D00EECF8F
:100C9000C63419F4A8986ED5D9CFC93411F46FD5DC
:100CA000D5CFCA3411F47DD5D1CFCC3429F482818B
:100CB0008AD580937E0061C0CB3419F48281AFD590
:100CC000F8CFC734F9F45BD560E0D80112968C9167
:100CD000D0D5F801858180FF02C0848174D5D80108
:100CE00013968C9170D54BD561E0F8018281C1D506
:100CF000D80116968D919C91909377008093760001
:100D000086E3C3CFC83401F53AD560E0F8018281AB
:100D1000B0D5D80115968C911597C82F80FF03C0C8
:100D200014968C9150D5F80183814DD5C695C1702C
:100D3000C093B400D80116968D919C919093770042
:100D40008093760085E3A1CFCD3429F4828187FF9B
:100D500014C081E0AECF6AE3CD3519F0CC3521F473
:100D600069E3C801ECDE82CFCE3549F4D3D591E0FA
:100D7000811101C090E090937E00C1E052CFCF3549
:100D800011F4D7D596CFCA3581F5A89883D5F80147
:100D900082819381A481B5818093780090937900BA
:100DA000A0937A00B0937B0066816F717AD5D801E9
:100DB0001696CC911697C295C695C7701696CC9389
:100DC0008EE7E82E80E0F82E10E0C11711F0143005
:100DD00031F465D5C53008F424CFC4E022CF86D5E0
:100DE000F70181937F011F5FF0CFC23019F4D5DC8A
:100DF000A99A2CCFC33089F5E0916900F0916A007F
:100E0000D80112968C91099580937E00E09169003B
:100E1000F0916A00D80113968C91099580937F0018
:100E2000E0916900F0916A00D80114968C910995BF
:100E300080938000E0916900F0916A00D8011596D6
:100E40008C9109958093810010928200109283000A
:100E50001092840010928500C0CFC53011F4AADC36
:100E600028CF62E0C43009F4C3C063E0C73009F49E
:100E7000BFC0C63041F580916B0081110EC08281E8
:100E80009381092E000CAA0BBB0B809378009093E2
:100E90007900A0937A00B0937B00D80114968C91CE
:100EA000149715969C91159780936E0090936F0000
:100EB0008093750016968D919C9190937700809306
:100EC000760081E0E2CEC83001F580916B0081119F
:100ED0000EC082819381092E000CAA0BBB0B80935C
:100EE000780090937900A0937A00B0937B001092E1
:100EF0006F0010926E00D80116968D919C91909380
:100F000077008093760084E0C0CEC93099F481E008
:100F100080936B00628173818481958160937800F6
:100F20007093790080937A0090937B0090DC10920C
:100F30007E0023CFCA3061F4828180937C008111CE
:100F400003C010926C0019CF81E080936C0015CF24
:100F5000C131B1F480917C0080937F008091610069
:100F60008093800080916800809381008091600070
:100F70008093820080917D0080938300C6E051CEF3
:100F8000CB3091F4828193819093B3008093B2002F
:100F900010926B00C29ABA9A83E0ABDDC298A8980F
:100FA00080E1A7DDD8D952CECC3099F480ECDCD9E1
:100FB00080E0DAD98AE09DDDC29A85E09ADDC298A8
:100FC00085E097DD87B3837D87BB88B3837D88BB4E
:100FD0003DCECD3011F4D5D96CCECE3019F482810E
:100FE000C3D9A5CF65E0CF3019F0C03121F466E058
:100FF000C80187DD3BCECF3709F028CE83E180934F
:101000007E0081E880937F008FEC80938100E5CEA5
:101010004F925F926F927F928F929F92AF92BF9208
:10102000DF92EF92FF920F931F93CF93DF93EC0128
:1010300080917D009EEF980F923048F0853039F016
:10104000833329F0893319F0863309F059C170E0F0
:1010500000917600109177006017710708F48B01FA
:10106000D02EA99880917D00853041F5A801BE0160
:1010700080917800909179007ADD8091780090914C
:101080007900A0917A00B0917B00800F911FA11D83
:10109000B11D8093780090937900A0937A00B0936B
:1010A0007B008091760090917700801B910B90934C
:1010B000770080937600892B31F523C0833331F597
:1010C000F02E07C0E0916900F0916A0080E0099578
:1010D0008993FA943FEFF312F5CF809176009091C7
:1010E0007700801B910B9093770080937600892B7B
:1010F00051F480916200882321F0C29A84E08A959D
:10110000F1F710927D00A99AA898FDC0863341F5A9
:10111000E0907600F0907700E016F10608F4870181
:10112000D02E57018E2D8A198D1550F0E01AF10A34
:10113000F0927700E0927600EF2829F732D3E1CFE2
:10114000E1E0AE1AB1084E01FFEF8F1A9F0A81E06D
:10115000A114B10409F080E062D38883E401E2CFF6
:10116000893309F04DC080917000811127C0209112
:10117000740082E0820FEE24E394F12C02C0EE0CA6
:10118000FF1C8A95E2F78091720090917300E82A23
:10119000F92A80917100837090E002C0880F991F36
:1011A0002A95E2F7E82AF92A75D3609174006D5FF9
:1011B000C70177D3DBD381E080937000E0907600A5
:1011C000F09077000E151F0508F47801DE2C1E2D17
:1011D000115098F480917600909177008E199F09B4
:1011E0009093770080937600892B09F08CCF57D3AA
:1011F00010927D001092700086CF78D38993E8CF4B
:10120000823009F047C08090780090907900A090DB
:101210007A00B0907B00E0907600F09077000E1599
:101220001F0508F47801DE2CC501B40110DBCE01E6
:1012300024013501282F2C1B2D1598F08D0C911CA5
:10124000A11CB11C8092780090927900A0927A0043
:10125000B0927B0080917600909177008E199F0963
:1012600026CF8C01C301B2011ADBF80181938F01F3
:10127000FFEF4F1A5F0A6F0A7F0AD301C201A17004
:10128000BB27892B8A2B8B2B19F4C301B201DFDA20
:10129000C801D0CF8330A1F5E0907600F0907700C0
:1012A0000E151F0508F478011E2D115080F4809151
:1012B0007600909177008E199F0990937700809324
:1012C0007600892B11F410927D00DE2C1CCF8091CA
:1012D000780090917900A0917A00B0917B00AC01E8
:1012E000BD014F5F5F4F6F4F7F4F4093780050932A
:1012F000790060937A0070937B00A1DB8993D5CF4E
:10130000A99ADD24DA948D2DDF91CF911F910F9151
:10131000FF90EF90DF90BF90AF909F908F907F9065
:101320006F905F904F9008958F929F92AF92BF926F
:10133000CF92DF92EF92FF920F931F93CF93DF93A1
:10134000EC0180917D00882309F4DEC1813059F0E1
:10135000982F9D7F943039F0982F977F923319F012
:10136000853309F0D1C170E08090760090907700CD
:101370006815790508F44B01A99810917D00163085
:10138000C9F5A401BE01809178009091790005DC37
:101390008091780090917900A0917A00B0917B00C3
:1013A000880D991DA11DB11D80937800909379003F
:1013B000A0937A00B0937B008091760090917700A3
:1013C000881999099093770080937600892B09F406
:1013D00052C010E0A99AA898812FDF91CF911F9158
:1013E0000F91FF90EF90DF90CF90BF90AF909F90C4
:1013F0008F9008951233F1F4182D1150A0F48091BC
:1014000076009091770088199909909377008093DE
:101410007600892BF1F6809162008111C29A1092B8
:101420007D0011E0D7CFE0916900F0916A008991C9
:101430000995E3CF153341F5E0907600F090770001
:101440008E149F0408F47401DE2CCE01282F2C1B6F
:101450002D15A0F080917600909177008E199F094C
:101460009093770080937600892B09F0B2CF80911A
:10147000B400811196D110927D00ABCFFC01819117
:101480008F01A1D1C801E2CF1A3309F04EC080917B
:101490007000811125C02091740082E0820F01E06C
:1014A00010E002C0000F111F8A95E2F780917200D0
:1014B00090917300082B192B80917100837090E03C
:1014C00002C0880F991F2A95E2F7082B192BE2D149
:1014D000609174006D5FC801E4D181E08093700079
:1014E00000917600109177008016910608F484012F
:1014F000F02EFA942FEFF21213C0809176009091A3
:101500007700801B910B9093770080937600892B56
:1015100009F05FCFC4D110927D001092700081CF8E
:10152000899168E090E0BDD1E4CF113009F0B4C0FA
:10153000C0907800D0907900E0907A00F0907B0025
:10154000C701B60184D95E01A80CB91C0FEFCA15FA
:10155000DB0509F040C0C0927800D0927900E0929B
:101560007A00F0927B008091760090917700881944
:1015700099099093770080937600892B09F029CF01
:1015800010927D0060916E0070916F006115710581
:1015900009F420CF809175008617170609F41ACF39
:1015A00041E0C41AD108E108F108B0E0A0E09B01D5
:1015B000AD0166277727CB01621B730B840B950B5C
:1015C0006C217D218E219F21F4D981111AEF8FEF9B
:1015D00080936000FFCE499180916E0090916F00E2
:1015E000892B99F421E0C701B6018DD9882309F42C
:1015F00041C010927D00C0927800D0927900E092B4
:101600007A00F0927B001BEFE5CE20E0C701B60127
:101610007AD98111EECF8091750081508093750049
:10162000811128C080916E0090916F00B0E0A0E021
:101630009C01AD0166277727CB01621B730B840BDE
:10164000950B6C217D218E219F21B3D9882361F0D8
:1016500010927D00C0927800D0927900E0927A00DA
:10166000F0927B001AEFB6CE80916E0080937500E9
:10167000009360003FEFC31AD30AE30AF30AD701CD
:10168000C601A170BB27892B8A2B8B2B09F05FCF5A
:10169000C701B601DCD85BCF1430A1F58E01080D6F
:1016A000191DC017D10771F48091760090917700D1
:1016B000881999099093770080937600892B09F413
:1016C000AECE87CE69918091780090917900D4D97F
:1016D000882321F010927D001CEF7CCE8091780051
:1016E00090917900A0917A00B0917B000196A11DA4
:1016F000B11D8093780090937900A0937A00B09305
:101700007B00CFCF1FEF66CE1FEF66CE12BA18BA9E
:1017100088B38C7F88BB87B3836087BB2FE93EE4A7
:1017200082E0215030408040E1F700C0000017BA4D
:1017300093E094BBA29885B38C6385BBA8982FE9EE
:1017400036EA84E0215030408040E1F700C00000DC
:10175000A89AA9982FE936EA84E0215030408040C9
:10176000E1F700C00000A99AA89893BF71D77894B8
:101770005ED6FECFBC98C49ABB98C39A0895BC9815
:10178000C49ABB98C39A80E18A95F1F7BC9AC49831
:1017900080E18A95F1F7BB9AC39880E18A95F1F7C9
:1017A0000895BB9AC398BC9AC49888E08A95F1F7CB
:1017B000BB98C39A88E08A95F1F7BC98C49A80E1F7
:1017C0008A95F1F7089598E0BB9AC39828E02A9586
:1017D000F1F787FF21C0BC98C49A28E02A95F1F759
:1017E000BB98C39A20E12A95F1F7880F915061F7D1
:1017F000BB9AC398BC98C49A88E08A95F1F7BB98C5
:10180000C39A20E12A95F1F786B3BB9AC3988295D3
:101810008F70809581700895BC9AC498DECF282F70
:10182000BC98C49A98E080E0BB9AC39830E13A959E
:10183000F1F7BB98C39A30E13A95F1F7880FB49964
:101840008160915089F7BB9AC39821110FC0BC9A4F
:10185000C49898E09A95F1F7BB98C39A38E03A9506
:10186000F1F7BB9AC398BC98C49A0895BC98C49ADF
:10187000F0CF880F613009F48160A5CFC59A089533
:10188000C598089587B38C6287BBBC98F9DFC3986D
:10189000C2980895C298C5986BD7C29A69C7C29872
:1018A000EFCF0F931F93CF93DF938C016150770B92
:1018B000C1E0D0E002C0CC0FDD1F6A95E2F72097AF
:1018C00029F4DF91CF911F910F910895D9DFCE01B7
:1018D00080239123892B41F0C39A4AD7CFDF48D781
:1018E000CFDFD695C795EBCFC398F7CFCF93DF93D4
:1018F000D8E0C0E0C5DF3CD7C1DF86B382958170F8
:10190000CC0FC82B35D7BCDFD150A1F78C2FDF917E
:10191000CF910895CF93B6DFC29A88E28A95F1F706
:1019200027D7C6B3BCDFC295C17081E08C27CF91A9
:101930000895CF93A7DFC29A88E28A95F1F768E00D
:1019400080EC90E0AEDFC0E09BDF12D797DF10D7CE
:10195000B49906C0CA5F94DFA2DF8C2FCF9108959F
:101960008FDFCF5FC73081F7CFEFF6CF89DF00D7AA
:0C19700085DFFED686B384CFF894FFCF4D
:04197C00FF0D01005A
:00000001FF
