:1000000042C076C05BC05AC059C058C057C056C025
:1000100055C054C053C052C051C050C04FC04EC054
:100020004DC04CC04BC009021200010100A01909CB
:10003000040000000000000012011001FF00000891
:10004000C016DC050701010200010E035500530034
:1000500042006100730070001C0377007700770096
:100060002E00660069007300630068006C002E00BB
:1000700064006500040309040E0D0C0B0A0908074F
:1000800006050403020111241FBECFE5D4E0DEBF44
:10009000CDBF10E0A0E6B0E0ECE1FBE102C00590CE
:1000A0000D92A436B107D9F720E0A4E6B0E001C074
:1000B0001D92A23BB207E1F7D2DB2ECDA1CFA82F34
:1000C000B92F80E090E041E050EA609530E009C04F
:1000D0002D9182279795879510F084279527305E7C
:1000E000C8F36F5FA8F30895EADF8D939D93089599
:1000F000CF93CFB7CF93C395B09BE9F7B09B09C01F
:10010000B09B07C0B09B05C0B09B03C0B09B01C0B3
:10011000A1C0DF93C0918E00DD27CA56DF4FB09B90
:1001200002C0DF91EBCF2F930F931F9306B32FEFF6
:1001300000FB20F94F933F9316B34FEF012700FBCD
:1001400021F93BE031C04E7F012F16B3216028C05A
:10015000102F4D7F2260000006B329C04B7F246022
:10016000012F000016B32BC016B3477F28602AC0AA
:100170004F7E06B320612CC04F7D16B320622FC086
:100180004F7B06B3206432C0422706B349934FEF3A
:100190000000102710FB20F916B31370C9F1297F56
:1001A00091F2012700FB21F906B3237F89F2315038
:1001B00058F1102710FB22F916B3277E79F2012798
:1001C00000FB23F92F7C81F206B3102710FB24F9E2
:1001D0002F7971F200C016B3012700FB25F92F73A8
:1001E00059F200C006B3102710FB26F9223040F266
:1001F00000C016B3012700FB27F9243028F64F77FB
:10020000206816B30000F9CF10E41ABF002717C00A
:100210003B503195C31BD04010E41ABF0881033C0A
:10022000E9F00B34D9F020918C001981110F1213D1
:10023000EDCF093641F10D3211F0013E39F700934F
:1002400094003F914F911F910F912F91DF91CAB769
:10025000C6FD51CFCF91CFBFCF911895209194007B
:10026000222379F310919200112311F5343012F109
:100270003093920020938D0010918E003BE0311B53
:1002800030938E0017C00091920001308CF40AE583
:1002900030918F0034FD10C000938F00C1E8D0E092
:1002A0000FC02795A8F45150A9F4220F0000F9CFF0
:1002B0004AE503C042ED01C0432FC4E1D0E032E083
:1002C00017B31360C09A17BB08B320E413E05F9321
:1002D000012756E008BB279520F4515021F4220F46
:1002E000F9CF012756E000003B5A08BBD0F2279512
:1002F00028F4515029F4220F0000F9CF012756E0CD
:10030000279508BB20F4515021F4220FF9CF012783
:1003100056E02991332308BB21F60C7F10919300FE
:10032000110FC651D04008BB11F010938C0010E49F
:100330001ABF016017B31C7F402F4C7F5F9100C034
:1003400000C008BB17BB48BB7CCFC598BD9ABB9803
:10035000C39A50E22AD05A95E9F7089527D028E0A9
:100360003327382780FB869522D02A95D1F730FB9A
:100370001ED01BD01AC020EC18D046F42A95E1F705
:1003800080E02AE113D02A95E9F70FC028E033274F
:1003900088270BD0869587F938272A95D1F705D07D
:1003A00027F932277AF301D000C06894E89416F454
:1003B000C39A01C0C39806D0C59AE6B3E3FB02D046
:1003C000C5980895E091B000F091B1003197F0F731
:1003D000089518D084E2C2DFCEDF8D934A95D1F71D
:1003E000089510D083EFBADF8DE1B8DF84E6B6DF81
:1003F0008D91B4DF82E7B2DFBEDF8078D9F74A950E
:1004000089F70895AC0188E6A9DF842FA7DF89E684
:10041000A5DF852FA3CFBA01A901DBCFBA01A901BE
:10042000E0CFCF93DF9360919200635067FD90C05F
:1004300080918E00CCE0D0E0C81BD109CA56DF4FB6
:1004400080918D008D3209F0BFC0683009F07EC008
:1004500083EC809381008AE580938F001092640082
:100460008881807671F0CE01E7D38F3F09F466C0B2
:100470009F81911169C09E81981708F065C0892FEE
:1004800063C02A8110928A00998191110AC010924A
:100490008B002AE830E082E03093910020939000B6
:1004A000E7CF953029F4209393002AE830E0F4CF89
:1004B000963099F59B81913059F488E390E09093C0
:1004C00091008093900082E190E490936400D0CFFB
:1004D000923019F486E290E0F2CF9330A9F721111F
:1004E00008C084E790E0909391008093900084E0AE
:1004F000EBCF213041F488E590E090939100809318
:1005000090008CE1E1CF2230F9F68AE490E09093FC
:100510009100809390008EE0D7CF983059F09930B9
:1005200019F420939500C1CF81E09A3009F4BDCF32
:1005300080E0BBCF25E930E081E0AECF988197FD28
:100540008E8190E8909364008093650010929200F1
:1005500080918F0084FF2BC0C0916500CF3F39F19F
:100560006C2FC93008F068E08C2F861B80936500E3
:100570008091810098E8892780938100CC2359F0ED
:100580002091640027FF32C082E890E09ED5C82FFA
:10059000893008F052C06C2F82E890E0A5DDCC5F76
:1005A000CC3019F08FEF80936500C0938F0084E109
:1005B00096B3937031F48150D9F710929300109252
:1005C0008C00DF91CF9108958091640087FFBECFAA
:1005D000CE01DED68F3F21F48EE180938F00B6CF1F
:1005E000882309F4B3CF10926500B0CF80919000BA
:1005F0009091910026FF17C0FC01A2E8B0E0262FE1
:10060000280F34913D9331962E13FBCF2FEF260FF9
:1006100030E02F5F3F4F820F931F909391008093A4
:100620009000C62FB8CFA2E8B0E0FC01262F280F1B
:1006300031913D932E13FCCFE9CF8FEF809365006E
:10064000CEE1B3CF8AE580938F008FEF8093650072
:1006500085B7826085BF8BB780648BBF08958FB9E3
:10066000779BFECF8FB10895DC01CB0121E1B695D8
:10067000A795979587952A95D1F72091AE002817D1
:10068000D9F08093AE00E0916700F09168008DE4AE
:100690000995E0916700F091680080E00995E0918C
:1006A0006700F09168008091AE000995E0916700C5
:1006B000F091680080E0099408958091AD008DB9B3
:1006C0008091AC008EB908951DB88823B1F08830B0
:1006D00078F12FE233E030936800209367001092A6
:1006E000AC0091E09093AF008B30D1F040F48930B2
:1006F000D9F0C0F48830D1F0E0CF8CE0EACF8D3073
:1007000049F060F08E30C1F780E58093AD009093A2
:10071000AC00F2CF80E58093AD00EECF81E5F5CF60
:1007200081E5F9CF82E5F1CF82E5F5CF83E5F3CF1F
:100730002EEF33E03093680020936700843091F00F
:1007400030F4823099F0833079F080EC06C0863046
:1007500021F030F08730C9F783E08093AF0008952F
:100760008CE0FBCF88E1F9CF80E3F7CF80E6F5CFCF
:100770000F931F93CF93DF93C82FA6DF11E0DFE322
:10078000C83010F41FE0DAEFC3E0C29A812F08D21C
:10079000C2988D2F05D2E0916700F09168008CEA35
:1007A0000995E0916700F091680083E50995E09173
:1007B0006700F091680080E00995082FE0916700DC
:1007C000F091680080E00995033511F4882349F021
:1007D00087E99AE30197F1F700C00000C150A9F63C
:1007E00081E0DF91CF911F910F91089522B79091F1
:1007F000AF0082B7821B8917E0F308951F93CF9350
:10080000DF93182FC598D8E0C0E017FF13C0C39A34
:10081000110FECDFC59AEADF86B382958170CC0FA9
:10082000C82BC598E3DFD15081F78C2FDF91CF9192
:100830001F910895C398ECCF87B38C6287BBBC9897
:10084000C298C59881E0ACD1C29A81E0A9D1C29882
:1008500080916700909168008F52934009F42DDFDA
:100860008FEF8093AE00089587B38C6287BB809131
:100870006700909168008F52934009F41EDF8FEF5C
:100880008093AE00C29A089587B3837D87BB88B3F7
:10089000837D88BB109277000895CF93C82F8091F5
:1008A00060008C1751F08FEF8C0F8E3030F46C2F6E
:1008B00080E190E020D9C0936000CF910895FF922D
:1008C0000F931F93CF93DF9380916600882389F065
:1008D0004FDFC82F81110BC0809166008093770095
:1008E0008C2FDF91CF911F910F91FF90089510925F
:1008F000660080917700882331F0DF91CF911F91BE
:100900000F91FF9035CF08E710E08EE0F82EF00E43
:10091000F801D4918D2F2CDFC82F811107C0D093FF
:100920007700D09366008D2FB8DFDACF0F5F1F4FAF
:10093000F012EECF109277008AE0C6DEC1E0D0CF91
:10094000CF92DF92EF92FF926B017C01DC01CB0131
:1009500012970097A640B10510F4C70185DE8C2DD3
:10096000880F880F880F8870E0916700F091680009
:1009700080620995D701C60129E0B695A79597959C
:1009800087952A95D1F7E0916700F0916800099565
:10099000D701C601B695A79597958795E091670011
:1009A000F09168000995E0916700F091680080E09F
:1009B000FF90EF90DF90CF900994CF92DF92EF926B
:1009C000FF92CF93DF936B017C01D42FC22FDC0108
:1009D000CB0112970097A640B10510F4C70144DE81
:1009E0008C2D880F880F880F8870E0916700F09138
:1009F000680080640995E0916700F0916800D70174
:100A0000C60129E0B695A795979587952A95D1F7C0
:100A10000995E0916700F0916800D701C601B6958D
:100A2000A795979587950995E0916700F0916800E3
:100A30008D2F0995C11108C080E0DF91CF91FF9003
:100A4000EF90DF90CF900895DF3F61F0CEE181E03D
:100A5000A7D0C701B60174DF8D1771F3C15041F4FF
:100A600081E0EBCFC701B6016BDF8F3F79F7E4CFB1
:100A7000C53168F784E0CB3058F382E0E9CFCF92FC
:100A8000DF92EF92FF92CF936B017C01DC01CB01EF
:100A900012970097A640B10510F4C701E5DDE0917B
:100AA0006700F09168008CE40995E0916700F0918F
:100AB0006800D701C60129E0B695A7959795879557
:100AC0002A95D1F70995E0916700F0916800D70168
:100AD000C601B695A795979587950995E09167000A
:100AE000F091680080E00995C9E181E059D0C70123
:100AF000B60126DF8F3F81F4C15039F481E0CF91F8
:100B0000FF90EF90DF90CF900895C03170F784E0B0
:100B1000C63060F382E0EACF80E0F1CFCF93DF937D
:100B2000EC01E0916700F091680080EA0995E0919E
:100B30006700F09168008D2F0995E0916700F091B2
:100B400068008C2F0995E0916700F091680080E0C3
:100B5000DF91CF9109941F93CF93DF93D82F192F53
:100B6000C62FE0916700F091680080EC0995E09154
:100B70006700F0916800812F0995E0916700F0917E
:100B800068008D2F0995E0916700F09168008C2F27
:100B900009958BE005D080E0DF91CF911F910895FA
:100BA00022B792B7921B9C33E0F38150C9F70895A6
:100BB000262FFC0142815381052E000C660B770B1A
:100BC00040937200509373006093740070937500AB
:100BD00086819781909371008093700020937800B4
:100BE00008950F931F93522F2091760021110FC06B
:100BF000FC0102811381012E000C220B330B0093A8
:100C00007200109373002093740030937500242FAA
:100C100030E030936D0020936C0050FD40936F00E6
:100C2000FC0186819781909371008093700060939E
:100C300078001F910F910895CF92DF92EF92FF926B
:100C40000F931F93CF938C01DC011196CC911197D8
:100C5000C130D1F48091770037DD10927600A898EA
:100C6000EBDD2DDE80936900882319F00DDE1092F4
:100C70006600809169008093790089E790E0909305
:100C800091008093900081C0C23339F48091770045
:100C90001BDDA898E9DDC0E0F0CFC33379F4C2983A
:100CA000FC0182818093630086819781909371001B
:100CB00080937000C0937800CFEFDFCFC43389F406
:100CC000C29812968C9112978093630016968D911C
:100CD0009C91909371008093700082E380937800E0
:100CE000EBCFC63419F4A898EED5D5CFC73411F49C
:100CF000EFD5D1CFC83411F4FDD5CDCFCA3439F4F6
:100D0000FC01828109D680937900C1E0B6CFCB3453
:100D100021F412968C912CD6F6CFCC3409F06FC00A
:100D2000FC01838191E0811101C090E090936B0000
:100D3000D80112969C91129790936200882309F42F
:100D400058C0823059F51496CD90DC900D2C000CD3
:100D5000EE08FF08C0927200D0927300E092740017
:100D6000F0927500B5D5C0916200C114D104F1E0D4
:100D7000EF06F10408F0CE608C2FCED58823C9F0A1
:100D8000B9D58EEF80937900C1E08C2FCF911F9160
:100D90000F91FF90EF90DF90CF900895C12CD12C50
:100DA00076018130B9F6F801C480D12CF12CE12C08
:100DB000D1CFC114D10481E0E806F10418F08D2DE3
:100DC000ABD507C0AFEFCA16D104E104F10409F0B6
:100DD000B0F78C2DA1D57CD58C2F81609DD5D80105
:100DE00016968D919C91909371008093700086E38C
:100DF00075CF6ED561E0F8018281E4D5F0CFCD34B6
:100E0000E1F5FC01938181E0911101C080E08093C4
:100E10006B00D80112968C91129780936200149601
:100E20008C91149780936100992381F09230D9F4CA
:100E300015969C91092E000CAA0BBB0B8093720097
:100E400090937300A0937400B0937500F8018681AD
:100E50009781909371008093700085E38093780070
:100E600010926A0029CF913021F490E0B0E0A0E028
:100E7000E5CF80E090E0DC01E1CFCD3571F4149650
:100E80008C91149780936E0016968D919C919093FF
:100E90007100809370008AE321CFCC3561F4FC01AE
:100EA000848180936E0086819781909371008093F6
:100EB000700089E313CFCE3541F4D0D5C82F8130EF
:100EC00009F0AEC080937900D8CECF3511F4D5D5D6
:100ED0001ACFCA3509F040C0A89883D5D801129618
:100EE0008C91129713963C91139714962C9114970A
:100EF00015969C9115978093720030937300209300
:100F000074009093750016966C916F7176D5F80108
:100F100086818295869587708683882391F08AD50D
:100F200080937900D80116968C91823018F082D582
:100F300080937A00F8018681833018F07BD5809306
:100F40007B00D80116968C91843018F073D580936D
:100F50007C0051D5C4E091CEC23019F495DCA99A39
:100F60009ACEC33041F5E0916700F0916800129687
:100F70008C91099580937900E0916700F091680069
:100F8000D80113968C91099580937A00E0916700BF
:100F9000F0916800D80114968C91099580937B009C
:100FA000E0916700F0916800D80115968C91099541
:100FB00080937C00CFCF62E0C43009F476C063E058
:100FC000C73009F472C0C53011F479DC9CCEC6304C
:100FD00041F4FC0125812F70448161E0C80101DEEC
:100FE0006BCEC83021F420E040E064E0F7CFC93098
:100FF00089F481E080937600F80182819381A48155
:10100000B5818093720090937300A0937400B093A5
:10101000750041CECA3039F412968C9180937700D6
:101020001092790072CEC43141F41092790080910F
:10103000770080937A00C2E020CECB3089F4FC01A7
:10104000828193819093B1008093B000C29ABA9A42
:1010500083E0A6DDC298A89880E1A2DD76D91BCEF8
:10106000CC3099F480EC7AD980E078D98AE098DDA8
:10107000C29A85E095DDC29885E092DD87B3837DD5
:1010800087BB88B3837D88BB06CECD3011F473D97E
:101090003ACECE3021F412968C9160D9C1CF65E062
:1010A000CF3019F0C03121F466E0C80181DD04CEF3
:1010B000CF3709F0F0CD89E18093790081E8809302
:1010C0007A0010927B008FE073CFAF92BF92CF92E5
:1010D000DF92EF92FF920F931F93CF93DF93EC0178
:1010E000809178009EEF980F923048F0853039F06B
:1010F000833329F0893319F0863309F045C170E054
:1011000000917000109171006017710708F48B0155
:10111000F02EA99880917800853059F5A801BE017C
:10112000809172009091730076D9809172009091B5
:101130007300A0917400B0917500800F911FA11DE4
:10114000B11D8093720090937300A0937400B093CC
:1011500075008091700090917100801B910B9093AD
:10116000710080937000892B09F05FC010927800A5
:101170005CC0833351F5EC2ECC2EDD2E8C2D8E19D8
:101180008F15B0F08091700090917100801B910BD1
:101190009093710080937000892B09F046C0809174
:1011A0006300882319F3C29A24E02A95F1F7DECF71
:1011B000E0916700F091680080E00995F601819365
:1011C0006F01F4E0FA95F1F7D9CF863309F059C0F1
:1011D00080916B00D12CC12C5801811110C081E08D
:1011E000A81AB108CF1480F481E0AC14BD0409F052
:1011F00080E0BED389932FEFC21AD20AF3CFE1E089
:10120000AE1AB108CF14F8F080917000909171007F
:10121000801B910B9093710080937000892B29F4AF
:1012200069D31092780010926B00A99AA8988F2D1C
:10123000DF91CF911F910F91FF90EF90DF90CF90B2
:10124000BF90AF90089581E0AC14BD0409F080E038
:101250008FD389938091720090917300A091740054
:10126000B09175000196A11DB11D809372009093FD
:101270007300A0937400B0937500FFEFCF1ADF0ADC
:10128000C1CF8933F1F4EC2ECC2EDD2E8C2D8E19AE
:101290008F1578F08091700090917100801B910BF8
:1012A0009093710080937000892B09F0BECFA3D377
:1012B0005DCFC0D3F60181936F01F4E0FA95F1F7A9
:1012C000E5CF9EEF980F923008F05EC0D12CC12C74
:1012D000EE24EA94823009F051C0EC2ECC2EDD2EA3
:1012E0008C2D8E198F1508F034CF6091720070919B
:1012F0007300809174009091750022DBF601819358
:101300006F018091720090917300A0917400B09170
:1013100075000196A11DB11D80937200909373001A
:10132000A0937400B0937500DBCF80917200909110
:101330007300A0917400B09175005E01AC0CBD1CEF
:101340000097F1E0AF07B105E0F4E8DBF501808339
:101350008091720090917300A0917400B09175001B
:101360000196A11DB11D8093720090937300A0930C
:101370007400B0937500FFEFCF1ADF0ACF14A8F204
:10138000E8CEF501E082E4CFA99AFF24FA944FCF8A
:101390008F929F92AF92BF92CF92DF92EF92FF9285
:1013A0000F931F93CF93DF938C0180917800882354
:1013B00009F453C2813059F0982F9D7F943039F051
:1013C000982F977F923319F0853309F046C2A99878
:1013D000C0907000D0907100E62EF12CCE14DF0486
:1013E00008F47601CE2D809178008630C1F5A701F2
:1013F000B801809172009091730010D880917200B2
:1014000090917300A0917400B09175008E0D9F1D96
:10141000A11DB11D8093720090937300A09374007E
:10142000B093750080917000909171008E199F09A2
:101430009093710080937000892B49F1C0E0A99AC4
:10144000A8988C2FDF91CF911F910F91FF90EF9073
:10145000DF90CF90BF90AF909F908F900895823390
:1014600011F5D02F68018C2D8D1B8C1798F0809171
:101470007000909171008E199F0990937100809374
:101480007000892BD9F6809163008111C29A109265
:101490007800D9C0E0916700F0916800D6018D9185
:1014A0006D010995E0CF853309F0E0C080916B00B4
:1014B00081111AC0D02F68018C2D8D1B8C1708F458
:1014C000C4C080917000909171008E199F09909313
:1014D000710080937000892B09F0B0CF809161007A
:1014E0008130A9F607D2D3CF60917200709173005A
:1014F0008091740090917500D0E461157105B1E0A0
:101500008B07910508F0D0E88D2E912CB12CA12CE1
:10151000A5019401CED2D61BDC1708F4CD2FCC1533
:101520001D0411F008F0CC2D80916A00811136C0A5
:10153000CFD1809162004091720050917300609110
:1015400074007091750041155105E1E06E07710559
:1015500048F09FE076956795579547959A95D1F70E
:101560004E70842BD9D1811179C0809172009091F5
:101570007300A0917400B09175000097F1E0AF077F
:10158000B10578F0892FC8D1811168C080917200AF
:10159000C3D1811163C081E080936A00D02F7801AC
:1015A00020C08F3F9105A105B10591F388F3EACFE3
:1015B000D7018D917D01B0D1811150C08091720011
:1015C00090917300A0917400B09175000196A11DD7
:1015D000B11D8093720090937300A0937400B09338
:1015E00075008E2D8D1B8C1718F3809170009091D3
:1015F00071008C1B91099093710080937000892B6E
:1016000081F06091720070917300809174009091EC
:101610007500A50194014DD2672B682B692B09F049
:101620000ECF68D1E7E9FAE33197F1F700C0000087
:101630008091700090917100892B09F000CF109279
:10164000780010926B00C1E0FACED6018D916D0149
:1016500063D1882309F430CFCEEFF1CE4BD1109275
:10166000780010926B0010926A00F6CF8A3359F519
:10167000D12CC12C17C0D0916E00DD2381F0D93060
:1016800008F0D8E06D2FF801EC0DFD1D8081B5D17B
:101690008111E1C080916E008D1B80936E00BFEFC1
:1016A000CB1ADB0ACC1638F3809170009091710050
:1016B0008E199F099093710080937000892B09F017
:1016C000BDCE99D1E4CED02F6801813009F466C037
:1016D000843009F0C2C08091720090917300A09193
:1016E0007400B091750068010097A140B10508F43D
:1016F000ADC0CCEFA4CEF60141916F0160917200B4
:1017000070917300809174009091750020916C002D
:1017100030916D00232B31F421E04FD9882359F10A
:10172000CBEF8DCE20E049D98111FACF80916F00A7
:10173000815080936F0081111EC060916C00709188
:101740006D0071956195710990E080E000917200E3
:101750001091730020917400309175006023712303
:10176000822393238CD9882311F0CAEF68CE80910D
:101770006C0080936F008091720090917300A09133
:101780007400B09175000196A11DB11D8093720087
:1017900090937300A0937400B09375008C2D8D1BF3
:1017A0008C1708F4A8CF80917000909171008E1969
:1017B0009F099093710080937000892B09F03ECEB1
:1017C00080916C0090916D00009709F460CE20919B
:1017D0006F002817190609F45ACE00917200109173
:1017E0007300209174003091750001501109210996
:1017F0003109919581959109B0E0A0E0BC01CD013E
:1018000060237123822393233AD9882309F43FCE9E
:10181000ACCFD6016D916D018091720090917300F3
:101820009AD9811166CF8091720090917300A09136
:101830007400B09175000196A11DB11D80937200D6
:1018400090937300A0937400B09375008C2D8D1B42
:101850008C17F8F2E7CDCDEFF2CDCFEFF0CD12BA85
:1018600018BA88B38C7F88BB87B3836087BB2FEFA0
:1018700037E582E0215030408040E1F700C00000B1
:1018800017BA93E094BBA29885B38C6385BBA898E4
:101890002FEF3FEA84E0215030408040E1F700C064
:1018A0000000A89AA9982FEF3FEA84E02150304029
:1018B0008040E1F700C00000A99AA89893BFC2D663
:1018C0007894AFD5FECFBC98C49ABB98C39A0895BC
:1018D000BC98C49ABB98C39A84E18A95F1F7BC9AE4
:1018E000C49884E18A95F1F7BB9AC39884E18A95FC
:1018F000F1F70895BB9AC398BC9AC49888E08A957A
:10190000F1F7BB98C39A88E08A95F1F7BC98C49A1E
:1019100084E18A95F1F7089598E0BB9AC39828E08E
:101920002A95F1F787FF21C0BC98C49A28E02A9530
:10193000F1F7BB98C39A24E12A95F1F7880F9150EB
:1019400061F7BB9AC398BC98C49A88E08A95F1F76E
:10195000BB98C39A24E12A95F1F786B3BB9AC39842
:1019600082958F70809581700895BC9AC498DECF5F
:10197000282FBC98C49A98E080E0BB9AC39834E1C1
:101980003A95F1F7BB98C39A34E13A95F1F7880F8D
:10199000B4998160915089F7BB9AC39821110FC007
:1019A000BC9AC49898E09A95F1F7BB98C39A38E02E
:1019B0003A95F1F7BB9AC398BC98C49A0895BC981D
:1019C000C49AF0CF880F613009F48160A5CFC59823
:1019D000089587B38C6287BBBC98F9DFC398C2981F
:1019E0000895C298C59802D7C29AC39AFFD6C59ADD
:1019F000FDD6C598FBC6C298EACFCF93DF93D82F08
:101A00006150770BC1E001C0CC0F6A95EAF7C111B4
:101A100004C080E0DF91CF910895D9DF8C2F8D2312
:101A200039F0C39AE3D6C59AE1D6D1DFC695EFCF98
:101A3000C398F8CFCF93DF93D8E0C0E0C8DFD6D605
:101A4000C59A86B382958170CC0FC82BCFD6BFDFE5
:101A5000D150A1F78C2FDF91CF910895CF93B9DFAB
:101A6000C29A88E28A95F1F7C1D6C6B3C4DFC2959F
:101A7000C17081E08C27CF910895CF93AADFC29ADD
:101A800088E28A95F1F768E080ECB7DFC0E09FDF7D
:101A9000ADD6C59AABD6B49906C0CA5F98DFABDFA6
:101AA0008C2FCF91089593DFCF5FC73081F7CFEFB1
:101AB000F6CFA1E21A2EAA1BBB1BFD010DC0AA1F67
:101AC000BB1FEE1FFF1FA217B307E407F50720F0A7
:101AD000A21BB30BE40BF50B661F771F881F991F22
:101AE0001A9469F760957095809590959B01AC016B
:101AF000BD01CF010895262FE199FECF9FBB8EBB7C
:101B0000E09A01970DB2021631F02DBB0FB6F89492
:0C1B1000E29AE19A0FBE0895F894FFCF0E
:041B1C00FF01A00124
:00000001FF
