:100000004BC07FC064C063C062C061C060C05FC0DD
:100010005EC05DC05CC05BC05AC059C058C057C00C
:1000200056C055C054C009021200010100A01909B0
:10003000040000000000000012011001FF00000891
:10004000C016DC050701010200010E035500530034
:1000500042006100730070001C0377007700770096
:100060002E00660069007300630068006C002E00BB
:10007000640065000403090403060C183060C00026
:1000800001000100000001010202030D0C0B0A092E
:10009000080706050403020111241FBECFE5D4E0C2
:1000A000DEBFCDBF20E0A6E6B0E001C01D92A13BBF
:1000B000B207E1F710E0A0E6B0E0E6EFF6E102C03B
:1000C00005900D92A636B107D9F7B5D512CB98CFCA
:1000D000A82FB92F80E090E041E050EA609530E031
:1000E00009C02D9182279795879510F08427952731
:1000F000305EC8F36F5FA8F30895EADF8D939D9398
:100100000895CF93CFB7CF93C395B09BE9F7B09B3A
:1001100009C0B09B07C0B09B05C0B09B03C0B09B9B
:1001200001C0A1C0DF93C0919000DD27C856DF4F0A
:10013000B09B02C0DF91EBCF2F930F931F9306B3B9
:100140002FEF00FB20F94F933F9316B34FEF01279A
:1001500000FB21F93BE031C04E7F012F16B3216037
:1001600028C0102F4D7F2260000006B329C04B7FAE
:100170002460012F000016B32BC016B3477F286000
:100180002AC04F7E06B320612CC04F7D16B320627B
:100190002FC04F7B06B3206432C0422706B3499379
:1001A0004FEF0000102710FB20F916B31370C9F1B0
:1001B000297F91F2012700FB21F906B3237F89F201
:1001C000315058F1102710FB22F916B3277E79F22F
:1001D000012700FB23F92F7C81F206B3102710FBC7
:1001E00024F92F7971F200C016B3012700FB25F91D
:1001F0002F7359F200C006B3102710FB26F92230E6
:1002000040F200C016B3012700FB27F9243028F67E
:100210004F77206816B30000F9CF10E41ABF00270B
:1002200017C03B503195C31BD04010E41ABF088162
:10023000033CE9F00B34D9F020918E001981110FA5
:100240001213EDCF093641F10D3211F0013E39F7AD
:10025000009396003F914F911F910F912F91DF9145
:10026000CAB7C6FD51CFCF91CFBFCF91189520917E
:100270009600222379F310919400112311F5343064
:1002800012F13093940020938F00109190003BE086
:10029000311B3093900017C00091940001308CF412
:1002A0000AE53091910034FD10C000939100C3E83D
:1002B000D0E00FC02795A8F45150A9F4220F0000F8
:1002C000F9CF4AE503C042ED01C0432FC4E1D0E0BD
:1002D00032E017B31360C09A17BB08B320E413E0F1
:1002E0005F93012756E008BB279520F4515021F475
:1002F000220FF9CF012756E000003B5A08BBD0F28D
:10030000279528F4515029F4220F0000F9CF012736
:1003100056E0279508BB20F4515021F4220FF9CF65
:10032000012756E02991332308BB21F60C7F109159
:100330009500110FC651D04008BB11F010938E00EC
:1003400010E41ABF016017B31C7F402F4C7F5F91F0
:1003500000C000C008BB17BB48BB7CCFC598BD9A86
:10036000C39ABB9850E23FD05A95E9F708953DD023
:1003700028E0332780FB0EF4339539D086952A95F3
:10038000C9F730FB34D02FD02EC033273093B000C4
:1003900020EC29D066F42A95E1F780E021E0209353
:1003A000B0002AE122D02A95E9F71DD01BC028E031
:1003B0003327882718D0869587F90EF433952A9528
:1003C000C9F711D020F9322730FD03C00CD00BD073
:1003D00009C0882721E02093B0002AE106D02A95A1
:1003E000E9F701C00895689402C0E89400C01EF0C7
:1003F000C398BB9A02C0C39ABB9806D0C59A04D0D2
:1004000096B393FBC5980895A091AE00B091AF004C
:10041000109711F01197F1F70895BC0188E6A7DF56
:10042000862FA5DF89E6A3DF872FA1CFCF93DF93A8
:1004300060919400635067FD90C080919000CCE083
:10044000D0E0C81BD109C856DF4F80918F008D3294
:1004500009F0BFC0683009F07EC083EC8093830050
:100460008AE580939100109266008881807671F011
:10047000CE0167D78F3F09F466C09F81911169C093
:100480009E81981708F065C0892F63C02A81109259
:100490008C00998191110AC010928D002CE830E0F7
:1004A00082E03093930020939200E7CF953029F4B7
:1004B000209395002CE830E0F4CF963099F59B819D
:1004C000913059F488E390E09093930080939200E8
:1004D00082E190E490936600D0CF923019F486E2E6
:1004E00090E0F2CF9330A9F7211108C084E790E0A3
:1004F000909393008093920084E0EBCF213041F4FD
:1005000088E590E090939300809392008CE1E1CF96
:100510002230F9F68AE490E0909393008093920061
:100520008EE0D7CF983059F0993019F42093970086
:10053000C1CF81E09A3009F4BDCF80E0BBCF27E97D
:1005400030E081E0AECF988197FD8E8190E8909366
:10055000660080936700109294008091910084FF60
:100560002BC0C0916700CF3F39F16C2FC93008F024
:1005700068E08C2F861B809367008091830098E849
:10058000892780938300CC2359F02091660027FFB0
:1005900032C084E890E077D5C82F893008F052C087
:1005A0006C2F84E890E0A9DDCC5FCC3019F08FEFA0
:1005B00080936700C093910084E196B3937031F407
:1005C0008150D9F71092950010928E00DF91CF9153
:1005D00008958091660087FFBECFCE014FD38F3F35
:1005E00021F48EE180939100B6CF882309F4B3CF34
:1005F00010926700B0CF809192009091930026FFF7
:1006000017C0FC01A4E8B0E0262F280F34913D93D9
:1006100031962E13FBCF2FEF260F30E02F5F3F4F89
:10062000820F931F9093930080939200C62FB8CFB0
:10063000A4E8B0E0FC01262F280F31913D932E1342
:10064000FCCFE9CF8FEF80936700CEE1B3CF8AE58F
:10065000809391008FEF8093670085B7826085BF9C
:100660008BB780648BBF0895C5980895C298FCCF5E
:10067000FC01228120937C00338130937D008091A6
:100680007400882349F180916B0080937E00109262
:100690007F008681978190938100809380006130F4
:1006A000C1F48481958190937900809378000097BC
:1006B000B1F0AC0141505109FA01E823F923EF2BC5
:1006C00071F424233523821B930B9093770080933E
:1006D000760060938200089510927E00D8CF109229
:1006E0007900109278001092770010927600F1CF86
:1006F000815008F4089522B792B7921B9C33E0F31F
:10070000F7CFCF93DF93EC01E0916400F0916500A7
:1007100080EA0995E0916400F09165008D2F0995BC
:10072000E0916400F09165008C2F0995E0916400E0
:10073000F091650080E0DF91CF9109941F93CF93F2
:10074000DF9300D000D0CDB7DEB769837A838B8387
:100750009C838091780090917900009751F02A81D4
:10076000919581959109398183238983822F8923EA
:100770008A83E0916400F09165008CE409951A8108
:100780008B8120E8829FC0011124912F9695E091E2
:100790006400F0916500892B09958981869590E820
:1007A000199F90011124E0916400F0916500822B63
:1007B0000995E0916400F091650080E009958FE073
:1007C00097DF80E00F900F900F900F90DF91CF9107
:1007D0001F910895CF92DF92EF92FF926B017C01FF
:1007E00028E0629FC00111248870E0916400F091BC
:1007F0006500806209952D2D269530E8E39EC001A5
:100800001124E0916400F0916500822B09952C2D54
:10081000269530E8D39EC0011124E0916400F09148
:100820006500822B0995E0916400F091650080E0FD
:10083000FF90EF90DF90CF900994CF92DF92EF92EC
:10084000FF92CF93DF936B017C01D42FC22F28E05E
:10085000629FC00111248870E0916400F0916500EE
:10086000806409952D2D269530E8E39EC001112462
:10087000E0916400F0916500822B09952C2D26955E
:1008800030E8D39EC0011124E0916400F09165002E
:10089000822B0995E0916400F09165008D2F0995F8
:1008A000CC2371F0DF3F51F0C4E1C701B60192DF04
:1008B000D81731F081E01CDFC150B9F78FE018DFA5
:1008C00080E0DF91CF91FF90EF90DF90CF9008957F
:1008D000CF93C82F809174008823F9F08091600035
:1008E0008C17D9F0C0936000E0916400F09165002E
:1008F0008DE40995E0916400F091650080E0099530
:10090000E0916400F09165008C2F0995E0916400FE
:10091000F091650080E0CF910994CF9108958FB94F
:10092000779BFECF8FB1089587B38C6287BBBC984D
:100930008FEF80936000089522B79091680082B78E
:10094000821B8917E0F308951F93CF93DF93182F2D
:10095000C598D8E0C0E017FF13C0C39A110FECDFB1
:10096000C59AEADF86B382958170CC0FC82BC598F3
:10097000E3DFD15081F78C2FDF91CF911F91089544
:10098000C398ECCF811105C080916100811101C035
:100990008DE09FEF980F9D3000F18DE08093750002
:1009A0002FE834E0309365002093640010926800D3
:1009B000EDE0E81B8E2F90E0FC01EB57FF4FE49138
:1009C000E065EDB9FC01E158FF4FE4918EB18E7FF7
:1009D000E82BEEB98EB18FB1089580937500883001
:1009E000F8F624EA34E030936500209364001DB8E3
:1009F000E7E0E81BF0E0E858FF4FE491E09368007F
:100A000008950F931F93CF93DF93C82FBBDFD2E0DE
:100A1000C83008F4D0E1C5E01FEFC29A8D2F68DE20
:100A2000C29884E665DE10936000E0916400F09166
:100A300065008CEA0995E0916400F091650083E51A
:100A40000995E0916400F091650080E00995082F18
:100A5000E0916400F091650080E00995033551F064
:100A600083E046DEC150C9F681E0DF91CF911F914E
:100A70000F910895E0916400F091650080E309957D
:100A8000E0916400F091650080E00995E0916400D8
:100A9000F091650080E00995E0916400F0916500B7
:100AA00080E009958E31E1F680E0DFCF0F931F9350
:100AB000CF93DF9380916900D0916100882321F06A
:100AC00010926900D0917500C0E0DD23D1F08D2F28
:100AD00098DFEBE8F0E0C0E0811109C0D093750029
:100AE000D0936100DF91CF911F910F910895849170
:100AF0008D130FC0CF5F809161008D1302C01092E3
:100B000061000C2F10E005571F4FCD3051F481E0EC
:100B1000E9CF8D1780F3CF5F3196CD3041F7C0E03C
:100B2000EACFF801D4918D2F6CDF0F5F1F4F882320
:100B3000B9F2CF5FEACF8FEF089588E28A95F1F797
:100B40000895282FBC98C49A98E080E0BB9AC39877
:100B500030E13A95F1F7BB98C39A30E13A95F1F755
:100B6000880FB4998160915089F7BB9AC39821117D
:100B70000FC0BC9AC49898E09A95F1F7BB98C39AB5
:100B800038E03A95F1F7BB9AC398BC98C49A089597
:100B9000BC98C49AF0CF98E0BB9AC39828E02A95F5
:100BA000F1F787FF21C0BC98C49A28E02A95F1F795
:100BB000BB98C39A20E12A95F1F7880F915061F70D
:100BC000BB9AC398BC98C49A88E08A95F1F7BB9801
:100BD000C39A20E12A95F1F786B3BB9AC398829510
:100BE0008F70809581700895BC9AC498DECFBB9AAF
:100BF000C398BC9AC49888E08A95F1F7BB98C39AC9
:100C000088E08A95F1F7BC98C49A80E18A95F1F75B
:100C10000895BC98C49ABB98C39A80E18A95F1F76D
:100C2000BC9AC49880E18A95F1F7BB9AC39880E199
:100C30008A95F1F70895C3E0C3BF12BA18BA88B312
:100C40008C7F88BB87B3836087BB88EC51DD17BA84
:100C5000C4BBA29885B38C6385BBA89888EC48DD9B
:100C600088EC46DDA89AA99888EC42DD88EC40DD46
:100C7000A99AA898ECDC7894D9DBFECF4F925F92CA
:100C80006F927F92AF92BF92CF92DF92EF92FF92DC
:100C90000F931F93CF93DF93EC01062F662309F484
:100CA00053C080918200882309F4CFC1813059F06C
:100CB000982F9D7F943039F0982F977F923319F0B9
:100CC000853309F0C2C1809180009091810008179E
:100CD000190611F008F0082FA9981091820016301B
:100CE00009F05FC0E02EF12C80917C0090917D0096
:100CF00094DB6E01CE0CDF1CCC15DD05A9F58091CF
:100D00007C0090917D00A0917E00B0917F00800FCB
:100D1000911DA11DB11D80937C0090937D00A09337
:100D20007E00B0937F0080918000909181008E19A9
:100D30009F099093810080938000892B09F451C012
:100D400010E0A99AA898012F802FDF91CF911F91D1
:100D50000F91FF90EF90DF90CF90BF90AF907F907A
:100D60006F905F904F90089583EF01DB8DE1FFDA84
:100D700084E6FDDA8991FBDA12E382E7F8DA05DB33
:100D80009091B000911106C087FFB6CF81E0B0DC32
:100D9000115099F7109282001092810010928000F9
:100DA000AECF123311F57E01E0916400F091650041
:100DB000D7018D917D0109958C2F8E19800FA1F798
:100DC0008091800090918100801B91099093810017
:100DD00080938000892B09F0B3CF8091630081114B
:100DE000C29A1092820011E0ACCF153329F57E0132
:100DF000F70181917F01CFDE811107C0109282003F
:100E00001092810010928000EECF8C2F8E19800FEF
:100E100079F78091800090918100801B91099093D7
:100E2000810080938000892B09F08ACF80917B001C
:100E30008823B9F2DCDED5CF1A3309F047C0CC24C1
:100E4000C394D12C7C2E700E80917A00182F89309B
:100E500008F018E0811114C0809180009091810009
:100E6000801B91099093810080938000892B09F069
:100E700067CF80916200882309F4B3CFF7DBB1CF4D
:100E8000A990B12C212F2150330B760102C0EE0C1A
:100E9000FF1C2A95E2F7E114F10441F480917A00F5
:100EA000811B80937A007C12CFCFD6CFDDDBC501CA
:100EB0008E219F21892B41F0C39A3FDEC59A3DDEEA
:100EC000D3DBF694E794E7CFC398F7CF113009F05E
:100ED0008AC0C0907C00D0907D00E0907E00F090B1
:100EE0007F008E2D8695F4DC260137015E01D50149
:100EF0004D915D018091780090917900892B09F0E6
:100F000056C021E0C301B20198DCBFEF4B1A5B0A67
:100F10006B0A7B0A4114510419F4862D8695D8DC9E
:100F20008C2F8A19800F19F7EFEFCE1ADE0AEE0A1E
:100F3000FE0A8FEF800FC80ED11CE11CF11CC0927D
:100F40007C00D0927D00E0927E00F0927F00809144
:100F5000800090918100801B910990938100809383
:100F60008000892B09F0ECCE1092820080917800ED
:100F700090917900009709F4E4CE209176003091A9
:100F800077008217930709F4DCCE80917E00869566
:100F90009FDC60917C0070917D0080917E0090913B
:100FA0007F006150710981099109C8DBCACE20E038
:100FB000C301B20142DC80917600909177000197E5
:100FC0009093770080937600892B09F09ECFC30120
:100FD000B201B4DB80917800909179009093770012
:100FE0008093760092CF143071F5FC2EF00EE990CC
:100FF00040907C0050907D0060907E0070907F005B
:101000006201E0916400F091650080EC0995E09147
:101010006400F0916500852D0995E0916400F091E0
:101020006500842D0995E0916400F09165008E2D96
:10103000099519E181E05CDBC60163DBE81639F054
:101040001150C1F7CECE1FEF7CCE0FEF7DCE809139
:101050007C0090917D00A0917E00B0917F00019670
:10106000A11DB11D80937C0090937D00A0937E0014
:10107000B0937F00FC12BBCF8091800090918100E3
:10108000801B910956CE4F925F926F927F92AF92E2
:10109000BF92CF92DF92EF92FF921F93CF93DF9395
:1010A000EC01162F662309F43DC1809182009EEF6A
:1010B000980F923048F0853039F0833329F0893326
:1010C00019F0863309F02CC1809180009091810045
:1010D0001817190611F008F0182FA99880918200AE
:1010E000853009F040C0E12EF12C80917C00909178
:1010F0007D0093D96E01CE0CDF1CCC16DD0671F09D
:1011000084E235D942D989938091B0008823A9F32C
:1011100010928200109281001092800080917C00D9
:1011200090917D00A0917E00B0917F00810F911D74
:10113000A11DB11D80937C0090937D00A0937E0043
:10114000B0937F0080918000909181008E199F095B
:101150009093810080938000892B11F4109282007B
:10116000A99AA898DFC0833301F57E01E09164005D
:10117000F091650080E00995F70181937F018C2F44
:101180008E1B810F99F78091800090918100811BC7
:1011900091099093810080938000892B09F78091B9
:1011A00063008823D9F2C29AD9CF863321F57E0114
:1011B00020918000309181002150310930938100CD
:1011C000209380006701FFEFCF1ADF0A81E0232B15
:1011D00009F080E0B6DCF701808376018C2F8C1952
:1011E000810F31F78091800090918100892B09F067
:1011F000B7CFFDDCB3CF893351F57E01D12EDC0EA4
:10120000C8E0D0E031DA99DCC59A86B38295817066
:10121000DD0FD82B92DC28DAC150A1F7F701D1936A
:101220007F01DE12EDCF8091800090918100811BC3
:1012300091099093810080938000892B09F090CFD1
:1012400080916200882309F489CF10DA87CF823039
:10125000E9F5C0907C00D0907D00E0907E00F09099
:101260007F008E2D869534DB260137015E01C30198
:10127000B201B0DAF50181935F01FFEF4F1A5F0A07
:101280006F0A7F0A4114510419F4862D869520DBDC
:101290008C2F8A19810F59F78FEFC81AD80AE80ADC
:1012A000F80A8FEF810FC80ED11CE11CF11CC0920F
:1012B0007C00D0927D00E0927E00F0927F008091D1
:1012C000800090918100811B910942CF833041F5CC
:1012D00020917C0030917D007E016901EFEFCE1AF4
:1012E000DE0AC9010EDAF70181937F0196019C2F76
:1012F0009E1B910F91F780917C0090917D00A091B1
:101300007E00B0917F00810F911DA11DB11D8093C2
:101310007C0090937D00A0937E00B0937F00CFCFA0
:10132000A99A1FEF812FDF91CF911F91FF90EF902E
:10133000DF90CF90BF90AF907F906F905F904F9075
:1013400008950F931F93CF938C01DC011196CC91DC
:101350001197C13061F58091750014DB1092740013
:10136000A898E2DA1092740010926B001092790043
:10137000109278008FEF80936000C298C59881E04A
:10138000B7D9C29A81E0B4D9C29890DB80936C003F
:101390008FEF8C0F8E3F30F48CE690E090939300AB
:1013A000809392008C2FCF911F910F910895C2309E
:1013B00049F51092740010926B001092790010920F
:1013C00078008FEF80936000C29A81E091D987B353
:1013D000837D87BB88B3837D88BB8DB18F7A8DB9C0
:1013E0008EB18FB104DC10927500109282001092C1
:1013F0007700109276001092810010928000A99AD6
:10140000C0E0C6CFC33049F5E0916400F0916500BB
:1014100012968C91099580936C00E0916400F09194
:101420006500D80113968C91099580936D00E09129
:101430006400F0916500D80114968C910995809311
:101440006E00E0916400F0916500D80115968C91D2
:10145000099580936F00C4E09BCFC53021F426DB53
:1014600080936C0008C162E0C43009F43FC163E0BE
:10147000C73009F43BC161E0C63009F437C164E00C
:10148000C83009F433C1C93061F481E0809374003D
:10149000F801848180936B0086951ADA10926C00B3
:1014A000EAC0CA30C9F41092820012968C918E3034
:1014B00058F48093750080936A0091E0811101C017
:1014C00090E090936900EACF1092750010926A0044
:1014D0001092690081E0C4CFC131C1F410926C0058
:1014E0008091750080936D008091610080936E0003
:1014F0008091680080936F0080916A0080937000F3
:101500008091820080937100C6E042CFCF3751F4C2
:1015100087E080936C0081E880936D0010926E00EC
:101520008FEC97CFC23339F4809175002BDAA898ED
:10153000FBD9C29A65CFC33379F4FC0182818093D1
:101540006300C29886819781909381008093800088
:10155000C0938200CFEF1CCFC43389F412968C91D4
:10156000129780936300C29816968D919C919093E8
:1015700081008093800082E380938200EBCFC634A9
:1015800031F4A898BC98C49ABB98C39A39CFC9348F
:1015900011F43FDB35CFCA3411F429DB31CFCC3421
:1015A00021F4FC018281F7DA5BCFCB3421F412966F
:1015B0008C91C7DA55CFC73481F42BDBF8018281D7
:1015C000880F8160E8DAD80116968D919C919093EE
:1015D00081008093800086E3CFCFC834A9F419DB63
:1015E000F8018281880FD7DAD80114968C9114976C
:1015F000817080937B0016968D919C9190938100D1
:101600008093800085E3B8CFCD3581F4C29AFC0188
:10161000828180936200848180937A0086819781A1
:1016200090938100809380008AE3A6CFCC3581F42B
:1016300012968C9112978093620010927A001696FF
:101640008D919C91909381008093800089E394CF49
:10165000CE3599F487B38C6287BBBC9805D8C39804
:10166000C298C29A6ADAC6B301D8C295C17081E045
:10167000C827C0936C00C1E08BCECB3089F4FC014D
:10168000828193819093AF008093AE00C29ABA9A00
:1016900083E02ED8C298A89880E12AD85FD6B0CE31
:1016A000CC3099F480EC63D680E061D68AE020D813
:1016B000C29A85E01DD8C29885E01AD887B3837D89
:1016C00087BB88B3837D88BB9BCECD3011F45DD6BC
:1016D000C7CECE3021F412968C9149D6DFCE65E08C
:1016E000CF3021F0C03109F08BCE66E0C801C0D701
:0616F00031CFF894FFCF9A
:0616F600FF0D01019B0540
:00000001FF
